{
  "contractName": "lendingBorrowing",
  "abi": [
    {
      "anonymous": false,
      "inputs": [
        {
          "indexed": false,
          "internalType": "address",
          "name": "_memberAddress",
          "type": "address"
        }
      ],
      "name": "LogAddedCandidateToGroup",
      "type": "event"
    },
    {
      "anonymous": false,
      "inputs": [
        {
          "indexed": false,
          "internalType": "address",
          "name": "_approverAddress",
          "type": "address"
        },
        {
          "indexed": false,
          "internalType": "uint256",
          "name": "approvalCount",
          "type": "uint256"
        }
      ],
      "name": "LogApprovedRequest",
      "type": "event"
    },
    {
      "anonymous": false,
      "inputs": [
        {
          "indexed": false,
          "internalType": "address",
          "name": "_memberAddress",
          "type": "address"
        },
        {
          "indexed": false,
          "internalType": "uint256",
          "name": "amountBorrowed",
          "type": "uint256"
        },
        {
          "indexed": false,
          "internalType": "uint256",
          "name": "groupBalance",
          "type": "uint256"
        }
      ],
      "name": "LogBorrowingTransaction",
      "type": "event"
    },
    {
      "anonymous": false,
      "inputs": [
        {
          "indexed": false,
          "internalType": "string",
          "name": "_groupId",
          "type": "string"
        },
        {
          "indexed": false,
          "internalType": "uint256",
          "name": "numberOfMember",
          "type": "uint256"
        },
        {
          "indexed": false,
          "internalType": "address",
          "name": "_creator",
          "type": "address"
        }
      ],
      "name": "LogCreatedGroup",
      "type": "event"
    },
    {
      "anonymous": false,
      "inputs": [
        {
          "indexed": false,
          "internalType": "string",
          "name": "_groupId",
          "type": "string"
        },
        {
          "indexed": false,
          "internalType": "string",
          "name": "_nameSurname",
          "type": "string"
        },
        {
          "indexed": false,
          "internalType": "address",
          "name": "_participantAddress",
          "type": "address"
        }
      ],
      "name": "LogCreatedRequest",
      "type": "event"
    },
    {
      "anonymous": false,
      "inputs": [
        {
          "indexed": false,
          "internalType": "address",
          "name": "_memberAddress",
          "type": "address"
        },
        {
          "indexed": false,
          "internalType": "uint256",
          "name": "amountLended",
          "type": "uint256"
        },
        {
          "indexed": false,
          "internalType": "uint256",
          "name": "groupBalance",
          "type": "uint256"
        }
      ],
      "name": "LogLendingTransaction",
      "type": "event"
    },
    {
      "anonymous": false,
      "inputs": [
        {
          "indexed": false,
          "internalType": "address",
          "name": "_memberAddress",
          "type": "address"
        },
        {
          "indexed": false,
          "internalType": "uint256",
          "name": "amountPayedBack",
          "type": "uint256"
        },
        {
          "indexed": false,
          "internalType": "uint256",
          "name": "remainDebt",
          "type": "uint256"
        },
        {
          "indexed": false,
          "internalType": "uint256",
          "name": "groupBalance",
          "type": "uint256"
        }
      ],
      "name": "LogPayDebtedBack",
      "type": "event"
    },
    {
      "anonymous": false,
      "inputs": [
        {
          "indexed": false,
          "internalType": "address",
          "name": "_memberAddress",
          "type": "address"
        },
        {
          "indexed": false,
          "internalType": "uint256",
          "name": "withdrawedAmount",
          "type": "uint256"
        },
        {
          "indexed": false,
          "internalType": "uint256",
          "name": "groupBalance",
          "type": "uint256"
        }
      ],
      "name": "LogWithdraw",
      "type": "event"
    },
    {
      "constant": true,
      "inputs": [
        {
          "internalType": "string",
          "name": "",
          "type": "string"
        }
      ],
      "name": "groups",
      "outputs": [
        {
          "internalType": "string",
          "name": "groupId",
          "type": "string"
        },
        {
          "internalType": "address",
          "name": "creator",
          "type": "address"
        },
        {
          "internalType": "uint256",
          "name": "groupBalance",
          "type": "uint256"
        },
        {
          "internalType": "bool",
          "name": "isOpen",
          "type": "bool"
        },
        {
          "internalType": "uint256",
          "name": "numberOfMember",
          "type": "uint256"
        },
        {
          "internalType": "uint256",
          "name": "requestCount",
          "type": "uint256"
        }
      ],
      "payable": false,
      "stateMutability": "view",
      "type": "function"
    },
    {
      "constant": false,
      "inputs": [
        {
          "internalType": "string",
          "name": "_groupId",
          "type": "string"
        },
        {
          "internalType": "string",
          "name": "nameSurname",
          "type": "string"
        }
      ],
      "name": "createGroup",
      "outputs": [],
      "payable": false,
      "stateMutability": "nonpayable",
      "type": "function"
    },
    {
      "constant": false,
      "inputs": [
        {
          "internalType": "string",
          "name": "_groupId",
          "type": "string"
        }
      ],
      "name": "leaveGroup",
      "outputs": [],
      "payable": false,
      "stateMutability": "nonpayable",
      "type": "function"
    },
    {
      "constant": false,
      "inputs": [
        {
          "internalType": "string",
          "name": "_groupId",
          "type": "string"
        },
        {
          "internalType": "string",
          "name": "_nameSurname",
          "type": "string"
        }
      ],
      "name": "enroll",
      "outputs": [],
      "payable": false,
      "stateMutability": "nonpayable",
      "type": "function"
    },
    {
      "constant": false,
      "inputs": [
        {
          "internalType": "address",
          "name": "_candidateAddress",
          "type": "address"
        },
        {
          "internalType": "string",
          "name": "_groupId",
          "type": "string"
        },
        {
          "internalType": "uint256",
          "name": "_id",
          "type": "uint256"
        }
      ],
      "name": "approveRequest",
      "outputs": [],
      "payable": false,
      "stateMutability": "nonpayable",
      "type": "function"
    },
    {
      "constant": false,
      "inputs": [
        {
          "internalType": "string",
          "name": "_groupId",
          "type": "string"
        }
      ],
      "name": "lending",
      "outputs": [],
      "payable": true,
      "stateMutability": "payable",
      "type": "function"
    },
    {
      "constant": false,
      "inputs": [
        {
          "internalType": "string",
          "name": "_groupId",
          "type": "string"
        }
      ],
      "name": "borrowing",
      "outputs": [],
      "payable": true,
      "stateMutability": "payable",
      "type": "function"
    },
    {
      "constant": false,
      "inputs": [
        {
          "internalType": "string",
          "name": "_groupId",
          "type": "string"
        }
      ],
      "name": "payDebtBack",
      "outputs": [
        {
          "internalType": "uint256",
          "name": "",
          "type": "uint256"
        }
      ],
      "payable": true,
      "stateMutability": "payable",
      "type": "function"
    },
    {
      "constant": false,
      "inputs": [
        {
          "internalType": "string",
          "name": "_groupId",
          "type": "string"
        }
      ],
      "name": "withdraw",
      "outputs": [
        {
          "internalType": "uint256",
          "name": "",
          "type": "uint256"
        }
      ],
      "payable": true,
      "stateMutability": "payable",
      "type": "function"
    },
    {
      "constant": true,
      "inputs": [
        {
          "internalType": "string",
          "name": "_groupId",
          "type": "string"
        }
      ],
      "name": "checkParticipant",
      "outputs": [
        {
          "internalType": "bool",
          "name": "",
          "type": "bool"
        }
      ],
      "payable": false,
      "stateMutability": "view",
      "type": "function"
    },
    {
      "constant": true,
      "inputs": [
        {
          "internalType": "string",
          "name": "_groupId",
          "type": "string"
        }
      ],
      "name": "checkGroupBalance",
      "outputs": [
        {
          "internalType": "uint256",
          "name": "",
          "type": "uint256"
        }
      ],
      "payable": false,
      "stateMutability": "view",
      "type": "function"
    },
    {
      "constant": true,
      "inputs": [
        {
          "internalType": "string",
          "name": "_groupId",
          "type": "string"
        }
      ],
      "name": "checkGroup",
      "outputs": [
        {
          "internalType": "string",
          "name": "",
          "type": "string"
        }
      ],
      "payable": false,
      "stateMutability": "view",
      "type": "function"
    },
    {
      "constant": true,
      "inputs": [
        {
          "internalType": "string",
          "name": "_groupId",
          "type": "string"
        }
      ],
      "name": "getGroup",
      "outputs": [
        {
          "internalType": "string",
          "name": "",
          "type": "string"
        },
        {
          "internalType": "address",
          "name": "",
          "type": "address"
        },
        {
          "internalType": "bool",
          "name": "",
          "type": "bool"
        },
        {
          "internalType": "uint256",
          "name": "",
          "type": "uint256"
        },
        {
          "internalType": "uint256",
          "name": "",
          "type": "uint256"
        }
      ],
      "payable": false,
      "stateMutability": "view",
      "type": "function"
    },
    {
      "constant": true,
      "inputs": [
        {
          "internalType": "string",
          "name": "_groupId",
          "type": "string"
        }
      ],
      "name": "checkMemberDebtStatus",
      "outputs": [
        {
          "internalType": "uint256",
          "name": "",
          "type": "uint256"
        },
        {
          "internalType": "uint256",
          "name": "",
          "type": "uint256"
        }
      ],
      "payable": false,
      "stateMutability": "view",
      "type": "function"
    },
    {
      "constant": true,
      "inputs": [
        {
          "internalType": "string",
          "name": "_groupId",
          "type": "string"
        },
        {
          "internalType": "uint256",
          "name": "_id",
          "type": "uint256"
        }
      ],
      "name": "getRequest",
      "outputs": [
        {
          "internalType": "string",
          "name": "",
          "type": "string"
        },
        {
          "internalType": "address",
          "name": "",
          "type": "address"
        },
        {
          "internalType": "bool",
          "name": "",
          "type": "bool"
        },
        {
          "internalType": "uint256",
          "name": "",
          "type": "uint256"
        }
      ],
      "payable": false,
      "stateMutability": "view",
      "type": "function"
    },
    {
      "constant": true,
      "inputs": [
        {
          "internalType": "string",
          "name": "_groupId",
          "type": "string"
        }
      ],
      "name": "getRequestArrayLength",
      "outputs": [
        {
          "internalType": "uint256",
          "name": "",
          "type": "uint256"
        }
      ],
      "payable": false,
      "stateMutability": "view",
      "type": "function"
    }
  ],
  "bytecode": "0x608060405234801561001057600080fd5b50615ab280620000216000396000f3fe6080604052600436106100f35760003560e01c80636d2224a21161008a578063abef281e11610059578063abef281e14610d51578063b25ed5a314610ede578063c7cd80e714610fa6578063cf05ed4214611061576100f3565b80636d2224a2146109575780636fb591c514610a3a57806375d7571214610b1657806395bec39514610bf2576100f3565b80633db7484b116100c65780633db7484b146104d3578063400b6fdb1461061457806350f67e7f146106e35780636b52230b146107c3576100f3565b806319153dd9146100f85780631e4a97dd146101b35780632ff72fa01461031257806331fb67c214610404575b600080fd5b6101b16004803603602081101561010e57600080fd5b810190808035906020019064010000000081111561012b57600080fd5b82018360208201111561013d57600080fd5b8035906020019184600183028401116401000000008311171561015f57600080fd5b91908080601f016020809104026020016040519081016040528093929190818152602001838380828437600081840152601f19601f8201169050808301925050505050505091929192905050506111f1565b005b3480156101bf57600080fd5b50610310600480360360408110156101d657600080fd5b81019080803590602001906401000000008111156101f357600080fd5b82018360208201111561020557600080fd5b8035906020019184600183028401116401000000008311171561022757600080fd5b91908080601f016020809104026020016040519081016040528093929190818152602001838380828437600081840152601f19601f8201169050808301925050505050505091929192908035906020019064010000000081111561028a57600080fd5b82018360208201111561029c57600080fd5b803590602001918460018302840111640100000000831117156102be57600080fd5b91908080601f016020809104026020016040519081016040528093929190818152602001838380828437600081840152601f19601f8201169050808301925050505050505091929192905050506116a2565b005b34801561031e57600080fd5b506104026004803603606081101561033557600080fd5b81019080803573ffffffffffffffffffffffffffffffffffffffff1690602001909291908035906020019064010000000081111561037257600080fd5b82018360208201111561038457600080fd5b803590602001918460018302840111640100000000831117156103a657600080fd5b91908080601f016020809104026020016040519081016040528093929190818152602001838380828437600081840152601f19601f82011690508083019250505050505050919291929080359060200190929190505050611d3e565b005b6104bd6004803603602081101561041a57600080fd5b810190808035906020019064010000000081111561043757600080fd5b82018360208201111561044957600080fd5b8035906020019184600183028401116401000000008311171561046b57600080fd5b91908080601f016020809104026020016040519081016040528093929190818152602001838380828437600081840152601f19601f820116905080830192505050505050509192919290505050612243565b6040518082815260200191505060405180910390f35b3480156104df57600080fd5b50610599600480360360208110156104f657600080fd5b810190808035906020019064010000000081111561051357600080fd5b82018360208201111561052557600080fd5b8035906020019184600183028401116401000000008311171561054757600080fd5b91908080601f016020809104026020016040519081016040528093929190818152602001838380828437600081840152601f19601f8201169050808301925050505050505091929192905050506129f8565b6040518080602001828103825283818151815260200191508051906020019080838360005b838110156105d95780820151818401526020810190506105be565b50505050905090810190601f1680156106065780820380516001836020036101000a031916815260200191505b509250505060405180910390f35b6106cd6004803603602081101561062a57600080fd5b810190808035906020019064010000000081111561064757600080fd5b82018360208201111561065957600080fd5b8035906020019184600183028401116401000000008311171561067b57600080fd5b91908080601f016020809104026020016040519081016040528093929190818152602001838380828437600081840152601f19601f820116905080830192505050505050509192919290505050612b06565b6040518082815260200191505060405180910390f35b3480156106ef57600080fd5b506107a96004803603602081101561070657600080fd5b810190808035906020019064010000000081111561072357600080fd5b82018360208201111561073557600080fd5b8035906020019184600183028401116401000000008311171561075757600080fd5b91908080601f016020809104026020016040519081016040528093929190818152602001838380828437600081840152601f19601f8201169050808301925050505050505091929192905050506132e8565b604051808215151515815260200191505060405180910390f35b3480156107cf57600080fd5b50610889600480360360208110156107e657600080fd5b810190808035906020019064010000000081111561080357600080fd5b82018360208201111561081557600080fd5b8035906020019184600183028401116401000000008311171561083757600080fd5b91908080601f016020809104026020016040519081016040528093929190818152602001838380828437600081840152601f19601f82011690508083019250505050505050919291929050505061342b565b60405180806020018773ffffffffffffffffffffffffffffffffffffffff1673ffffffffffffffffffffffffffffffffffffffff16815260200186815260200185151515158152602001848152602001838152602001828103825288818151815260200191508051906020019080838360005b838110156109175780820151818401526020810190506108fc565b50505050905090810190601f1680156109445780820380516001836020036101000a031916815260200191505b5097505050505050505060405180910390f35b34801561096357600080fd5b50610a1d6004803603602081101561097a57600080fd5b810190808035906020019064010000000081111561099757600080fd5b8201836020820111156109a957600080fd5b803590602001918460018302840111640100000000831117156109cb57600080fd5b91908080601f016020809104026020016040519081016040528093929190818152602001838380828437600081840152601f19601f820116905080830192505050505050509192919290505050613542565b604051808381526020018281526020019250505060405180910390f35b348015610a4657600080fd5b50610b0060048036036020811015610a5d57600080fd5b8101908080359060200190640100000000811115610a7a57600080fd5b820183602082011115610a8c57600080fd5b80359060200191846001830284011164010000000083111715610aae57600080fd5b91908080601f016020809104026020016040519081016040528093929190818152602001838380828437600081840152601f19601f820116905080830192505050505050509192919290505050613797565b6040518082815260200191505060405180910390f35b348015610b2257600080fd5b50610bdc60048036036020811015610b3957600080fd5b8101908080359060200190640100000000811115610b5657600080fd5b820183602082011115610b6857600080fd5b80359060200191846001830284011164010000000083111715610b8a57600080fd5b91908080601f016020809104026020016040519081016040528093929190818152602001838380828437600081840152601f19601f82011690508083019250505050505050919291929050505061380c565b6040518082815260200191505060405180910390f35b348015610bfe57600080fd5b50610d4f60048036036040811015610c1557600080fd5b8101908080359060200190640100000000811115610c3257600080fd5b820183602082011115610c4457600080fd5b80359060200191846001830284011164010000000083111715610c6657600080fd5b91908080601f016020809104026020016040519081016040528093929190818152602001838380828437600081840152601f19601f82011690508083019250505050505050919291929080359060200190640100000000811115610cc957600080fd5b820183602082011115610cdb57600080fd5b80359060200191846001830284011164010000000083111715610cfd57600080fd5b91908080601f016020809104026020016040519081016040528093929190818152602001838380828437600081840152601f19601f820116905080830192505050505050509192919290505050613977565b005b348015610d5d57600080fd5b50610e1760048036036020811015610d7457600080fd5b8101908080359060200190640100000000811115610d9157600080fd5b820183602082011115610da357600080fd5b80359060200191846001830284011164010000000083111715610dc557600080fd5b91908080601f016020809104026020016040519081016040528093929190818152602001838380828437600081840152601f19601f820116905080830192505050505050509192919290505050614113565b60405180806020018673ffffffffffffffffffffffffffffffffffffffff1673ffffffffffffffffffffffffffffffffffffffff16815260200185151515158152602001848152602001838152602001828103825287818151815260200191508051906020019080838360005b83811015610e9f578082015181840152602081019050610e84565b50505050905090810190601f168015610ecc5780820380516001836020036101000a031916815260200191505b50965050505050505060405180910390f35b348015610eea57600080fd5b50610fa460048036036020811015610f0157600080fd5b8101908080359060200190640100000000811115610f1e57600080fd5b820183602082011115610f3057600080fd5b80359060200191846001830284011164010000000083111715610f5257600080fd5b91908080601f016020809104026020016040519081016040528093929190818152602001838380828437600081840152601f19601f820116905080830192505050505050509192919290505050614417565b005b61105f60048036036020811015610fbc57600080fd5b8101908080359060200190640100000000811115610fd957600080fd5b820183602082011115610feb57600080fd5b8035906020019184600183028401116401000000008311171561100d57600080fd5b91908080601f016020809104026020016040519081016040528093929190818152602001838380828437600081840152601f19601f820116905080830192505050505050509192919290505050614a42565b005b34801561106d57600080fd5b506111316004803603604081101561108457600080fd5b81019080803590602001906401000000008111156110a157600080fd5b8201836020820111156110b357600080fd5b803590602001918460018302840111640100000000831117156110d557600080fd5b91908080601f016020809104026020016040519081016040528093929190818152602001838380828437600081840152601f19601f8201169050808301925050505050505091929192908035906020019092919050505061505c565b60405180806020018573ffffffffffffffffffffffffffffffffffffffff1673ffffffffffffffffffffffffffffffffffffffff16815260200184151515158152602001838152602001828103825286818151815260200191508051906020019080838360005b838110156111b3578082015181840152602081019050611198565b50505050905090810190601f1680156111e05780820380516001836020036101000a031916815260200191505b509550505050505060405180910390f35b8060011515600460003373ffffffffffffffffffffffffffffffffffffffff1673ffffffffffffffffffffffffffffffffffffffff168152602001908152602001600020600301826040518082805190602001908083835b6020831061126c5780518252602082019150602081019050602083039250611249565b6001836020036101000a038019825116818451168082178552505050505050905001915050908152602001604051809103902060009054906101000a900460ff16151514611322576040517f08c379a00000000000000000000000000000000000000000000000000000000081526004018080602001828103825260198152602001807f596f7520617265206e6f7420696e20746869732067726f75700000000000000081525060200191505060405180910390fd5b81600115156003826040518082805190602001908083835b6020831061135d578051825260208201915060208101905060208303925061133a565b6001836020036101000a038019825116818451168082178552505050505050905001915050908152602001604051809103902060030160009054906101000a900460ff16151514611416576040517f08c379a00000000000000000000000000000000000000000000000000000000081526004018080602001828103825260128152602001807f47726f7570206973206e6f74206578697374000000000000000000000000000081525060200191505060405180910390fd5b600034101561148d576040517f08c379a000000000000000000000000000000000000000000000000000000000815260040180806020018281038252601a8152602001807f506c656173652073656e6420612076616c696420616d6f756e7400000000000081525060200191505060405180910390fd5b346003846040518082805190602001908083835b602083106114c457805182526020820191506020810190506020830392506114a1565b6001836020036101000a038019825116818451168082178552505050505050905001915050908152602001604051809103902060070160003373ffffffffffffffffffffffffffffffffffffffff1673ffffffffffffffffffffffffffffffffffffffff16815260200190815260200160002060008282540192505081905550346003846040518082805190602001908083835b6020831061157b5780518252602082019150602081019050602083039250611558565b6001836020036101000a0380198251168184511680821785525050505050509050019150509081526020016040518091039020600201600082825401925050819055507f1cc308ba0845fc9dfb2b7c59303c61b3a4c4b54f2758356f654b4962957ae90a33346003866040518082805190602001908083835b6020831061161757805182526020820191506020810190506020830392506115f4565b6001836020036101000a038019825116818451168082178552505050505050905001915050908152602001604051809103902060020154604051808473ffffffffffffffffffffffffffffffffffffffff1673ffffffffffffffffffffffffffffffffffffffff168152602001838152602001828152602001935050505060405180910390a1505050565b6003826040518082805190602001908083835b602083106116d857805182526020820191506020810190506020830392506116b5565b6001836020036101000a038019825116818451168082178552505050505050905001915050908152602001604051809103902060030160009054906101000a900460ff161561178f576040517f08c379a00000000000000000000000000000000000000000000000000000000081526004018080602001828103825260188152602001807f67726f757020697320616c72656164792063726561746564000000000000000081525060200191505060405180910390fd5b611797615911565b6040518060c001604052808481526020013373ffffffffffffffffffffffffffffffffffffffff168152602001600081526020016001151581526020016001815260200160008152509050806003846040518082805190602001908083835b6020831061181957805182526020820191506020810190506020830392506117f6565b6001836020036101000a0380198251168184511680821785525050505050509050019150509081526020016040518091039020600082015181600001908051906020019061186892919061595f565b5060208201518160010160006101000a81548173ffffffffffffffffffffffffffffffffffffffff021916908373ffffffffffffffffffffffffffffffffffffffff1602179055506040820151816002015560608201518160030160006101000a81548160ff0219169083151502179055506080820151816004015560a082015181600501559050507fe6985da533d59f3fb572c1c30f7f445bae4836c26650d232293de633632aba19836003856040518082805190602001908083835b602083106119495780518252602082019150602081019050602083039250611926565b6001836020036101000a0380198251168184511680821785525050505050509050019150509081526020016040518091039020600401546003866040518082805190602001908083835b602083106119b65780518252602082019150602081019050602083039250611993565b6001836020036101000a038019825116818451168082178552505050505050905001915050908152602001604051809103902060010160009054906101000a900473ffffffffffffffffffffffffffffffffffffffff1660405180806020018481526020018373ffffffffffffffffffffffffffffffffffffffff1673ffffffffffffffffffffffffffffffffffffffff168152602001828103825285818151815260200191508051906020019080838360005b83811015611a85578082015181840152602081019050611a6a565b50505050905090810190601f168015611ab25780820380516001836020036101000a031916815260200191505b5094505050505060405180910390a160016003846040518082805190602001908083835b60208310611af95780518252602082019150602081019050602083039250611ad6565b6001836020036101000a038019825116818451168082178552505050505050905001915050908152602001604051809103902060060160003373ffffffffffffffffffffffffffffffffffffffff1673ffffffffffffffffffffffffffffffffffffffff16815260200190815260200160002060006101000a81548160ff02191690831515021790555060405180606001604052808481526020013373ffffffffffffffffffffffffffffffffffffffff16815260200183815250600460003373ffffffffffffffffffffffffffffffffffffffff1673ffffffffffffffffffffffffffffffffffffffff1681526020019081526020016000206000820151816000019080519060200190611c0f92919061595f565b5060208201518160010160006101000a81548173ffffffffffffffffffffffffffffffffffffffff021916908373ffffffffffffffffffffffffffffffffffffffff1602179055506040820151816002019080519060200190611c7392919061595f565b509050506001600460003373ffffffffffffffffffffffffffffffffffffffff1673ffffffffffffffffffffffffffffffffffffffff168152602001908152602001600020600301846040518082805190602001908083835b60208310611cef5780518252602082019150602081019050602083039250611ccc565b6001836020036101000a038019825116818451168082178552505050505050905001915050908152602001604051809103902060006101000a81548160ff021916908315150217905550505050565b60001515600260008573ffffffffffffffffffffffffffffffffffffffff1673ffffffffffffffffffffffffffffffffffffffff16815260200190815260200160002060030160149054906101000a900460ff16151514611d9e57600080fd5b6000600260008573ffffffffffffffffffffffffffffffffffffffff1673ffffffffffffffffffffffffffffffffffffffff16815260200190815260200160002090508060050160008573ffffffffffffffffffffffffffffffffffffffff1673ffffffffffffffffffffffffffffffffffffffff16815260200190815260200160002060009054906101000a900460ff1615611e3a57600080fd5b600115158160050160003373ffffffffffffffffffffffffffffffffffffffff1673ffffffffffffffffffffffffffffffffffffffff16815260200190815260200160002060009054906101000a905050506001816004016000828254019250508190555060016000846040518082805190602001908083835b60208310611ed75780518252602082019150602081019050602083039250611eb4565b6001836020036101000a03801982511681845116808217855250505050505090500191505090815260200160405180910390208381548110611f1557fe5b9060005260206000209060060201600401600082825401925050819055508060040154606460506003866040518082805190602001908083835b60208310611f725780518252602082019150602081019050602083039250611f4f565b6001836020036101000a0380198251168184511680821785525050505050509050019150509081526020016040518091039020600401540281611fb157fe5b0410156121ce57611fc28484615353565b6001816004016000828254019250508190555060018160030160146101000a81548160ff02191690831515021790555060016000846040518082805190602001908083835b6020831061202a5780518252602082019150602081019050602083039250612007565b6001836020036101000a0380198251168184511680821785525050505050509050019150509081526020016040518091039020838154811061206857fe5b906000526020600020906006020160030160146101000a81548160ff02191690831515021790555060016003846040518082805190602001908083835b602083106120c857805182526020820191506020810190506020830392506120a5565b6001836020036101000a0380198251168184511680821785525050505050509050019150509081526020016040518091039020600501600082825403925050819055506001600460008673ffffffffffffffffffffffffffffffffffffffff1673ffffffffffffffffffffffffffffffffffffffff168152602001908152602001600020600301846040518082805190602001908083835b602083106121835780518252602082019150602081019050602083039250612160565b6001836020036101000a038019825116818451168082178552505050505050905001915050908152602001604051809103902060006101000a81548160ff0219169083151502179055505b7f802794574f626c7f2301ce39c790ee6f6dcb9427a466c9bd3d04902f3f2cf1c6338260040154604051808373ffffffffffffffffffffffffffffffffffffffff1673ffffffffffffffffffffffffffffffffffffffff1681526020018281526020019250505060405180910390a150505050565b60008160011515600460003373ffffffffffffffffffffffffffffffffffffffff1673ffffffffffffffffffffffffffffffffffffffff168152602001908152602001600020600301826040518082805190602001908083835b602083106122c0578051825260208201915060208101905060208303925061229d565b6001836020036101000a038019825116818451168082178552505050505050905001915050908152602001604051809103902060009054906101000a900460ff16151514612376576040517f08c379a00000000000000000000000000000000000000000000000000000000081526004018080602001828103825260198152602001807f596f7520617265206e6f7420696e20746869732067726f75700000000000000081525060200191505060405180910390fd5b82600115156003826040518082805190602001908083835b602083106123b1578051825260208201915060208101905060208303925061238e565b6001836020036101000a038019825116818451168082178552505050505050905001915050908152602001604051809103902060030160009054906101000a900460ff1615151461246a576040517f08c379a00000000000000000000000000000000000000000000000000000000081526004018080602001828103825260128152602001807f47726f7570206973206e6f74206578697374000000000000000000000000000081525060200191505060405180910390fd5b60006003856040518082805190602001908083835b602083106124a2578051825260208201915060208101905060208303925061247f565b6001836020036101000a038019825116818451168082178552505050505050905001915050908152602001604051809103902060080160003373ffffffffffffffffffffffffffffffffffffffff1673ffffffffffffffffffffffffffffffffffffffff1681526020019081526020016000205490506000811461258e576040517f08c379a000000000000000000000000000000000000000000000000000000000815260040180806020018281038252600d8152602001807f796f75206861766520646562740000000000000000000000000000000000000081525060200191505060405180910390fd5b60006003866040518082805190602001908083835b602083106125c657805182526020820191506020810190506020830392506125a3565b6001836020036101000a038019825116818451168082178552505050505050905001915050908152602001604051809103902060070160003373ffffffffffffffffffffffffffffffffffffffff1673ffffffffffffffffffffffffffffffffffffffff16815260200190815260200160002054905060008114156126b3576040517f08c379a000000000000000000000000000000000000000000000000000000000815260040180806020018281038252601c8152602001807f596f7520646f206e6f742068617665206c656e646564206d6f6e65790000000081525060200191505060405180910390fd5b346003876040518082805190602001908083835b602083106126ea57805182526020820191506020810190506020830392506126c7565b6001836020036101000a0380198251168184511680821785525050505050509050019150509081526020016040518091039020600201541015612795576040517f08c379a000000000000000000000000000000000000000000000000000000000815260040180806020018281038252601a8152602001807f5468657265206973206e6f20656e6f7567682062616c616e636500000000000081525060200191505060405180910390fd5b346003876040518082805190602001908083835b602083106127cc57805182526020820191506020810190506020830392506127a9565b6001836020036101000a038019825116818451168082178552505050505050905001915050908152602001604051809103902060070160003373ffffffffffffffffffffffffffffffffffffffff1673ffffffffffffffffffffffffffffffffffffffff16815260200190815260200160002060008282540392505081905550346003876040518082805190602001908083835b602083106128835780518252602082019150602081019050602083039250612860565b6001836020036101000a0380198251168184511680821785525050505050509050019150509081526020016040518091039020600201600082825403925050819055503373ffffffffffffffffffffffffffffffffffffffff166108fc349081150290604051600060405180830381858888f1935050505015801561290c573d6000803e3d6000fd5b507fda9a10d7b992511ddadbfc7ff712c1424ce2058bbcdac8c9876d6f8de590d43f33346003896040518082805190602001908083835b602083106129665780518252602082019150602081019050602083039250612943565b6001836020036101000a038019825116818451168082178552505050505050905001915050908152602001604051809103902060020154604051808473ffffffffffffffffffffffffffffffffffffffff1673ffffffffffffffffffffffffffffffffffffffff168152602001838152602001828152602001935050505060405180910390a180945050505050919050565b60606003826040518082805190602001908083835b60208310612a305780518252602082019150602081019050602083039250612a0d565b6001836020036101000a03801982511681845116808217855250505050505090500191505090815260200160405180910390206000018054600181600116156101000203166002900480601f016020809104026020016040519081016040528092919081815260200182805460018160011615610100020316600290048015612afa5780601f10612acf57610100808354040283529160200191612afa565b820191906000526020600020905b815481529060010190602001808311612add57829003601f168201915b50505050509050919050565b60008160011515600460003373ffffffffffffffffffffffffffffffffffffffff1673ffffffffffffffffffffffffffffffffffffffff168152602001908152602001600020600301826040518082805190602001908083835b60208310612b835780518252602082019150602081019050602083039250612b60565b6001836020036101000a038019825116818451168082178552505050505050905001915050908152602001604051809103902060009054906101000a900460ff16151514612c39576040517f08c379a00000000000000000000000000000000000000000000000000000000081526004018080602001828103825260198152602001807f596f7520617265206e6f7420696e20746869732067726f75700000000000000081525060200191505060405180910390fd5b82600115156003826040518082805190602001908083835b60208310612c745780518252602082019150602081019050602083039250612c51565b6001836020036101000a038019825116818451168082178552505050505050905001915050908152602001604051809103902060030160009054906101000a900460ff16151514612d2d576040517f08c379a00000000000000000000000000000000000000000000000000000000081526004018080602001828103825260128152602001807f47726f7570206973206e6f74206578697374000000000000000000000000000081525060200191505060405180910390fd5b60006003856040518082805190602001908083835b60208310612d655780518252602082019150602081019050602083039250612d42565b6001836020036101000a038019825116818451168082178552505050505050905001915050908152602001604051809103902060080160003373ffffffffffffffffffffffffffffffffffffffff1673ffffffffffffffffffffffffffffffffffffffff1681526020019081526020016000205490506000811415612e52576040517f08c379a00000000000000000000000000000000000000000000000000000000081526004018080602001828103825260148152602001807f796f7520646f206e6f742068617665206465627400000000000000000000000081525060200191505060405180910390fd5b80341161307f57346003866040518082805190602001908083835b60208310612e905780518252602082019150602081019050602083039250612e6d565b6001836020036101000a038019825116818451168082178552505050505050905001915050908152602001604051809103902060020160008282540192505081905550346003866040518082805190602001908083835b60208310612f0a5780518252602082019150602081019050602083039250612ee7565b6001836020036101000a038019825116818451168082178552505050505050905001915050908152602001604051809103902060080160003373ffffffffffffffffffffffffffffffffffffffff1673ffffffffffffffffffffffffffffffffffffffff1681526020019081526020016000206000828254039250508190555034810390507fa03e6a8cb7de48961fb0d71ac15ee76bf8efa0f99d2b2a4843a2795022ba9ce73334836003896040518082805190602001908083835b60208310612fe95780518252602082019150602081019050602083039250612fc6565b6001836020036101000a038019825116818451168082178552505050505050905001915050908152602001604051809103902060020154604051808573ffffffffffffffffffffffffffffffffffffffff1673ffffffffffffffffffffffffffffffffffffffff16815260200184815260200183815260200182815260200194505050505060405180910390a1809350506132e1565b346003866040518082805190602001908083835b602083106130b65780518252602082019150602081019050602083039250613093565b6001836020036101000a03801982511681845116808217855250505050505090500191505090815260200160405180910390206002016000828254019250508190555060006003866040518082805190602001908083835b60208310613131578051825260208201915060208101905060208303925061310e565b6001836020036101000a038019825116818451168082178552505050505050905001915050908152602001604051809103902060080160003373ffffffffffffffffffffffffffffffffffffffff1673ffffffffffffffffffffffffffffffffffffffff16815260200190815260200160002081905550600090503373ffffffffffffffffffffffffffffffffffffffff166108fc8234039081150290604051600060405180830381858888f193505050501580156131f4573d6000803e3d6000fd5b507fa03e6a8cb7de48961fb0d71ac15ee76bf8efa0f99d2b2a4843a2795022ba9ce73334836003896040518082805190602001908083835b6020831061324f578051825260208201915060208101905060208303925061322c565b6001836020036101000a038019825116818451168082178552505050505050905001915050908152602001604051809103902060020154604051808573ffffffffffffffffffffffffffffffffffffffff1673ffffffffffffffffffffffffffffffffffffffff16815260200184815260200183815260200182815260200194505050505060405180910390a1809350505b5050919050565b60006003826040518082805190602001908083835b6020831061332057805182526020820191506020810190506020830392506132fd565b6001836020036101000a038019825116818451168082178552505050505050905001915050908152602001604051809103902060030160009054906101000a900460ff1661336d57600080fd5b600460003373ffffffffffffffffffffffffffffffffffffffff1673ffffffffffffffffffffffffffffffffffffffff168152602001908152602001600020600301826040518082805190602001908083835b602083106133e357805182526020820191506020810190506020830392506133c0565b6001836020036101000a038019825116818451168082178552505050505050905001915050908152602001604051809103902060009054906101000a900460ff169050919050565b600381805160208101820180518482526020830160208501208183528095505050505050600091509050806000018054600181600116156101000203166002900480601f0160208091040260200160405190810160405280929190818152602001828054600181600116156101000203166002900480156134ed5780601f106134c2576101008083540402835291602001916134ed565b820191906000526020600020905b8154815290600101906020018083116134d057829003601f168201915b5050505050908060010160009054906101000a900473ffffffffffffffffffffffffffffffffffffffff16908060020154908060030160009054906101000a900460ff16908060040154908060050154905086565b60008082600115156003826040518082805190602001908083835b60208310613580578051825260208201915060208101905060208303925061355d565b6001836020036101000a038019825116818451168082178552505050505050905001915050908152602001604051809103902060030160009054906101000a900460ff16151514613639576040517f08c379a00000000000000000000000000000000000000000000000000000000081526004018080602001828103825260128152602001807f47726f7570206973206e6f74206578697374000000000000000000000000000081525060200191505060405180910390fd5b6003846040518082805190602001908083835b6020831061366f578051825260208201915060208101905060208303925061364c565b6001836020036101000a038019825116818451168082178552505050505050905001915050908152602001604051809103902060080160003373ffffffffffffffffffffffffffffffffffffffff1673ffffffffffffffffffffffffffffffffffffffff168152602001908152602001600020546003856040518082805190602001908083835b6020831061371957805182526020820191506020810190506020830392506136f6565b6001836020036101000a038019825116818451168082178552505050505050905001915050908152602001604051809103902060070160003373ffffffffffffffffffffffffffffffffffffffff1673ffffffffffffffffffffffffffffffffffffffff168152602001908152602001600020549250925050915091565b600080826040518082805190602001908083835b602083106137ce57805182526020820191506020810190506020830392506137ab565b6001836020036101000a0380198251168184511680821785525050505050509050019150509081526020016040518091039020805490509050919050565b600081600115156003826040518082805190602001908083835b602083106138495780518252602082019150602081019050602083039250613826565b6001836020036101000a038019825116818451168082178552505050505050905001915050908152602001604051809103902060030160009054906101000a900460ff16151514613902576040517f08c379a00000000000000000000000000000000000000000000000000000000081526004018080602001828103825260128152602001807f47726f7570206973206e6f74206578697374000000000000000000000000000081525060200191505060405180910390fd5b6003836040518082805190602001908083835b602083106139385780518252602082019150602081019050602083039250613915565b6001836020036101000a038019825116818451168082178552505050505050905001915050908152602001604051809103902060020154915050919050565b81600115156003826040518082805190602001908083835b602083106139b2578051825260208201915060208101905060208303925061398f565b6001836020036101000a038019825116818451168082178552505050505050905001915050908152602001604051809103902060030160009054906101000a900460ff16151514613a6b576040517f08c379a00000000000000000000000000000000000000000000000000000000081526004018080602001828103825260128152602001807f47726f7570206973206e6f74206578697374000000000000000000000000000081525060200191505060405180910390fd5b60011515600460003373ffffffffffffffffffffffffffffffffffffffff1673ffffffffffffffffffffffffffffffffffffffff168152602001908152602001600020600301846040518082805190602001908083835b60208310613ae55780518252602082019150602081019050602083039250613ac2565b6001836020036101000a038019825116818451168082178552505050505050905001915050908152602001604051809103902060009054906101000a900460ff1615151415613b9c576040517f08c379a000000000000000000000000000000000000000000000000000000000815260040180806020018281038252601d8152602001807f596f752061726520616c726561647920696e20746869732067726f757000000081525060200191505060405180910390fd5b613ba46159df565b6040518060c00160405280858152602001848152602001600081526020013373ffffffffffffffffffffffffffffffffffffffff168152602001600015158152602001600081525090506000846040518082805190602001908083835b60208310613c245780518252602082019150602081019050602083039250613c01565b6001836020036101000a038019825116818451168082178552505050505050905001915050908152602001604051809103902081908060018154018082558091505090600182039060005260206000209060060201600090919290919091506000820151816000019080519060200190613c9f92919061595f565b506020820151816001019080519060200190613cbc92919061595f565b506040820151816002015560608201518160030160006101000a81548173ffffffffffffffffffffffffffffffffffffffff021916908373ffffffffffffffffffffffffffffffffffffffff16021790555060808201518160030160146101000a81548160ff02191690831515021790555060a08201518160040155505050806001856040518082805190602001908083835b60208310613d725780518252602082019150602081019050602083039250613d4f565b6001836020036101000a03801982511681845116808217855250505050505090500191505090815260200160405180910390206000820151816000019080519060200190613dc192919061595f565b506020820151816001019080519060200190613dde92919061595f565b506040820151816002015560608201518160030160006101000a81548173ffffffffffffffffffffffffffffffffffffffff021916908373ffffffffffffffffffffffffffffffffffffffff16021790555060808201518160030160146101000a81548160ff02191690831515021790555060a0820151816004015590505080600260003373ffffffffffffffffffffffffffffffffffffffff1673ffffffffffffffffffffffffffffffffffffffff1681526020019081526020016000206000820151816000019080519060200190613eb992919061595f565b506020820151816001019080519060200190613ed692919061595f565b506040820151816002015560608201518160030160006101000a81548173ffffffffffffffffffffffffffffffffffffffff021916908373ffffffffffffffffffffffffffffffffffffffff16021790555060808201518160030160146101000a81548160ff02191690831515021790555060a0820151816004015590505060016003856040518082805190602001908083835b60208310613f8d5780518252602082019150602081019050602083039250613f6a565b6001836020036101000a0380198251168184511680821785525050505050509050019150509081526020016040518091039020600501600082825401925050819055507fabb03f37ae8c7352058cab765175b6cc2718a473dbfc45776176521ca1e5949c8484336040518080602001806020018473ffffffffffffffffffffffffffffffffffffffff1673ffffffffffffffffffffffffffffffffffffffff168152602001838103835286818151815260200191508051906020019080838360005b8381101561406a57808201518184015260208101905061404f565b50505050905090810190601f1680156140975780820380516001836020036101000a031916815260200191505b50838103825285818151815260200191508051906020019080838360005b838110156140d05780820151818401526020810190506140b5565b50505050905090810190601f1680156140fd5780820380516001836020036101000a031916815260200191505b509550505050505060405180910390a150505050565b60606000806000806003866040518082805190602001908083835b60208310614151578051825260208201915060208101905060208303925061412e565b6001836020036101000a03801982511681845116808217855250505050505090500191505090815260200160405180910390206000016003876040518082805190602001908083835b602083106141bd578051825260208201915060208101905060208303925061419a565b6001836020036101000a038019825116818451168082178552505050505050905001915050908152602001604051809103902060010160009054906101000a900473ffffffffffffffffffffffffffffffffffffffff166003886040518082805190602001908083835b6020831061424a5780518252602082019150602081019050602083039250614227565b6001836020036101000a038019825116818451168082178552505050505050905001915050908152602001604051809103902060030160009054906101000a900460ff166003896040518082805190602001908083835b602083106142c457805182526020820191506020810190506020830392506142a1565b6001836020036101000a03801982511681845116808217855250505050505090500191505090815260200160405180910390206004015460038a6040518082805190602001908083835b60208310614331578051825260208201915060208101905060208303925061430e565b6001836020036101000a038019825116818451168082178552505050505050905001915050908152602001604051809103902060050154848054600181600116156101000203166002900480601f0160208091040260200160405190810160405280929190818152602001828054600181600116156101000203166002900480156143fd5780601f106143d2576101008083540402835291602001916143fd565b820191906000526020600020905b8154815290600101906020018083116143e057829003601f168201915b505050505094509450945094509450945091939590929450565b8060011515600460003373ffffffffffffffffffffffffffffffffffffffff1673ffffffffffffffffffffffffffffffffffffffff168152602001908152602001600020600301826040518082805190602001908083835b60208310614492578051825260208201915060208101905060208303925061446f565b6001836020036101000a038019825116818451168082178552505050505050905001915050908152602001604051809103902060009054906101000a900460ff16151514614548576040517f08c379a00000000000000000000000000000000000000000000000000000000081526004018080602001828103825260198152602001807f596f7520617265206e6f7420696e20746869732067726f75700000000000000081525060200191505060405180910390fd5b81600115156003826040518082805190602001908083835b602083106145835780518252602082019150602081019050602083039250614560565b6001836020036101000a038019825116818451168082178552505050505050905001915050908152602001604051809103902060030160009054906101000a900460ff1615151461463c576040517f08c379a00000000000000000000000000000000000000000000000000000000081526004018080602001828103825260128152602001807f47726f7570206973206e6f74206578697374000000000000000000000000000081525060200191505060405180910390fd5b60006003846040518082805190602001908083835b602083106146745780518252602082019150602081019050602083039250614651565b6001836020036101000a038019825116818451168082178552505050505050905001915050908152602001604051809103902060080160003373ffffffffffffffffffffffffffffffffffffffff1673ffffffffffffffffffffffffffffffffffffffff168152602001908152602001600020541461473e576040517f08c379a000000000000000000000000000000000000000000000000000000000815260040180806020018281038252602b815260200180615a53602b913960400191505060405180910390fd5b6000600460003373ffffffffffffffffffffffffffffffffffffffff1673ffffffffffffffffffffffffffffffffffffffff168152602001908152602001600020600301846040518082805190602001908083835b602083106147b65780518252602082019150602081019050602083039250614793565b6001836020036101000a038019825116818451168082178552505050505050905001915050908152602001604051809103902060006101000a81548160ff02191690831515021790555060006003846040518082805190602001908083835b602083106148385780518252602082019150602081019050602083039250614815565b6001836020036101000a038019825116818451168082178552505050505050905001915050908152602001604051809103902060060160003373ffffffffffffffffffffffffffffffffffffffff1673ffffffffffffffffffffffffffffffffffffffff16815260200190815260200160002060006101000a81548160ff02191690831515021790555060016003846040518082805190602001908083835b602083106148fa57805182526020820191506020810190506020830392506148d7565b6001836020036101000a03801982511681845116808217855250505050505090500191505090815260200160405180910390206004016000828254039250508190555060006003846040518082805190602001908083835b602083106149755780518252602082019150602081019050602083039250614952565b6001836020036101000a038019825116818451168082178552505050505050905001915050908152602001604051809103902060070160003373ffffffffffffffffffffffffffffffffffffffff1673ffffffffffffffffffffffffffffffffffffffff1681526020019081526020016000205490506000811115614a3c573373ffffffffffffffffffffffffffffffffffffffff166108fc829081150290604051600060405180830381858888f19350505050158015614a3a573d6000803e3d6000fd5b505b50505050565b8060011515600460003373ffffffffffffffffffffffffffffffffffffffff1673ffffffffffffffffffffffffffffffffffffffff168152602001908152602001600020600301826040518082805190602001908083835b60208310614abd5780518252602082019150602081019050602083039250614a9a565b6001836020036101000a038019825116818451168082178552505050505050905001915050908152602001604051809103902060009054906101000a900460ff16151514614b73576040517f08c379a00000000000000000000000000000000000000000000000000000000081526004018080602001828103825260198152602001807f596f7520617265206e6f7420696e20746869732067726f75700000000000000081525060200191505060405180910390fd5b81600115156003826040518082805190602001908083835b60208310614bae5780518252602082019150602081019050602083039250614b8b565b6001836020036101000a038019825116818451168082178552505050505050905001915050908152602001604051809103902060030160009054906101000a900460ff16151514614c67576040517f08c379a00000000000000000000000000000000000000000000000000000000081526004018080602001828103825260128152602001807f47726f7570206973206e6f74206578697374000000000000000000000000000081525060200191505060405180910390fd5b346003846040518082805190602001908083835b60208310614c9e5780518252602082019150602081019050602083039250614c7b565b6001836020036101000a0380198251168184511680821785525050505050509050019150509081526020016040518091039020600201541015614d49576040517f08c379a000000000000000000000000000000000000000000000000000000000815260040180806020018281038252601a8152602001807f5468657265206973206e6f20656e6f7567682062616c616e636500000000000081525060200191505060405180910390fd5b346003846040518082805190602001908083835b60208310614d805780518252602082019150602081019050602083039250614d5d565b6001836020036101000a0380198251168184511680821785525050505050509050019150509081526020016040518091039020600201600082825403925050819055503373ffffffffffffffffffffffffffffffffffffffff166108fc349081150290604051600060405180830381858888f19350505050158015614e09573d6000803e3d6000fd5b50346003846040518082805190602001908083835b60208310614e415780518252602082019150602081019050602083039250614e1e565b6001836020036101000a038019825116818451168082178552505050505050905001915050908152602001604051809103902060080160003373ffffffffffffffffffffffffffffffffffffffff1673ffffffffffffffffffffffffffffffffffffffff16815260200190815260200160002060008282540192505081905550346003846040518082805190602001908083835b60208310614ef85780518252602082019150602081019050602083039250614ed5565b6001836020036101000a038019825116818451168082178552505050505050905001915050908152602001604051809103902060070160003373ffffffffffffffffffffffffffffffffffffffff1673ffffffffffffffffffffffffffffffffffffffff168152602001908152602001600020600082825403925050819055507f2e35ef503c2df7525f8147c0e59421bce400064713f992b10d1092456f6c6d6233346003866040518082805190602001908083835b60208310614fd15780518252602082019150602081019050602083039250614fae565b6001836020036101000a038019825116818451168082178552505050505050905001915050908152602001604051809103902060020154604051808473ffffffffffffffffffffffffffffffffffffffff1673ffffffffffffffffffffffffffffffffffffffff168152602001838152602001828152602001935050505060405180910390a1505050565b6060600080600080866040518082805190602001908083835b602083106150985780518252602082019150602081019050602083039250615075565b6001836020036101000a038019825116818451168082178552505050505050905001915050908152602001604051809103902085815481106150d657fe5b90600052602060002090600602016001016000876040518082805190602001908083835b6020831061511d57805182526020820191506020810190506020830392506150fa565b6001836020036101000a0380198251168184511680821785525050505050509050019150509081526020016040518091039020868154811061515b57fe5b906000526020600020906006020160030160009054906101000a900473ffffffffffffffffffffffffffffffffffffffff166000886040518082805190602001908083835b602083106151c357805182526020820191506020810190506020830392506151a0565b6001836020036101000a0380198251168184511680821785525050505050509050019150509081526020016040518091039020878154811061520157fe5b906000526020600020906006020160030160149054906101000a900460ff166000896040518082805190602001908083835b602083106152565780518252602082019150602081019050602083039250615233565b6001836020036101000a0380198251168184511680821785525050505050509050019150509081526020016040518091039020888154811061529457fe5b906000526020600020906006020160040154838054600181600116156101000203166002900480601f01602080910402602001604051908101604052809291908181526020018280546001816001161561010002031660029004801561533b5780601f106153105761010080835404028352916020019161533b565b820191906000526020600020905b81548152906001019060200180831161531e57829003601f168201915b50505050509350935093509350935092959194509250565b61535b6159df565b6001826040518082805190602001908083835b60208310615391578051825260208201915060208101905060208303925061536e565b6001836020036101000a03801982511681845116808217855250505050505090500191505090815260200160405180910390206040518060c0016040529081600082018054600181600116156101000203166002900480601f0160208091040260200160405190810160405280929190818152602001828054600181600116156101000203166002900480156154685780601f1061543d57610100808354040283529160200191615468565b820191906000526020600020905b81548152906001019060200180831161544b57829003601f168201915b50505050508152602001600182018054600181600116156101000203166002900480601f01602080910402602001604051908101604052809291908181526020018280546001816001161561010002031660029004801561550a5780601f106154df5761010080835404028352916020019161550a565b820191906000526020600020905b8154815290600101906020018083116154ed57829003601f168201915b50505050508152602001600282015481526020016003820160009054906101000a900473ffffffffffffffffffffffffffffffffffffffff1673ffffffffffffffffffffffffffffffffffffffff1673ffffffffffffffffffffffffffffffffffffffff1681526020016003820160149054906101000a900460ff1615151515815260200160048201548152505090506001600382600001516040518082805190602001908083835b602083106155d657805182526020820191506020810190506020830392506155b3565b6001836020036101000a038019825116818451168082178552505050505050905001915050908152602001604051809103902060060160008573ffffffffffffffffffffffffffffffffffffffff1673ffffffffffffffffffffffffffffffffffffffff16815260200190815260200160002060006101000a81548160ff02191690831515021790555060016003836040518082805190602001908083835b602083106156985780518252602082019150602081019050602083039250615675565b6001836020036101000a038019825116818451168082178552505050505050905001915050908152602001604051809103902060040160008282540192505081905550604051806060016040528082600001518152602001826060015173ffffffffffffffffffffffffffffffffffffffff168152602001826020015181525060046000836060015173ffffffffffffffffffffffffffffffffffffffff1673ffffffffffffffffffffffffffffffffffffffff168152602001908152602001600020600082015181600001908051906020019061577792919061595f565b5060208201518160010160006101000a81548173ffffffffffffffffffffffffffffffffffffffff021916908373ffffffffffffffffffffffffffffffffffffffff16021790555060408201518160020190805190602001906157db92919061595f565b50905050600160046000836060015173ffffffffffffffffffffffffffffffffffffffff1673ffffffffffffffffffffffffffffffffffffffff16815260200190815260200160002060030182600001516040518082805190602001908083835b6020831061585f578051825260208201915060208101905060208303925061583c565b6001836020036101000a038019825116818451168082178552505050505050905001915050908152602001604051809103902060006101000a81548160ff0219169083151502179055507f81e85c1fc03ee803c33d47b5ad61cc0f4e29de8680a46640ec63bc78b18b892683604051808273ffffffffffffffffffffffffffffffffffffffff1673ffffffffffffffffffffffffffffffffffffffff16815260200191505060405180910390a1505050565b6040518060c0016040528060608152602001600073ffffffffffffffffffffffffffffffffffffffff1681526020016000815260200160001515815260200160008152602001600081525090565b828054600181600116156101000203166002900490600052602060002090601f016020900481019282601f106159a057805160ff19168380011785556159ce565b828001600101855582156159ce579182015b828111156159cd5782518255916020019190600101906159b2565b5b5090506159db9190615a2d565b5090565b6040518060c00160405280606081526020016060815260200160008152602001600073ffffffffffffffffffffffffffffffffffffffff168152602001600015158152602001600081525090565b615a4f91905b80821115615a4b576000816000905550600101615a33565b5090565b9056fe596f752063616e206e6f74206c656176652066726f6d2067726f75702e20596f7520686176652064656274a265627a7a723158209e53346769cfe6572c803352367b6abe6954198b67b51ab8a33ffbbad6b35f5664736f6c634300050c0032",
  "source": "pragma solidity ^0.5.11;\n\n/**************************************************************\n                    MAIN CONTRACT\n***************************************************************/\n\ncontract lendingBorrowing {\n    \n    struct Participant {\n        string groupNo;\n        address memberAddress;\n        string nameSurname;\n        mapping(string => bool) enrolledGroup;\n    }   \n    \n    struct Group {\n        string groupId;\n        address creator;\n        uint groupBalance;\n        bool isOpen;\n        uint numberOfMember;\n        uint requestCount;\n        \n        mapping(address => bool) members;\n        mapping(address => uint) lenders;\n        mapping(address => uint) borrowers;\n    }\n    \n    struct Request {\n        string groupId;\n        string nameSurname;\n        uint requestCount;\n        address candidate;\n        bool complete;\n        uint approvalCount;\n        mapping(address => bool) approvals;\n    }\n\n    mapping(string => Request[]) requestsArray;\n    mapping(string => Request) requests;\n    mapping(address => Request) requestsAddressArray;\n    \n    mapping(string => Group) public groups;\n    mapping(address => Participant) participants;\n    \n    \n    event LogCreatedRequest(string _groupId, string _nameSurname, address _participantAddress);\n    event LogCreatedGroup(string _groupId, uint numberOfMember, address _creator);\n    event LogApprovedRequest(address _approverAddress, uint approvalCount);\n    event LogAddedCandidateToGroup(address _memberAddress);\n    event LogLendingTransaction(address _memberAddress, uint amountLended, uint groupBalance);\n    event LogBorrowingTransaction(address _memberAddress, uint amountBorrowed, uint groupBalance);\n    event LogPayDebtedBack(address _memberAddress, uint amountPayedBack, uint remainDebt, uint groupBalance);\n    event LogWithdraw(address _memberAddress, uint withdrawedAmount, uint groupBalance);\n\n    modifier checkGroupOpen(string memory _groupId) {\n        require(groups[_groupId].isOpen == true, \"Group is not exist\");\n        _;\n    }\n    \n    modifier checkEnrolled(string memory _groupId) {\n        require(participants[msg.sender].enrolledGroup[_groupId] == true, \"You are not in this group\");\n        _;\n    }\n    \n    function createGroup(string memory _groupId, string memory nameSurname)\n    public\n    {\n        // check that is there any group with same name\n        require(!groups[_groupId].isOpen,\"group is already created\");\n        \n        // Create a new group\n        Group memory newGroup = Group({groupId: _groupId, creator: msg.sender, groupBalance: 0, isOpen: true, numberOfMember: 1, requestCount: 0});\n        groups[_groupId] = newGroup;\n        emit LogCreatedGroup(_groupId, groups[_groupId].numberOfMember, groups[_groupId].creator);\n\n        // add msg.sender to group as a member\n        groups[_groupId].members[msg.sender] = true;\n        participants[msg.sender] = Participant(_groupId, msg.sender, nameSurname);\n        participants[msg.sender].enrolledGroup[_groupId] = true;\n    }\n    \n    function leaveGroup(string memory _groupId)\n    public \n    checkEnrolled(_groupId)\n    checkGroupOpen(_groupId)\n    {\n        // check that member has no debt\n        require(groups[_groupId].borrowers[msg.sender] == 0, \"You can not leave from group. You have debt\");\n        \n        participants[msg.sender].enrolledGroup[_groupId] = false;\n        groups[_groupId].members[msg.sender] = false;\n        groups[_groupId].numberOfMember -= 1;\n        \n        // get the amount member lended\n        uint amountLended = groups[_groupId].lenders[msg.sender];\n        \n        // if lended amount is exist, send back to msg.sender\n        if (amountLended > 0) {\n            msg.sender.transfer(amountLended);\n        }\n    }\n    \n    \n    function enroll(string memory _groupId, string memory _nameSurname) \n    public \n    checkGroupOpen(_groupId)\n    {\n        // check is already enrolled to group\n        require(participants[msg.sender].enrolledGroup[_groupId] != true, \"You are already in this group\");\n        \n        // Create Request to enroll\n        Request memory newRequest = Request({\n            groupId: _groupId,\n            nameSurname: _nameSurname,\n            candidate: msg.sender,\n            complete: false,\n            approvalCount: 0,\n            requestCount: 0\n        });\n        requestsArray[_groupId].push(newRequest);\n        requests[_groupId] = newRequest;\n        requestsAddressArray[msg.sender] = newRequest;\n        groups[_groupId].requestCount += 1;\n        \n        emit LogCreatedRequest(_groupId, _nameSurname, msg.sender);\n        \n    }\n    \n    function approveRequest(address _candidateAddress, string memory _groupId, uint _id) \n    public \n    {\n        require(requestsAddressArray[_candidateAddress].complete == false);\n        Request storage request = requestsAddressArray[_candidateAddress];\n        \n        \n        // check that this member did not approve \n        require(!request.approvals[_candidateAddress]);\n        \n        request.approvals[msg.sender] == true;\n        request.approvalCount += 1;\n        requestsArray[_groupId][_id].approvalCount += 1;\n        \n        // if 80% of members approve that candidate can enroll, then add candidate to group\n        if  ((groups[_groupId].numberOfMember * 80) / 100 < request.approvalCount) {\n            addCandidateToGroup(_candidateAddress, _groupId);\n            request.approvalCount += 1;\n            request.complete = true;\n            requestsArray[_groupId][_id].complete = true;\n            groups[_groupId].requestCount -= 1;\n            participants[_candidateAddress].enrolledGroup[_groupId] = true;\n        }\n        \n        emit LogApprovedRequest(msg.sender, request.approvalCount);\n        \n    }\n    \n    function addCandidateToGroup(address _memberAddress, string memory _groupId) \n    private \n    {\n        // adding the participant to group\n        Request memory request = requests[_groupId];\n        groups[request.groupId].members[_memberAddress] = true;\n        groups[_groupId].numberOfMember += 1;\n        \n        participants[request.candidate] = Participant(request.groupId, request.candidate, request.nameSurname);\n        participants[request.candidate].enrolledGroup[request.groupId] = true;\n        \n        emit LogAddedCandidateToGroup(_memberAddress);\n        \n    }\n    \n    function lending(string memory _groupId) \n    public \n    payable\n    checkEnrolled(_groupId) \n    checkGroupOpen(_groupId)\n    {\n        require(msg.value >= 0, \"Please send a valid amount\");\n        \n        groups[_groupId].lenders[msg.sender] += msg.value;\n        groups[_groupId].groupBalance += msg.value;\n        \n        emit LogLendingTransaction(msg.sender, msg.value, groups[_groupId].groupBalance);\n        \n    }\n    \n    \n    function borrowing(string memory _groupId) \n    public \n    payable\n    checkEnrolled(_groupId)\n    checkGroupOpen(_groupId)\n    {\n        // check is there enough amount\n        require(groups[_groupId].groupBalance >= msg.value, \"There is no enough balance\");\n\n        // firstly, substrack group balance  \n        groups[_groupId].groupBalance -= msg.value;\n        \n        // Transfer the value to msg.sender\n        address(msg.sender).transfer(msg.value);\n        \n        // add the member to borrowers\n        groups[_groupId].borrowers[msg.sender] += msg.value;\n        groups[_groupId].lenders[msg.sender] -= msg.value;\n        \n        emit LogBorrowingTransaction(msg.sender, msg.value, groups[_groupId].groupBalance);\n        \n    }\n    \n    function payDebtBack(string memory _groupId)\n    public\n    payable\n    checkEnrolled(_groupId)\n    checkGroupOpen(_groupId)\n    returns(uint)\n    {\n        uint debt = groups[_groupId].borrowers[msg.sender];\n        \n        // check member has debt\n        require(debt != 0, \"you do not have debt\");\n        \n        if (msg.value <= debt) {\n            // for example:  debt = 100,  amount = 50\n            groups[_groupId].groupBalance += msg.value;\n            groups[_groupId].borrowers[msg.sender] -= msg.value;\n\n            debt -= msg.value;\n            \n            emit LogPayDebtedBack(msg.sender, msg.value, debt, groups[_groupId].groupBalance);\n\n            return debt;\n            \n        }else {\n            // for example:  debt = 100,  amount = 150\n        \n            groups[_groupId].groupBalance += msg.value;\n            groups[_groupId].borrowers[msg.sender] = 0;\n            \n            // make debt of this member 0        \n            debt = 0;\n            \n            // lend amount exceed the debt to group\n            msg.sender.transfer(msg.value - debt);\n            \n            emit LogPayDebtedBack(msg.sender, msg.value, debt, groups[_groupId].groupBalance);\n            \n            return debt;\n        }\n        \n    }\n    \n    function withdraw(string memory _groupId)\n    public\n    payable\n    checkEnrolled(_groupId)\n    checkGroupOpen(_groupId)\n    returns(uint)\n    {\n        uint debt = groups[_groupId].borrowers[msg.sender];\n        // check member has debt\n        require(debt == 0, \"you have debt\");\n\n        uint lendedAmount = groups[_groupId].lenders[msg.sender];\n        require(lendedAmount != 0, \"You do not have lended money\");\n        require(groups[_groupId].groupBalance >= msg.value, \"There is no enough balance\");\n        \n        groups[_groupId].lenders[msg.sender] -= msg.value;\n        groups[_groupId].groupBalance -= msg.value;\n        \n        msg.sender.transfer(msg.value);\n        \n        emit LogWithdraw(msg.sender, msg.value, groups[_groupId].groupBalance);\n        \n        return lendedAmount;\n    }\n    \n    \n    function checkParticipant(string memory _groupId)\n    public \n    view \n    returns(bool) \n    {\n        require(groups[_groupId].isOpen);\n        return participants[msg.sender].enrolledGroup[_groupId];\n    }\n    \n    function checkGroupBalance(string memory _groupId)\n    public \n    view \n    checkGroupOpen(_groupId)\n    returns(uint) \n    {\n        return groups[_groupId].groupBalance;\n    }\n\n    function checkGroup(string memory _groupId)\n    public \n    view\n    returns(string memory) \n    {\n        return groups[_groupId].groupId;\n    }\n\n    function getGroup(string memory _groupId) \n    public \n    view \n    returns(string memory, address, bool, uint, uint) {\n        return (groups[_groupId].groupId, groups[_groupId].creator, groups[_groupId].isOpen, groups[_groupId].numberOfMember, groups[_groupId].requestCount);\n    }\n\n    function checkMemberDebtStatus(string memory _groupId)\n    public \n    view \n    checkGroupOpen(_groupId)\n    returns(uint, uint) \n    {\n        return (groups[_groupId].borrowers[msg.sender], groups[_groupId].lenders[msg.sender]);\n    }\n\n    function getRequest(string memory _groupId, uint _id) \n    public \n    view \n    returns(string memory, address, bool, uint) {\n        return (requestsArray[_groupId][_id].nameSurname, requestsArray[_groupId][_id].candidate, requestsArray[_groupId][_id].complete, requestsArray[_groupId][_id].approvalCount);\n    }\n    \n    function getRequestArrayLength(string memory _groupId) \n    public \n    view \n    returns(uint) {\n        return (requestsArray[_groupId].length);\n    }\n    \n}\n",
  "sourcePath": "/Users/murat.celiktepe/Documents/GitHub/ConsensysFinalProject/lendingBorrowing/contracts/lendingBorrowing.sol",
  "compiler": {
    "name": "solc",
    "version": "0.5.12+commit.7709ece9.Emscripten.clang"
  },
  "schemaVersion": "3.0.20",
  "updatedAt": "2020-01-26T10:06:48.546Z",
  "networkType": "ethereum",
  "devdoc": {
    "methods": {}
  },
  "userdoc": {
    "methods": {},
    "notice": "************************************************************ MAIN CONTRACT**************************************************************"
  }
}