{
  "contractName": "lendingBorrowing",
  "abi": [
    {
      "anonymous": false,
      "inputs": [
        {
          "indexed": false,
          "internalType": "address",
          "name": "_memberAddress",
          "type": "address"
        }
      ],
      "name": "LogAddedCandidateToGroup",
      "type": "event"
    },
    {
      "anonymous": false,
      "inputs": [
        {
          "indexed": false,
          "internalType": "address",
          "name": "_approverAddress",
          "type": "address"
        },
        {
          "indexed": false,
          "internalType": "uint256",
          "name": "approvalCount",
          "type": "uint256"
        }
      ],
      "name": "LogApprovedRequest",
      "type": "event"
    },
    {
      "anonymous": false,
      "inputs": [
        {
          "indexed": false,
          "internalType": "address",
          "name": "_memberAddress",
          "type": "address"
        },
        {
          "indexed": false,
          "internalType": "uint256",
          "name": "amountBorrowed",
          "type": "uint256"
        },
        {
          "indexed": false,
          "internalType": "uint256",
          "name": "groupBalance",
          "type": "uint256"
        }
      ],
      "name": "LogBorrowingTransaction",
      "type": "event"
    },
    {
      "anonymous": false,
      "inputs": [
        {
          "indexed": false,
          "internalType": "string",
          "name": "_groupId",
          "type": "string"
        },
        {
          "indexed": false,
          "internalType": "uint256",
          "name": "numberOfMember",
          "type": "uint256"
        },
        {
          "indexed": false,
          "internalType": "address",
          "name": "_creator",
          "type": "address"
        }
      ],
      "name": "LogCreatedGroup",
      "type": "event"
    },
    {
      "anonymous": false,
      "inputs": [
        {
          "indexed": false,
          "internalType": "string",
          "name": "_groupId",
          "type": "string"
        },
        {
          "indexed": false,
          "internalType": "string",
          "name": "_nameSurname",
          "type": "string"
        },
        {
          "indexed": false,
          "internalType": "address",
          "name": "_participantAddress",
          "type": "address"
        }
      ],
      "name": "LogCreatedRequest",
      "type": "event"
    },
    {
      "anonymous": false,
      "inputs": [
        {
          "indexed": false,
          "internalType": "address",
          "name": "_memberAddress",
          "type": "address"
        },
        {
          "indexed": false,
          "internalType": "uint256",
          "name": "amountLended",
          "type": "uint256"
        },
        {
          "indexed": false,
          "internalType": "uint256",
          "name": "groupBalance",
          "type": "uint256"
        }
      ],
      "name": "LogLendingTransaction",
      "type": "event"
    },
    {
      "anonymous": false,
      "inputs": [
        {
          "indexed": false,
          "internalType": "address",
          "name": "_memberAddress",
          "type": "address"
        },
        {
          "indexed": false,
          "internalType": "uint256",
          "name": "amountPayedBack",
          "type": "uint256"
        },
        {
          "indexed": false,
          "internalType": "uint256",
          "name": "remainDebt",
          "type": "uint256"
        },
        {
          "indexed": false,
          "internalType": "uint256",
          "name": "groupBalance",
          "type": "uint256"
        }
      ],
      "name": "LogPayDebtedBack",
      "type": "event"
    },
    {
      "anonymous": false,
      "inputs": [
        {
          "indexed": false,
          "internalType": "address",
          "name": "_memberAddress",
          "type": "address"
        },
        {
          "indexed": false,
          "internalType": "uint256",
          "name": "withdrawedAmount",
          "type": "uint256"
        },
        {
          "indexed": false,
          "internalType": "uint256",
          "name": "groupBalance",
          "type": "uint256"
        }
      ],
      "name": "LogWithdraw",
      "type": "event"
    },
    {
      "constant": true,
      "inputs": [
        {
          "internalType": "uint256",
          "name": "",
          "type": "uint256"
        }
      ],
      "name": "groupList",
      "outputs": [
        {
          "internalType": "string",
          "name": "",
          "type": "string"
        }
      ],
      "payable": false,
      "stateMutability": "view",
      "type": "function"
    },
    {
      "constant": false,
      "inputs": [
        {
          "internalType": "string",
          "name": "_groupId",
          "type": "string"
        },
        {
          "internalType": "string",
          "name": "nameSurname",
          "type": "string"
        }
      ],
      "name": "createGroup",
      "outputs": [],
      "payable": false,
      "stateMutability": "nonpayable",
      "type": "function"
    },
    {
      "constant": false,
      "inputs": [
        {
          "internalType": "string",
          "name": "_groupId",
          "type": "string"
        }
      ],
      "name": "leaveGroup",
      "outputs": [],
      "payable": false,
      "stateMutability": "nonpayable",
      "type": "function"
    },
    {
      "constant": false,
      "inputs": [
        {
          "internalType": "address",
          "name": "_candidateAddress",
          "type": "address"
        }
      ],
      "name": "approveRequest",
      "outputs": [],
      "payable": false,
      "stateMutability": "nonpayable",
      "type": "function"
    },
    {
      "constant": false,
      "inputs": [
        {
          "internalType": "address",
          "name": "_memberAddress",
          "type": "address"
        }
      ],
      "name": "addCandidateToGroup",
      "outputs": [],
      "payable": false,
      "stateMutability": "nonpayable",
      "type": "function"
    },
    {
      "constant": false,
      "inputs": [
        {
          "internalType": "string",
          "name": "_groupId",
          "type": "string"
        }
      ],
      "name": "lending",
      "outputs": [],
      "payable": true,
      "stateMutability": "payable",
      "type": "function"
    },
    {
      "constant": false,
      "inputs": [
        {
          "internalType": "string",
          "name": "_groupId",
          "type": "string"
        }
      ],
      "name": "borrowing",
      "outputs": [],
      "payable": true,
      "stateMutability": "payable",
      "type": "function"
    },
    {
      "constant": false,
      "inputs": [
        {
          "internalType": "string",
          "name": "_groupId",
          "type": "string"
        }
      ],
      "name": "payDebtBack",
      "outputs": [
        {
          "internalType": "uint256",
          "name": "",
          "type": "uint256"
        }
      ],
      "payable": true,
      "stateMutability": "payable",
      "type": "function"
    },
    {
      "constant": false,
      "inputs": [
        {
          "internalType": "string",
          "name": "_groupId",
          "type": "string"
        }
      ],
      "name": "withdraw",
      "outputs": [
        {
          "internalType": "uint256",
          "name": "",
          "type": "uint256"
        }
      ],
      "payable": true,
      "stateMutability": "payable",
      "type": "function"
    },
    {
      "constant": true,
      "inputs": [
        {
          "internalType": "string",
          "name": "_groupId",
          "type": "string"
        }
      ],
      "name": "checkParticipant",
      "outputs": [
        {
          "internalType": "bool",
          "name": "",
          "type": "bool"
        }
      ],
      "payable": false,
      "stateMutability": "view",
      "type": "function"
    },
    {
      "constant": true,
      "inputs": [
        {
          "internalType": "string",
          "name": "_groupId",
          "type": "string"
        }
      ],
      "name": "checkGroupBalance",
      "outputs": [
        {
          "internalType": "uint256",
          "name": "",
          "type": "uint256"
        }
      ],
      "payable": false,
      "stateMutability": "view",
      "type": "function"
    },
    {
      "constant": true,
      "inputs": [
        {
          "internalType": "string",
          "name": "_groupId",
          "type": "string"
        }
      ],
      "name": "checkGroup",
      "outputs": [
        {
          "internalType": "string",
          "name": "",
          "type": "string"
        }
      ],
      "payable": false,
      "stateMutability": "view",
      "type": "function"
    },
    {
      "constant": true,
      "inputs": [
        {
          "internalType": "string",
          "name": "_groupId",
          "type": "string"
        }
      ],
      "name": "getGroup",
      "outputs": [
        {
          "internalType": "string",
          "name": "",
          "type": "string"
        },
        {
          "internalType": "address",
          "name": "",
          "type": "address"
        },
        {
          "internalType": "bool",
          "name": "",
          "type": "bool"
        },
        {
          "internalType": "uint256",
          "name": "",
          "type": "uint256"
        }
      ],
      "payable": false,
      "stateMutability": "view",
      "type": "function"
    },
    {
      "constant": true,
      "inputs": [
        {
          "internalType": "string",
          "name": "_groupId",
          "type": "string"
        }
      ],
      "name": "checkDebt",
      "outputs": [
        {
          "internalType": "uint256",
          "name": "",
          "type": "uint256"
        }
      ],
      "payable": false,
      "stateMutability": "view",
      "type": "function"
    }
  ],
  "bytecode": "0x608060405234801561001057600080fd5b506142e8806100206000396000f3fe6080604052600436106100dd5760003560e01c806350f67e7f1161007f578063abef281e11610059578063abef281e146108ed578063b25ed5a314610a73578063c7cd80e714610b3b578063f182355314610bf6576100dd565b806350f67e7f146106e057806375d75712146107c0578063a279cfe51461089c576100dd565b80631e4a97dd116100bb5780631e4a97dd146102a257806331fb67c2146104015780633db7484b146104d0578063400b6fdb14610611576100dd565b8063061dff9a146100e2578063097c214f1461013357806319153dd9146101e7575b600080fd5b3480156100ee57600080fd5b506101316004803603602081101561010557600080fd5b81019080803573ffffffffffffffffffffffffffffffffffffffff169060200190929190505050610cd2565b005b34801561013f57600080fd5b5061016c6004803603602081101561015657600080fd5b8101908080359060200190929190505050610efd565b6040518080602001828103825283818151815260200191508051906020019080838360005b838110156101ac578082015181840152602081019050610191565b50505050905090810190601f1680156101d95780820380516001836020036101000a031916815260200191505b509250505060405180910390f35b6102a0600480360360208110156101fd57600080fd5b810190808035906020019064010000000081111561021a57600080fd5b82018360208201111561022c57600080fd5b8035906020019184600183028401116401000000008311171561024e57600080fd5b91908080601f016020809104026020016040519081016040528093929190818152602001838380828437600081840152601f19601f820116905080830192505050505050509192919290505050610fb6565b005b3480156102ae57600080fd5b506103ff600480360360408110156102c557600080fd5b81019080803590602001906401000000008111156102e257600080fd5b8201836020820111156102f457600080fd5b8035906020019184600183028401116401000000008311171561031657600080fd5b91908080601f016020809104026020016040519081016040528093929190818152602001838380828437600081840152601f19601f8201169050808301925050505050505091929192908035906020019064010000000081111561037957600080fd5b82018360208201111561038b57600080fd5b803590602001918460018302840111640100000000831117156103ad57600080fd5b91908080601f016020809104026020016040519081016040528093929190818152602001838380828437600081840152601f19601f82011690508083019250505050505050919291929050505061145e565b005b6104ba6004803603602081101561041757600080fd5b810190808035906020019064010000000081111561043457600080fd5b82018360208201111561044657600080fd5b8035906020019184600183028401116401000000008311171561046857600080fd5b91908080601f016020809104026020016040519081016040528093929190818152602001838380828437600081840152601f19601f820116905080830192505050505050509192919290505050611b27565b6040518082815260200191505060405180910390f35b3480156104dc57600080fd5b50610596600480360360208110156104f357600080fd5b810190808035906020019064010000000081111561051057600080fd5b82018360208201111561052257600080fd5b8035906020019184600183028401116401000000008311171561054457600080fd5b91908080601f016020809104026020016040519081016040528093929190818152602001838380828437600081840152601f19601f82011690508083019250505050505050919291929050505061208b565b6040518080602001828103825283818151815260200191508051906020019080838360005b838110156105d65780820151818401526020810190506105bb565b50505050905090810190601f1680156106035780820380516001836020036101000a031916815260200191505b509250505060405180910390f35b6106ca6004803603602081101561062757600080fd5b810190808035906020019064010000000081111561064457600080fd5b82018360208201111561065657600080fd5b8035906020019184600183028401116401000000008311171561067857600080fd5b91908080601f016020809104026020016040519081016040528093929190818152602001838380828437600081840152601f19601f820116905080830192505050505050509192919290505050612199565b6040518082815260200191505060405180910390f35b3480156106ec57600080fd5b506107a66004803603602081101561070357600080fd5b810190808035906020019064010000000081111561072057600080fd5b82018360208201111561073257600080fd5b8035906020019184600183028401116401000000008311171561075457600080fd5b91908080601f016020809104026020016040519081016040528093929190818152602001838380828437600081840152601f19601f820116905080830192505050505050509192919290505050612822565b604051808215151515815260200191505060405180910390f35b3480156107cc57600080fd5b50610886600480360360208110156107e357600080fd5b810190808035906020019064010000000081111561080057600080fd5b82018360208201111561081257600080fd5b8035906020019184600183028401116401000000008311171561083457600080fd5b91908080601f016020809104026020016040519081016040528093929190818152602001838380828437600081840152601f19601f820116905080830192505050505050509192919290505050612965565b6040518082815260200191505060405180910390f35b3480156108a857600080fd5b506108eb600480360360208110156108bf57600080fd5b81019080803573ffffffffffffffffffffffffffffffffffffffff169060200190929190505050612ad0565b005b3480156108f957600080fd5b506109b36004803603602081101561091057600080fd5b810190808035906020019064010000000081111561092d57600080fd5b82018360208201111561093f57600080fd5b8035906020019184600183028401116401000000008311171561096157600080fd5b91908080601f016020809104026020016040519081016040528093929190818152602001838380828437600081840152601f19601f820116905080830192505050505050509192919290505050612fdc565b60405180806020018573ffffffffffffffffffffffffffffffffffffffff1673ffffffffffffffffffffffffffffffffffffffff16815260200184151515158152602001838152602001828103825286818151815260200191508051906020019080838360005b83811015610a35578082015181840152602081019050610a1a565b50505050905090810190601f168015610a625780820380516001836020036101000a031916815260200191505b509550505050505060405180910390f35b348015610a7f57600080fd5b50610b3960048036036020811015610a9657600080fd5b8101908080359060200190640100000000811115610ab357600080fd5b820183602082011115610ac557600080fd5b80359060200191846001830284011164010000000083111715610ae757600080fd5b91908080601f016020809104026020016040519081016040528093929190818152602001838380828437600081840152601f19601f82011690508083019250505050505050919291929050505061326e565b005b610bf460048036036020811015610b5157600080fd5b8101908080359060200190640100000000811115610b6e57600080fd5b820183602082011115610b8057600080fd5b80359060200191846001830284011164010000000083111715610ba257600080fd5b91908080601f016020809104026020016040519081016040528093929190818152602001838380828437600081840152601f19601f820116905080830192505050505050509192919290505050613898565b005b348015610c0257600080fd5b50610cbc60048036036020811015610c1957600080fd5b8101908080359060200190640100000000811115610c3657600080fd5b820183602082011115610c4857600080fd5b80359060200191846001830284011164010000000083111715610c6a57600080fd5b91908080601f016020809104026020016040519081016040528093929190818152602001838380828437600081840152601f19601f820116905080830192505050505050509192919290505050613dfb565b6040518082815260200191505060405180910390f35b60008060008373ffffffffffffffffffffffffffffffffffffffff1673ffffffffffffffffffffffffffffffffffffffff16815260200190815260200160002090508060040160008373ffffffffffffffffffffffffffffffffffffffff1673ffffffffffffffffffffffffffffffffffffffff16815260200190815260200160002060009054906101000a900460ff1615610d6d57600080fd5b600115158160040160003373ffffffffffffffffffffffffffffffffffffffff1673ffffffffffffffffffffffffffffffffffffffff16815260200190815260200160002060009054906101000a9050505080600301600081548092919060010191905055508060030154606460506001846000016040518082805460018160011615610100020316600290048015610e3d5780601f10610e1b576101008083540402835291820191610e3d565b820191906000526020600020905b815481529060010190602001808311610e29575b50509150509081526020016040518091039020600401540281610e5c57fe5b041015610e8a57610e6c82612ad0565b60018160020160146101000a81548160ff0219169083151502179055505b7f802794574f626c7f2301ce39c790ee6f6dcb9427a466c9bd3d04902f3f2cf1c6338260030154604051808373ffffffffffffffffffffffffffffffffffffffff1673ffffffffffffffffffffffffffffffffffffffff1681526020018281526020019250505060405180910390a15050565b60038181548110610f0a57fe5b906000526020600020016000915090508054600181600116156101000203166002900480601f016020809104026020016040519081016040528092919081815260200182805460018160011615610100020316600290048015610fae5780601f10610f8357610100808354040283529160200191610fae565b820191906000526020600020905b815481529060010190602001808311610f9157829003601f168201915b505050505081565b8060011515600260003373ffffffffffffffffffffffffffffffffffffffff1673ffffffffffffffffffffffffffffffffffffffff168152602001908152602001600020600301826040518082805190602001908083835b60208310611031578051825260208201915060208101905060208303925061100e565b6001836020036101000a038019825116818451168082178552505050505050905001915050908152602001604051809103902060009054906101000a900460ff161515146110e7576040517f08c379a00000000000000000000000000000000000000000000000000000000081526004018080602001828103825260198152602001807f596f7520617265206e6f7420696e20746869732067726f75700000000000000081525060200191505060405180910390fd5b81600115156001826040518082805190602001908083835b6020831061112257805182526020820191506020810190506020830392506110ff565b6001836020036101000a038019825116818451168082178552505050505050905001915050908152602001604051809103902060030160009054906101000a900460ff161515146111db576040517f08c379a00000000000000000000000000000000000000000000000000000000081526004018080602001828103825260128152602001807f47726f7570206973206e6f74206578697374000000000000000000000000000081525060200191505060405180910390fd5b6000341015611252576040517f08c379a000000000000000000000000000000000000000000000000000000000815260040180806020018281038252601a8152602001807f506c656173652073656e6420612076616c696420616d6f756e7400000000000081525060200191505060405180910390fd5b346001846040518082805190602001908083835b602083106112895780518252602082019150602081019050602083039250611266565b6001836020036101000a038019825116818451168082178552505050505050905001915050908152602001604051809103902060060160003373ffffffffffffffffffffffffffffffffffffffff1673ffffffffffffffffffffffffffffffffffffffff16815260200190815260200160002081905550346001846040518082805190602001908083835b602083106113375780518252602082019150602081019050602083039250611314565b6001836020036101000a0380198251168184511680821785525050505050509050019150509081526020016040518091039020600201600082825401925050819055507f1cc308ba0845fc9dfb2b7c59303c61b3a4c4b54f2758356f654b4962957ae90a33346001866040518082805190602001908083835b602083106113d357805182526020820191506020810190506020830392506113b0565b6001836020036101000a038019825116818451168082178552505050505050905001915050908152602001604051809103902060020154604051808473ffffffffffffffffffffffffffffffffffffffff1673ffffffffffffffffffffffffffffffffffffffff168152602001838152602001828152602001935050505060405180910390a1505050565b6001826040518082805190602001908083835b602083106114945780518252602082019150602081019050602083039250611471565b6001836020036101000a038019825116818451168082178552505050505050905001915050908152602001604051809103902060030160009054906101000a900460ff161561154b576040517f08c379a00000000000000000000000000000000000000000000000000000000081526004018080602001828103825260188152602001807f67726f757020697320616c72656164792063726561746564000000000000000081525060200191505060405180910390fd5b6115536140d5565b6040518060a001604052808481526020013373ffffffffffffffffffffffffffffffffffffffff1681526020016000815260200160011515815260200160018152509050806001846040518082805190602001908083835b602083106115ce57805182526020820191506020810190506020830392506115ab565b6001836020036101000a0380198251168184511680821785525050505050509050019150509081526020016040518091039020600082015181600001908051906020019061161d92919061411c565b5060208201518160010160006101000a81548173ffffffffffffffffffffffffffffffffffffffff021916908373ffffffffffffffffffffffffffffffffffffffff1602179055506040820151816002015560608201518160030160006101000a81548160ff021916908315150217905550608082015181600401559050507fe6985da533d59f3fb572c1c30f7f445bae4836c26650d232293de633632aba19836001856040518082805190602001908083835b602083106116f457805182526020820191506020810190506020830392506116d1565b6001836020036101000a0380198251168184511680821785525050505050509050019150509081526020016040518091039020600401546001866040518082805190602001908083835b60208310611761578051825260208201915060208101905060208303925061173e565b6001836020036101000a038019825116818451168082178552505050505050905001915050908152602001604051809103902060010160009054906101000a900473ffffffffffffffffffffffffffffffffffffffff1660405180806020018481526020018373ffffffffffffffffffffffffffffffffffffffff1673ffffffffffffffffffffffffffffffffffffffff168152602001828103825285818151815260200191508051906020019080838360005b83811015611830578082015181840152602081019050611815565b50505050905090810190601f16801561185d5780820380516001836020036101000a031916815260200191505b5094505050505060405180910390a160038390806001815401808255809150509060018203906000526020600020016000909192909190915090805190602001906118a992919061419c565b5050600180846040518082805190602001908083835b602083106118e257805182526020820191506020810190506020830392506118bf565b6001836020036101000a038019825116818451168082178552505050505050905001915050908152602001604051809103902060050160003373ffffffffffffffffffffffffffffffffffffffff1673ffffffffffffffffffffffffffffffffffffffff16815260200190815260200160002060006101000a81548160ff02191690831515021790555060405180606001604052808481526020013373ffffffffffffffffffffffffffffffffffffffff16815260200183815250600260003373ffffffffffffffffffffffffffffffffffffffff1673ffffffffffffffffffffffffffffffffffffffff16815260200190815260200160002060008201518160000190805190602001906119f892919061411c565b5060208201518160010160006101000a81548173ffffffffffffffffffffffffffffffffffffffff021916908373ffffffffffffffffffffffffffffffffffffffff1602179055506040820151816002019080519060200190611a5c92919061411c565b509050506001600260003373ffffffffffffffffffffffffffffffffffffffff1673ffffffffffffffffffffffffffffffffffffffff168152602001908152602001600020600301846040518082805190602001908083835b60208310611ad85780518252602082019150602081019050602083039250611ab5565b6001836020036101000a038019825116818451168082178552505050505050905001915050908152602001604051809103902060006101000a81548160ff021916908315150217905550505050565b60008160011515600260003373ffffffffffffffffffffffffffffffffffffffff1673ffffffffffffffffffffffffffffffffffffffff168152602001908152602001600020600301826040518082805190602001908083835b60208310611ba45780518252602082019150602081019050602083039250611b81565b6001836020036101000a038019825116818451168082178552505050505050905001915050908152602001604051809103902060009054906101000a900460ff16151514611c5a576040517f08c379a00000000000000000000000000000000000000000000000000000000081526004018080602001828103825260198152602001807f596f7520617265206e6f7420696e20746869732067726f75700000000000000081525060200191505060405180910390fd5b82600115156001826040518082805190602001908083835b60208310611c955780518252602082019150602081019050602083039250611c72565b6001836020036101000a038019825116818451168082178552505050505050905001915050908152602001604051809103902060030160009054906101000a900460ff16151514611d4e576040517f08c379a00000000000000000000000000000000000000000000000000000000081526004018080602001828103825260128152602001807f47726f7570206973206e6f74206578697374000000000000000000000000000081525060200191505060405180910390fd5b60006001856040518082805190602001908083835b60208310611d865780518252602082019150602081019050602083039250611d63565b6001836020036101000a038019825116818451168082178552505050505050905001915050908152602001604051809103902060060160003373ffffffffffffffffffffffffffffffffffffffff1673ffffffffffffffffffffffffffffffffffffffff1681526020019081526020016000205490506000811415611e73576040517f08c379a000000000000000000000000000000000000000000000000000000000815260040180806020018281038252601c8152602001807f596f7520646f206e6f742068617665206c656e646564206d6f6e65790000000081525060200191505060405180910390fd5b346001866040518082805190602001908083835b60208310611eaa5780518252602082019150602081019050602083039250611e87565b6001836020036101000a0380198251168184511680821785525050505050509050019150509081526020016040518091039020600201541015611f55576040517f08c379a000000000000000000000000000000000000000000000000000000000815260040180806020018281038252601a8152602001807f5468657265206973206e6f20656e6f7567682062616c616e636500000000000081525060200191505060405180910390fd5b34810390503373ffffffffffffffffffffffffffffffffffffffff166108fc349081150290604051600060405180830381858888f19350505050158015611fa0573d6000803e3d6000fd5b507fda9a10d7b992511ddadbfc7ff712c1424ce2058bbcdac8c9876d6f8de590d43f33346001886040518082805190602001908083835b60208310611ffa5780518252602082019150602081019050602083039250611fd7565b6001836020036101000a038019825116818451168082178552505050505050905001915050908152602001604051809103902060020154604051808473ffffffffffffffffffffffffffffffffffffffff1673ffffffffffffffffffffffffffffffffffffffff168152602001838152602001828152602001935050505060405180910390a1809350505050919050565b60606001826040518082805190602001908083835b602083106120c357805182526020820191506020810190506020830392506120a0565b6001836020036101000a03801982511681845116808217855250505050505090500191505090815260200160405180910390206000018054600181600116156101000203166002900480601f01602080910402602001604051908101604052809291908181526020018280546001816001161561010002031660029004801561218d5780601f106121625761010080835404028352916020019161218d565b820191906000526020600020905b81548152906001019060200180831161217057829003601f168201915b50505050509050919050565b60008160011515600260003373ffffffffffffffffffffffffffffffffffffffff1673ffffffffffffffffffffffffffffffffffffffff168152602001908152602001600020600301826040518082805190602001908083835b6020831061221657805182526020820191506020810190506020830392506121f3565b6001836020036101000a038019825116818451168082178552505050505050905001915050908152602001604051809103902060009054906101000a900460ff161515146122cc576040517f08c379a00000000000000000000000000000000000000000000000000000000081526004018080602001828103825260198152602001807f596f7520617265206e6f7420696e20746869732067726f75700000000000000081525060200191505060405180910390fd5b82600115156001826040518082805190602001908083835b6020831061230757805182526020820191506020810190506020830392506122e4565b6001836020036101000a038019825116818451168082178552505050505050905001915050908152602001604051809103902060030160009054906101000a900460ff161515146123c0576040517f08c379a00000000000000000000000000000000000000000000000000000000081526004018080602001828103825260128152602001807f47726f7570206973206e6f74206578697374000000000000000000000000000081525060200191505060405180910390fd5b60006001856040518082805190602001908083835b602083106123f857805182526020820191506020810190506020830392506123d5565b6001836020036101000a038019825116818451168082178552505050505050905001915050908152602001604051809103902060070160003373ffffffffffffffffffffffffffffffffffffffff1673ffffffffffffffffffffffffffffffffffffffff16815260200190815260200160002054905060008114156124e5576040517f08c379a00000000000000000000000000000000000000000000000000000000081526004018080602001828103825260148152602001807f796f7520646f206e6f742068617665206465627400000000000000000000000081525060200191505060405180910390fd5b348111156124f257600080fd5b80341161266857346001866040518082805190602001908083835b60208310612530578051825260208201915060208101905060208303925061250d565b6001836020036101000a03801982511681845116808217855250505050505090500191505090815260200160405180910390206002016000828254019250508190555034810390507fa03e6a8cb7de48961fb0d71ac15ee76bf8efa0f99d2b2a4843a2795022ba9ce73334836001896040518082805190602001908083835b602083106125d257805182526020820191506020810190506020830392506125af565b6001836020036101000a038019825116818451168082178552505050505050905001915050908152602001604051809103902060020154604051808573ffffffffffffffffffffffffffffffffffffffff1673ffffffffffffffffffffffffffffffffffffffff16815260200184815260200183815260200182815260200194505050505060405180910390a18093505061281b565b346001866040518082805190602001908083835b6020831061269f578051825260208201915060208101905060208303925061267c565b6001836020036101000a038019825116818451168082178552505050505050905001915050908152602001604051809103902060020160008282540192505081905550600090503373ffffffffffffffffffffffffffffffffffffffff166108fc8234039081150290604051600060405180830381858888f1935050505015801561272e573d6000803e3d6000fd5b507fa03e6a8cb7de48961fb0d71ac15ee76bf8efa0f99d2b2a4843a2795022ba9ce73334836001896040518082805190602001908083835b602083106127895780518252602082019150602081019050602083039250612766565b6001836020036101000a038019825116818451168082178552505050505050905001915050908152602001604051809103902060020154604051808573ffffffffffffffffffffffffffffffffffffffff1673ffffffffffffffffffffffffffffffffffffffff16815260200184815260200183815260200182815260200194505050505060405180910390a1809350505b5050919050565b60006001826040518082805190602001908083835b6020831061285a5780518252602082019150602081019050602083039250612837565b6001836020036101000a038019825116818451168082178552505050505050905001915050908152602001604051809103902060030160009054906101000a900460ff166128a757600080fd5b600260003373ffffffffffffffffffffffffffffffffffffffff1673ffffffffffffffffffffffffffffffffffffffff168152602001908152602001600020600301826040518082805190602001908083835b6020831061291d57805182526020820191506020810190506020830392506128fa565b6001836020036101000a038019825116818451168082178552505050505050905001915050908152602001604051809103902060009054906101000a900460ff169050919050565b600081600115156001826040518082805190602001908083835b602083106129a2578051825260208201915060208101905060208303925061297f565b6001836020036101000a038019825116818451168082178552505050505050905001915050908152602001604051809103902060030160009054906101000a900460ff16151514612a5b576040517f08c379a00000000000000000000000000000000000000000000000000000000081526004018080602001828103825260128152602001807f47726f7570206973206e6f74206578697374000000000000000000000000000081525060200191505060405180910390fd5b6001836040518082805190602001908083835b60208310612a915780518252602082019150602081019050602083039250612a6e565b6001836020036101000a038019825116818451168082178552505050505050905001915050908152602001604051809103902060020154915050919050565b612ad861421c565b6000808373ffffffffffffffffffffffffffffffffffffffff1673ffffffffffffffffffffffffffffffffffffffff1681526020019081526020016000206040518060a0016040529081600082018054600181600116156101000203166002900480601f016020809104026020016040519081016040528092919081815260200182805460018160011615610100020316600290048015612bba5780601f10612b8f57610100808354040283529160200191612bba565b820191906000526020600020905b815481529060010190602001808311612b9d57829003601f168201915b50505050508152602001600182018054600181600116156101000203166002900480601f016020809104026020016040519081016040528092919081815260200182805460018160011615610100020316600290048015612c5c5780601f10612c3157610100808354040283529160200191612c5c565b820191906000526020600020905b815481529060010190602001808311612c3f57829003601f168201915b505050505081526020016002820160009054906101000a900473ffffffffffffffffffffffffffffffffffffffff1673ffffffffffffffffffffffffffffffffffffffff1673ffffffffffffffffffffffffffffffffffffffff1681526020016002820160149054906101000a900460ff16151515158152602001600382015481525050905060018082600001516040518082805190602001908083835b60208310612d1d5780518252602082019150602081019050602083039250612cfa565b6001836020036101000a038019825116818451168082178552505050505050905001915050908152602001604051809103902060050160008473ffffffffffffffffffffffffffffffffffffffff1673ffffffffffffffffffffffffffffffffffffffff16815260200190815260200160002060006101000a81548160ff021916908315150217905550604051806060016040528082600001518152602001826040015173ffffffffffffffffffffffffffffffffffffffff168152602001826020015181525060026000836040015173ffffffffffffffffffffffffffffffffffffffff1673ffffffffffffffffffffffffffffffffffffffff1681526020019081526020016000206000820151816000019080519060200190612e4392919061411c565b5060208201518160010160006101000a81548173ffffffffffffffffffffffffffffffffffffffff021916908373ffffffffffffffffffffffffffffffffffffffff1602179055506040820151816002019080519060200190612ea792919061411c565b50905050600160026000836040015173ffffffffffffffffffffffffffffffffffffffff1673ffffffffffffffffffffffffffffffffffffffff16815260200190815260200160002060030182600001516040518082805190602001908083835b60208310612f2b5780518252602082019150602081019050602083039250612f08565b6001836020036101000a038019825116818451168082178552505050505050905001915050908152602001604051809103902060006101000a81548160ff0219169083151502179055507f81e85c1fc03ee803c33d47b5ad61cc0f4e29de8680a46640ec63bc78b18b892682604051808273ffffffffffffffffffffffffffffffffffffffff1673ffffffffffffffffffffffffffffffffffffffff16815260200191505060405180910390a15050565b606060008060006001856040518082805190602001908083835b602083106130195780518252602082019150602081019050602083039250612ff6565b6001836020036101000a03801982511681845116808217855250505050505090500191505090815260200160405180910390206000016001866040518082805190602001908083835b602083106130855780518252602082019150602081019050602083039250613062565b6001836020036101000a038019825116818451168082178552505050505050905001915050908152602001604051809103902060010160009054906101000a900473ffffffffffffffffffffffffffffffffffffffff166001876040518082805190602001908083835b6020831061311257805182526020820191506020810190506020830392506130ef565b6001836020036101000a038019825116818451168082178552505050505050905001915050908152602001604051809103902060030160009054906101000a900460ff166001886040518082805190602001908083835b6020831061318c5780518252602082019150602081019050602083039250613169565b6001836020036101000a038019825116818451168082178552505050505050905001915050908152602001604051809103902060040154838054600181600116156101000203166002900480601f0160208091040260200160405190810160405280929190818152602001828054600181600116156101000203166002900480156132585780601f1061322d57610100808354040283529160200191613258565b820191906000526020600020905b81548152906001019060200180831161323b57829003601f168201915b5050505050935093509350935093509193509193565b8060011515600260003373ffffffffffffffffffffffffffffffffffffffff1673ffffffffffffffffffffffffffffffffffffffff168152602001908152602001600020600301826040518082805190602001908083835b602083106132e957805182526020820191506020810190506020830392506132c6565b6001836020036101000a038019825116818451168082178552505050505050905001915050908152602001604051809103902060009054906101000a900460ff1615151461339f576040517f08c379a00000000000000000000000000000000000000000000000000000000081526004018080602001828103825260198152602001807f596f7520617265206e6f7420696e20746869732067726f75700000000000000081525060200191505060405180910390fd5b81600115156001826040518082805190602001908083835b602083106133da57805182526020820191506020810190506020830392506133b7565b6001836020036101000a038019825116818451168082178552505050505050905001915050908152602001604051809103902060030160009054906101000a900460ff16151514613493576040517f08c379a00000000000000000000000000000000000000000000000000000000081526004018080602001828103825260128152602001807f47726f7570206973206e6f74206578697374000000000000000000000000000081525060200191505060405180910390fd5b60006001846040518082805190602001908083835b602083106134cb57805182526020820191506020810190506020830392506134a8565b6001836020036101000a038019825116818451168082178552505050505050905001915050908152602001604051809103902060070160003373ffffffffffffffffffffffffffffffffffffffff1673ffffffffffffffffffffffffffffffffffffffff1681526020019081526020016000205414613595576040517f08c379a000000000000000000000000000000000000000000000000000000000815260040180806020018281038252602b815260200180614289602b913960400191505060405180910390fd5b6000600260003373ffffffffffffffffffffffffffffffffffffffff1673ffffffffffffffffffffffffffffffffffffffff168152602001908152602001600020600301846040518082805190602001908083835b6020831061360d57805182526020820191506020810190506020830392506135ea565b6001836020036101000a038019825116818451168082178552505050505050905001915050908152602001604051809103902060006101000a81548160ff02191690831515021790555060006001846040518082805190602001908083835b6020831061368f578051825260208201915060208101905060208303925061366c565b6001836020036101000a038019825116818451168082178552505050505050905001915050908152602001604051809103902060050160003373ffffffffffffffffffffffffffffffffffffffff1673ffffffffffffffffffffffffffffffffffffffff16815260200190815260200160002060006101000a81548160ff021916908315150217905550600180846040518082805190602001908083835b60208310613750578051825260208201915060208101905060208303925061372d565b6001836020036101000a03801982511681845116808217855250505050505090500191505090815260200160405180910390206004016000828254039250508190555060006001846040518082805190602001908083835b602083106137cb57805182526020820191506020810190506020830392506137a8565b6001836020036101000a038019825116818451168082178552505050505050905001915050908152602001604051809103902060060160003373ffffffffffffffffffffffffffffffffffffffff1673ffffffffffffffffffffffffffffffffffffffff1681526020019081526020016000205490506000811115613892573373ffffffffffffffffffffffffffffffffffffffff166108fc829081150290604051600060405180830381858888f19350505050158015613890573d6000803e3d6000fd5b505b50505050565b8060011515600260003373ffffffffffffffffffffffffffffffffffffffff1673ffffffffffffffffffffffffffffffffffffffff168152602001908152602001600020600301826040518082805190602001908083835b6020831061391357805182526020820191506020810190506020830392506138f0565b6001836020036101000a038019825116818451168082178552505050505050905001915050908152602001604051809103902060009054906101000a900460ff161515146139c9576040517f08c379a00000000000000000000000000000000000000000000000000000000081526004018080602001828103825260198152602001807f596f7520617265206e6f7420696e20746869732067726f75700000000000000081525060200191505060405180910390fd5b81600115156001826040518082805190602001908083835b60208310613a0457805182526020820191506020810190506020830392506139e1565b6001836020036101000a038019825116818451168082178552505050505050905001915050908152602001604051809103902060030160009054906101000a900460ff16151514613abd576040517f08c379a00000000000000000000000000000000000000000000000000000000081526004018080602001828103825260128152602001807f47726f7570206973206e6f74206578697374000000000000000000000000000081525060200191505060405180910390fd5b346001846040518082805190602001908083835b60208310613af45780518252602082019150602081019050602083039250613ad1565b6001836020036101000a0380198251168184511680821785525050505050509050019150509081526020016040518091039020600201541015613b9f576040517f08c379a000000000000000000000000000000000000000000000000000000000815260040180806020018281038252601a8152602001807f5468657265206973206e6f20656e6f7567682062616c616e636500000000000081525060200191505060405180910390fd5b346001846040518082805190602001908083835b60208310613bd65780518252602082019150602081019050602083039250613bb3565b6001836020036101000a0380198251168184511680821785525050505050509050019150509081526020016040518091039020600201600082825403925050819055503373ffffffffffffffffffffffffffffffffffffffff166108fc349081150290604051600060405180830381858888f19350505050158015613c5f573d6000803e3d6000fd5b50346001846040518082805190602001908083835b60208310613c975780518252602082019150602081019050602083039250613c74565b6001836020036101000a038019825116818451168082178552505050505050905001915050908152602001604051809103902060070160003373ffffffffffffffffffffffffffffffffffffffff1673ffffffffffffffffffffffffffffffffffffffff168152602001908152602001600020600082825401925050819055507f2e35ef503c2df7525f8147c0e59421bce400064713f992b10d1092456f6c6d6233346001866040518082805190602001908083835b60208310613d705780518252602082019150602081019050602083039250613d4d565b6001836020036101000a038019825116818451168082178552505050505050905001915050908152602001604051809103902060020154604051808473ffffffffffffffffffffffffffffffffffffffff1673ffffffffffffffffffffffffffffffffffffffff168152602001838152602001828152602001935050505060405180910390a1505050565b60008160011515600260003373ffffffffffffffffffffffffffffffffffffffff1673ffffffffffffffffffffffffffffffffffffffff168152602001908152602001600020600301826040518082805190602001908083835b60208310613e785780518252602082019150602081019050602083039250613e55565b6001836020036101000a038019825116818451168082178552505050505050905001915050908152602001604051809103902060009054906101000a900460ff16151514613f2e576040517f08c379a00000000000000000000000000000000000000000000000000000000081526004018080602001828103825260198152602001807f596f7520617265206e6f7420696e20746869732067726f75700000000000000081525060200191505060405180910390fd5b82600115156001826040518082805190602001908083835b60208310613f695780518252602082019150602081019050602083039250613f46565b6001836020036101000a038019825116818451168082178552505050505050905001915050908152602001604051809103902060030160009054906101000a900460ff16151514614022576040517f08c379a00000000000000000000000000000000000000000000000000000000081526004018080602001828103825260128152602001807f47726f7570206973206e6f74206578697374000000000000000000000000000081525060200191505060405180910390fd5b6001846040518082805190602001908083835b602083106140585780518252602082019150602081019050602083039250614035565b6001836020036101000a038019825116818451168082178552505050505050905001915050908152602001604051809103902060070160003373ffffffffffffffffffffffffffffffffffffffff1673ffffffffffffffffffffffffffffffffffffffff1681526020019081526020016000205492505050919050565b6040518060a0016040528060608152602001600073ffffffffffffffffffffffffffffffffffffffff16815260200160008152602001600015158152602001600081525090565b828054600181600116156101000203166002900490600052602060002090601f016020900481019282601f1061415d57805160ff191683800117855561418b565b8280016001018555821561418b579182015b8281111561418a57825182559160200191906001019061416f565b5b5090506141989190614263565b5090565b828054600181600116156101000203166002900490600052602060002090601f016020900481019282601f106141dd57805160ff191683800117855561420b565b8280016001018555821561420b579182015b8281111561420a5782518255916020019190600101906141ef565b5b5090506142189190614263565b5090565b6040518060a001604052806060815260200160608152602001600073ffffffffffffffffffffffffffffffffffffffff168152602001600015158152602001600081525090565b61428591905b80821115614281576000816000905550600101614269565b5090565b9056fe596f752063616e206e6f74206c656176652066726f6d2067726f75702e20596f7520686176652064656274a265627a7a723158209e6052363e0c12d6dd4fbfab2de4a361cda4c31e18acf0da5f29cc45cb182b7b64736f6c634300050c0032",
  "source": "pragma solidity ^0.5.11;\n\n/**************************************************************\n                    MAIN CONTRACT\n***************************************************************/\n\ncontract lendingBorrowing {\n    \n    struct Participant {\n        string groupNo;\n        address memberAddress;\n        string nameSurname;\n        mapping(string => bool) enrolledGroup;\n    }   \n    \n    struct Group {\n        string groupId;\n        address creator;\n        uint groupBalance;\n        bool isOpen;\n        uint numberOfMember;\n        \n        mapping(address => bool) members;\n        mapping(address => uint) lenders;\n        mapping(address => uint) borrowers;\n    }\n    \n    struct Request {\n        string groupId;\n        string nameSurname;\n        address candidate;\n        bool complete;\n        uint approvalCount;\n        mapping(address => bool) approvals;\n    }\n    \n    mapping(address => Request) requests;\n    mapping(string => Group) groups;\n    mapping(address => Participant) participants;\n    string[] public groupList;\n    \n    event LogCreatedRequest(string _groupId, string _nameSurname, address _participantAddress);\n    event LogCreatedGroup(string _groupId, uint numberOfMember, address _creator);\n    event LogApprovedRequest(address _approverAddress, uint approvalCount);\n    event LogAddedCandidateToGroup(address _memberAddress);\n    event LogLendingTransaction(address _memberAddress, uint amountLended, uint groupBalance);\n    event LogBorrowingTransaction(address _memberAddress, uint amountBorrowed, uint groupBalance);\n    event LogPayDebtedBack(address _memberAddress, uint amountPayedBack, uint remainDebt, uint groupBalance);\n    event LogWithdraw(address _memberAddress, uint withdrawedAmount, uint groupBalance);\n\n    modifier checkGroupOpen(string memory _groupId) {\n        require(groups[_groupId].isOpen == true, \"Group is not exist\");\n        _;\n    }\n    \n    modifier checkEnrolled(string memory _groupId) {\n        require(participants[msg.sender].enrolledGroup[_groupId] == true, \"You are not in this group\");\n        _;\n    }\n    \n    function createGroup(string memory _groupId, string memory nameSurname)\n    public\n    {\n        // check that is there any group with same name\n        require(!groups[_groupId].isOpen,\"group is already created\");\n        \n        // Create a new group\n        Group memory newGroup = Group({groupId: _groupId, creator: msg.sender, groupBalance: 0, isOpen: true, numberOfMember: 1});\n        groups[_groupId] = newGroup;\n        emit LogCreatedGroup(_groupId, groups[_groupId].numberOfMember, groups[_groupId].creator);\n        \n        // add group list\n        groupList.push(_groupId);\n\n        // add msg.sender to group as a member\n        groups[_groupId].members[msg.sender] = true;\n        participants[msg.sender] = Participant(_groupId, msg.sender, nameSurname);\n        participants[msg.sender].enrolledGroup[_groupId] = true;\n    }\n    \n    function leaveGroup(string memory _groupId)\n    public \n    checkEnrolled(_groupId)\n    checkGroupOpen(_groupId)\n    {\n        // check that member has no debt\n        require(groups[_groupId].borrowers[msg.sender] == 0, \"You can not leave from group. You have debt\");\n        \n        participants[msg.sender].enrolledGroup[_groupId] = false;\n        groups[_groupId].members[msg.sender] = false;\n        groups[_groupId].numberOfMember -= 1;\n        \n        // get the amount member lended\n        uint amountLended = groups[_groupId].lenders[msg.sender];\n        \n        // if lended amount is exist, send back to msg.sender\n        if (amountLended > 0) {\n            msg.sender.transfer(amountLended);\n        }\n    }\n    \n    \n    function enroll(string memory _groupId, address _memberAddress, string memory _nameSurname) \n    private \n    checkGroupOpen(_groupId)\n    {\n        // check is already enrolled to group\n        require(participants[_memberAddress].enrolledGroup[_groupId] != true, \"You are already in this group\");\n        \n        // Create Request to enroll\n        Request memory newRequest = Request({\n            groupId: _groupId,\n            nameSurname: _nameSurname,\n            candidate: _memberAddress,\n            complete: false,\n            approvalCount: 0\n        });\n        \n        requests[_memberAddress] = newRequest;\n        \n        emit LogCreatedRequest(_groupId, _nameSurname, _memberAddress);\n        \n    }\n    \n    function approveRequest(address _candidateAddress) \n    public \n    {\n        Request storage request = requests[_candidateAddress];\n        \n        // check that this member did not approve \n        require(!request.approvals[_candidateAddress]);\n        \n        request.approvals[msg.sender] == true;\n        request.approvalCount++;\n        \n        // if 80% of members approve that candidate can enroll, then add candidate to group\n        if ((groups[request.groupId].numberOfMember * 80) / 100 < request.approvalCount) {\n            addCandidateToGroup(_candidateAddress);\n            request.complete = true;\n        }\n        \n        emit LogApprovedRequest(msg.sender, request.approvalCount);\n        \n    }\n    \n    function addCandidateToGroup(address _memberAddress) \n    public \n    {\n        // adding the participant to group\n        Request memory request = requests[_memberAddress];\n        groups[request.groupId].members[_memberAddress] = true;\n        \n        participants[request.candidate] = Participant(request.groupId, request.candidate, request.nameSurname);\n        participants[request.candidate].enrolledGroup[request.groupId] = true;\n        \n        emit LogAddedCandidateToGroup(_memberAddress);\n        \n    }\n    \n    function lending(string memory _groupId) \n    public \n    payable\n    checkEnrolled(_groupId) \n    checkGroupOpen(_groupId)\n    {\n        require(msg.value >= 0, \"Please send a valid amount\");\n        \n        groups[_groupId].lenders[msg.sender] = msg.value;\n        groups[_groupId].groupBalance += msg.value;\n        \n        emit LogLendingTransaction(msg.sender, msg.value, groups[_groupId].groupBalance);\n        \n    }\n    \n    \n    function borrowing(string memory _groupId) \n    public \n    payable\n    checkEnrolled(_groupId)\n    checkGroupOpen(_groupId)\n    {\n        // check is there enough amount\n        require(groups[_groupId].groupBalance >= msg.value, \"There is no enough balance\");\n        \n        // firstly, substrack group balance  \n        groups[_groupId].groupBalance -= msg.value;\n        \n        // Transfer the value to msg.sender\n        address(msg.sender).transfer(msg.value);\n        \n        // add the member to borrowers\n        groups[_groupId].borrowers[msg.sender] += msg.value;\n        \n        emit LogBorrowingTransaction(msg.sender, msg.value, groups[_groupId].groupBalance);\n        \n    }\n    \n    function payDebtBack(string memory _groupId)\n    public\n    payable\n    checkEnrolled(_groupId)\n    checkGroupOpen(_groupId)\n    returns(uint)\n    {\n        uint debt = groups[_groupId].borrowers[msg.sender];\n        \n        // check member has debt\n        require(debt != 0, \"you do not have debt\");\n        require(debt <= msg.value);\n        \n        if (msg.value <= debt) {\n            // for example:  debt = 100,  amount = 50\n            groups[_groupId].groupBalance += msg.value;\n            debt -= msg.value;\n            \n            emit LogPayDebtedBack(msg.sender, msg.value, debt, groups[_groupId].groupBalance);\n\n            return debt;\n            \n        }else {\n            // for example:  debt = 100,  amount = 150\n        \n            groups[_groupId].groupBalance += msg.value;\n            \n            // make debt of this member 0        \n            debt = 0;\n            \n            // lend amount exceed the debt to group\n            msg.sender.transfer(msg.value - debt);\n            \n            emit LogPayDebtedBack(msg.sender, msg.value, debt, groups[_groupId].groupBalance);\n            \n            return debt;\n        }\n        \n    }\n    \n    function withdraw(string memory _groupId)\n    public\n    payable\n    checkEnrolled(_groupId)\n    checkGroupOpen(_groupId)\n    returns(uint)\n    {\n        uint lendedAmount = groups[_groupId].lenders[msg.sender];\n        require(lendedAmount != 0, \"You do not have lended money\");\n        require(groups[_groupId].groupBalance >= msg.value, \"There is no enough balance\");\n        \n        lendedAmount -= msg.value;\n        msg.sender.transfer(msg.value);\n        \n        emit LogWithdraw(msg.sender, msg.value, groups[_groupId].groupBalance);\n        \n        return lendedAmount;\n    }\n    \n    \n    function checkParticipant(string memory _groupId)\n    public \n    view \n    returns(bool) \n    {\n        require(groups[_groupId].isOpen);\n        return participants[msg.sender].enrolledGroup[_groupId];\n    }\n    \n    function checkGroupBalance(string memory _groupId)\n    public \n    view \n    checkGroupOpen(_groupId)\n    returns(uint) \n    {\n        return groups[_groupId].groupBalance;\n    }\n\n    function checkGroup(string memory _groupId)\n    public \n    view\n    returns(string memory) \n    {\n        return groups[_groupId].groupId;\n    }\n\n    function getGroup(string memory _groupId) \n    public \n    view \n    returns(string memory, address, bool, uint) {\n        return (groups[_groupId].groupId, groups[_groupId].creator, groups[_groupId].isOpen, groups[_groupId].numberOfMember);\n    }\n    \n    function checkDebt(string memory _groupId)\n    public \n    view \n    checkEnrolled(_groupId)\n    checkGroupOpen(_groupId)\n    returns(uint) \n    {\n        return groups[_groupId].borrowers[msg.sender];\n    }\n}\n\n\n\n\n\n\n\n\n\n\n\n\n\n\n\n\n\n\n\n\n\n",
  "sourcePath": "/Users/murat.celiktepe/Documents/GitHub/ConsensysFinalProject/lendingBorrowing/contracts/lendingBorrowing.sol",
  "compiler": {
    "name": "solc",
    "version": "0.5.12+commit.7709ece9.Emscripten.clang"
  },
  "schemaVersion": "3.0.20",
  "updatedAt": "2020-01-17T17:38:37.919Z",
  "networkType": "ethereum",
  "devdoc": {
    "methods": {}
  },
  "userdoc": {
    "methods": {},
    "notice": "************************************************************ MAIN CONTRACT**************************************************************"
  }
}