{
  "contractName": "lendingBorrowing",
  "abi": [
    {
      "anonymous": false,
      "inputs": [
        {
          "indexed": false,
          "internalType": "address",
          "name": "_memberAddress",
          "type": "address"
        }
      ],
      "name": "LogAddedCandidateToGroup",
      "type": "event"
    },
    {
      "anonymous": false,
      "inputs": [
        {
          "indexed": false,
          "internalType": "address",
          "name": "_approverAddress",
          "type": "address"
        },
        {
          "indexed": false,
          "internalType": "uint256",
          "name": "approvalCount",
          "type": "uint256"
        }
      ],
      "name": "LogApprovedRequest",
      "type": "event"
    },
    {
      "anonymous": false,
      "inputs": [
        {
          "indexed": false,
          "internalType": "address",
          "name": "_memberAddress",
          "type": "address"
        },
        {
          "indexed": false,
          "internalType": "uint256",
          "name": "amountBorrowed",
          "type": "uint256"
        },
        {
          "indexed": false,
          "internalType": "uint256",
          "name": "groupBalance",
          "type": "uint256"
        }
      ],
      "name": "LogBorrowingTransaction",
      "type": "event"
    },
    {
      "anonymous": false,
      "inputs": [
        {
          "indexed": false,
          "internalType": "string",
          "name": "_groupId",
          "type": "string"
        },
        {
          "indexed": false,
          "internalType": "uint256",
          "name": "numberOfMember",
          "type": "uint256"
        },
        {
          "indexed": false,
          "internalType": "address",
          "name": "_creator",
          "type": "address"
        }
      ],
      "name": "LogCreatedGroup",
      "type": "event"
    },
    {
      "anonymous": false,
      "inputs": [
        {
          "indexed": false,
          "internalType": "string",
          "name": "_groupId",
          "type": "string"
        },
        {
          "indexed": false,
          "internalType": "string",
          "name": "_nameSurname",
          "type": "string"
        },
        {
          "indexed": false,
          "internalType": "address",
          "name": "_participantAddress",
          "type": "address"
        }
      ],
      "name": "LogCreatedRequest",
      "type": "event"
    },
    {
      "anonymous": false,
      "inputs": [
        {
          "indexed": false,
          "internalType": "address",
          "name": "_memberAddress",
          "type": "address"
        },
        {
          "indexed": false,
          "internalType": "uint256",
          "name": "amountLended",
          "type": "uint256"
        },
        {
          "indexed": false,
          "internalType": "uint256",
          "name": "groupBalance",
          "type": "uint256"
        }
      ],
      "name": "LogLendingTransaction",
      "type": "event"
    },
    {
      "anonymous": false,
      "inputs": [
        {
          "indexed": false,
          "internalType": "address",
          "name": "_memberAddress",
          "type": "address"
        },
        {
          "indexed": false,
          "internalType": "uint256",
          "name": "amountPayedBack",
          "type": "uint256"
        },
        {
          "indexed": false,
          "internalType": "uint256",
          "name": "remainDebt",
          "type": "uint256"
        },
        {
          "indexed": false,
          "internalType": "uint256",
          "name": "groupBalance",
          "type": "uint256"
        }
      ],
      "name": "LogPayDebtedBack",
      "type": "event"
    },
    {
      "anonymous": false,
      "inputs": [
        {
          "indexed": false,
          "internalType": "address",
          "name": "_memberAddress",
          "type": "address"
        },
        {
          "indexed": false,
          "internalType": "uint256",
          "name": "withdrawedAmount",
          "type": "uint256"
        },
        {
          "indexed": false,
          "internalType": "uint256",
          "name": "groupBalance",
          "type": "uint256"
        }
      ],
      "name": "LogWithdraw",
      "type": "event"
    },
    {
      "constant": true,
      "inputs": [],
      "name": "compoundAddress",
      "outputs": [
        {
          "internalType": "address payable",
          "name": "",
          "type": "address"
        }
      ],
      "payable": false,
      "stateMutability": "view",
      "type": "function"
    },
    {
      "constant": true,
      "inputs": [
        {
          "internalType": "string",
          "name": "",
          "type": "string"
        }
      ],
      "name": "groups",
      "outputs": [
        {
          "internalType": "string",
          "name": "groupId",
          "type": "string"
        },
        {
          "internalType": "address",
          "name": "creator",
          "type": "address"
        },
        {
          "internalType": "uint256",
          "name": "groupBalance",
          "type": "uint256"
        },
        {
          "internalType": "bool",
          "name": "isOpen",
          "type": "bool"
        },
        {
          "internalType": "uint256",
          "name": "numberOfMember",
          "type": "uint256"
        },
        {
          "internalType": "uint256",
          "name": "requestCount",
          "type": "uint256"
        }
      ],
      "payable": false,
      "stateMutability": "view",
      "type": "function"
    },
    {
      "constant": true,
      "inputs": [
        {
          "internalType": "address",
          "name": "",
          "type": "address"
        }
      ],
      "name": "participants",
      "outputs": [
        {
          "internalType": "string",
          "name": "groupNo",
          "type": "string"
        },
        {
          "internalType": "address",
          "name": "memberAddress",
          "type": "address"
        },
        {
          "internalType": "string",
          "name": "nameSurname",
          "type": "string"
        }
      ],
      "payable": false,
      "stateMutability": "view",
      "type": "function"
    },
    {
      "constant": false,
      "inputs": [
        {
          "internalType": "string",
          "name": "_groupId",
          "type": "string"
        },
        {
          "internalType": "string",
          "name": "nameSurname",
          "type": "string"
        }
      ],
      "name": "createGroup",
      "outputs": [],
      "payable": false,
      "stateMutability": "nonpayable",
      "type": "function"
    },
    {
      "constant": false,
      "inputs": [
        {
          "internalType": "string",
          "name": "_groupId",
          "type": "string"
        }
      ],
      "name": "leaveGroup",
      "outputs": [],
      "payable": false,
      "stateMutability": "nonpayable",
      "type": "function"
    },
    {
      "constant": false,
      "inputs": [
        {
          "internalType": "string",
          "name": "_groupId",
          "type": "string"
        },
        {
          "internalType": "string",
          "name": "_nameSurname",
          "type": "string"
        }
      ],
      "name": "enroll",
      "outputs": [],
      "payable": false,
      "stateMutability": "nonpayable",
      "type": "function"
    },
    {
      "constant": false,
      "inputs": [
        {
          "internalType": "address",
          "name": "_candidateAddress",
          "type": "address"
        },
        {
          "internalType": "string",
          "name": "_groupId",
          "type": "string"
        },
        {
          "internalType": "uint256",
          "name": "_id",
          "type": "uint256"
        }
      ],
      "name": "approveRequest",
      "outputs": [],
      "payable": false,
      "stateMutability": "nonpayable",
      "type": "function"
    },
    {
      "constant": false,
      "inputs": [
        {
          "internalType": "string",
          "name": "_groupId",
          "type": "string"
        }
      ],
      "name": "lending",
      "outputs": [],
      "payable": true,
      "stateMutability": "payable",
      "type": "function"
    },
    {
      "constant": false,
      "inputs": [
        {
          "internalType": "string",
          "name": "_groupId",
          "type": "string"
        }
      ],
      "name": "depositToCompound",
      "outputs": [],
      "payable": true,
      "stateMutability": "payable",
      "type": "function"
    },
    {
      "constant": false,
      "inputs": [
        {
          "internalType": "string",
          "name": "_groupId",
          "type": "string"
        }
      ],
      "name": "borrowing",
      "outputs": [],
      "payable": true,
      "stateMutability": "payable",
      "type": "function"
    },
    {
      "constant": false,
      "inputs": [
        {
          "internalType": "string",
          "name": "_groupId",
          "type": "string"
        }
      ],
      "name": "payDebtBack",
      "outputs": [
        {
          "internalType": "uint256",
          "name": "",
          "type": "uint256"
        }
      ],
      "payable": true,
      "stateMutability": "payable",
      "type": "function"
    },
    {
      "constant": false,
      "inputs": [
        {
          "internalType": "string",
          "name": "_groupId",
          "type": "string"
        }
      ],
      "name": "withdraw",
      "outputs": [
        {
          "internalType": "uint256",
          "name": "",
          "type": "uint256"
        }
      ],
      "payable": true,
      "stateMutability": "payable",
      "type": "function"
    },
    {
      "constant": true,
      "inputs": [
        {
          "internalType": "string",
          "name": "_groupId",
          "type": "string"
        }
      ],
      "name": "checkParticipant",
      "outputs": [
        {
          "internalType": "bool",
          "name": "",
          "type": "bool"
        }
      ],
      "payable": false,
      "stateMutability": "view",
      "type": "function"
    },
    {
      "constant": true,
      "inputs": [
        {
          "internalType": "string",
          "name": "_groupId",
          "type": "string"
        }
      ],
      "name": "checkGroupBalance",
      "outputs": [
        {
          "internalType": "uint256",
          "name": "",
          "type": "uint256"
        }
      ],
      "payable": false,
      "stateMutability": "view",
      "type": "function"
    },
    {
      "constant": true,
      "inputs": [
        {
          "internalType": "string",
          "name": "_groupId",
          "type": "string"
        }
      ],
      "name": "checkGroup",
      "outputs": [
        {
          "internalType": "string",
          "name": "",
          "type": "string"
        }
      ],
      "payable": false,
      "stateMutability": "view",
      "type": "function"
    },
    {
      "constant": true,
      "inputs": [
        {
          "internalType": "string",
          "name": "_groupId",
          "type": "string"
        }
      ],
      "name": "checkMemberDebtStatus",
      "outputs": [
        {
          "internalType": "uint256",
          "name": "",
          "type": "uint256"
        },
        {
          "internalType": "uint256",
          "name": "",
          "type": "uint256"
        },
        {
          "internalType": "uint256",
          "name": "",
          "type": "uint256"
        }
      ],
      "payable": false,
      "stateMutability": "view",
      "type": "function"
    },
    {
      "constant": true,
      "inputs": [
        {
          "internalType": "string",
          "name": "_groupId",
          "type": "string"
        },
        {
          "internalType": "uint256",
          "name": "_id",
          "type": "uint256"
        }
      ],
      "name": "getRequest",
      "outputs": [
        {
          "internalType": "string",
          "name": "",
          "type": "string"
        },
        {
          "internalType": "address",
          "name": "",
          "type": "address"
        },
        {
          "internalType": "bool",
          "name": "",
          "type": "bool"
        },
        {
          "internalType": "uint256",
          "name": "",
          "type": "uint256"
        }
      ],
      "payable": false,
      "stateMutability": "view",
      "type": "function"
    },
    {
      "constant": true,
      "inputs": [
        {
          "internalType": "string",
          "name": "_groupId",
          "type": "string"
        }
      ],
      "name": "getRequestArrayLength",
      "outputs": [
        {
          "internalType": "uint256",
          "name": "",
          "type": "uint256"
        }
      ],
      "payable": false,
      "stateMutability": "view",
      "type": "function"
    },
    {
      "constant": true,
      "inputs": [
        {
          "internalType": "address",
          "name": "_memberAddress",
          "type": "address"
        }
      ],
      "name": "getDepositPending",
      "outputs": [
        {
          "internalType": "uint256",
          "name": "",
          "type": "uint256"
        }
      ],
      "payable": false,
      "stateMutability": "view",
      "type": "function"
    }
  ],
  "bytecode": "0x60806040526028600555603c60065573877427ccbd3061affd5c6518bc87799b9cf3c408600760006101000a81548173ffffffffffffffffffffffffffffffffffffffff021916908373ffffffffffffffffffffffffffffffffffffffff16021790555034801561006f57600080fd5b50615c7980620000806000396000f3fe6080604052600436106101145760003560e01c80636b52230b116100a057806395bec3951161006457806395bec39514610ea3578063b25ed5a314611002578063bfc00714146110ca578063c7cd80e714611121578063cf05ed42146111dc57610114565b80636b52230b146109b25780636d2224a214610b465780636fb591c514610c3057806375d7571214610d0c57806380e17fba14610de857610114565b806331fb67c2116100e757806331fb67c21461058e5780633501b0b01461065d5780633db7484b146106c2578063400b6fdb1461080357806350f67e7f146108d257610114565b806309e69ede1461011957806319153dd9146102825780631e4a97dd1461033d5780632ff72fa01461049c575b600080fd5b34801561012557600080fd5b506101686004803603602081101561013c57600080fd5b81019080803573ffffffffffffffffffffffffffffffffffffffff16906020019092919050505061136c565b60405180806020018473ffffffffffffffffffffffffffffffffffffffff1673ffffffffffffffffffffffffffffffffffffffff16815260200180602001838103835286818151815260200191508051906020019080838360005b838110156101de5780820151818401526020810190506101c3565b50505050905090810190601f16801561020b5780820380516001836020036101000a031916815260200191505b50838103825284818151815260200191508051906020019080838360005b83811015610244578082015181840152602081019050610229565b50505050905090810190601f1680156102715780820380516001836020036101000a031916815260200191505b509550505050505060405180910390f35b61033b6004803603602081101561029857600080fd5b81019080803590602001906401000000008111156102b557600080fd5b8201836020820111156102c757600080fd5b803590602001918460018302840111640100000000831117156102e957600080fd5b91908080601f016020809104026020016040519081016040528093929190818152602001838380828437600081840152601f19601f8201169050808301925050505050505091929192905050506114e6565b005b34801561034957600080fd5b5061049a6004803603604081101561036057600080fd5b810190808035906020019064010000000081111561037d57600080fd5b82018360208201111561038f57600080fd5b803590602001918460018302840111640100000000831117156103b157600080fd5b91908080601f016020809104026020016040519081016040528093929190818152602001838380828437600081840152601f19601f8201169050808301925050505050505091929192908035906020019064010000000081111561041457600080fd5b82018360208201111561042657600080fd5b8035906020019184600183028401116401000000008311171561044857600080fd5b91908080601f016020809104026020016040519081016040528093929190818152602001838380828437600081840152601f19601f820116905080830192505050505050509192919290505050611a0c565b005b3480156104a857600080fd5b5061058c600480360360608110156104bf57600080fd5b81019080803573ffffffffffffffffffffffffffffffffffffffff169060200190929190803590602001906401000000008111156104fc57600080fd5b82018360208201111561050e57600080fd5b8035906020019184600183028401116401000000008311171561053057600080fd5b91908080601f016020809104026020016040519081016040528093929190818152602001838380828437600081840152601f19601f82011690508083019250505050505050919291929080359060200190929190505050611fe6565b005b610647600480360360208110156105a457600080fd5b81019080803590602001906401000000008111156105c157600080fd5b8201836020820111156105d357600080fd5b803590602001918460018302840111640100000000831117156105f557600080fd5b91908080601f016020809104026020016040519081016040528093929190818152602001838380828437600081840152601f19601f82011690508083019250505050505050919291929050505061242a565b6040518082815260200191505060405180910390f35b34801561066957600080fd5b506106ac6004803603602081101561068057600080fd5b81019080803573ffffffffffffffffffffffffffffffffffffffff169060200190929190505050612bdf565b6040518082815260200191505060405180910390f35b3480156106ce57600080fd5b50610788600480360360208110156106e557600080fd5b810190808035906020019064010000000081111561070257600080fd5b82018360208201111561071457600080fd5b8035906020019184600183028401116401000000008311171561073657600080fd5b91908080601f016020809104026020016040519081016040528093929190818152602001838380828437600081840152601f19601f820116905080830192505050505050509192919290505050612c28565b6040518080602001828103825283818151815260200191508051906020019080838360005b838110156107c85780820151818401526020810190506107ad565b50505050905090810190601f1680156107f55780820380516001836020036101000a031916815260200191505b509250505060405180910390f35b6108bc6004803603602081101561081957600080fd5b810190808035906020019064010000000081111561083657600080fd5b82018360208201111561084857600080fd5b8035906020019184600183028401116401000000008311171561086a57600080fd5b91908080601f016020809104026020016040519081016040528093929190818152602001838380828437600081840152601f19601f820116905080830192505050505050509192919290505050612d36565b6040518082815260200191505060405180910390f35b3480156108de57600080fd5b50610998600480360360208110156108f557600080fd5b810190808035906020019064010000000081111561091257600080fd5b82018360208201111561092457600080fd5b8035906020019184600183028401116401000000008311171561094657600080fd5b91908080601f016020809104026020016040519081016040528093929190818152602001838380828437600081840152601f19601f820116905080830192505050505050509192919290505050613518565b604051808215151515815260200191505060405180910390f35b3480156109be57600080fd5b50610a78600480360360208110156109d557600080fd5b81019080803590602001906401000000008111156109f257600080fd5b820183602082011115610a0457600080fd5b80359060200191846001830284011164010000000083111715610a2657600080fd5b91908080601f016020809104026020016040519081016040528093929190818152602001838380828437600081840152601f19601f8201169050808301925050505050505091929192905050506136cd565b60405180806020018773ffffffffffffffffffffffffffffffffffffffff1673ffffffffffffffffffffffffffffffffffffffff16815260200186815260200185151515158152602001848152602001838152602001828103825288818151815260200191508051906020019080838360005b83811015610b06578082015181840152602081019050610aeb565b50505050905090810190601f168015610b335780820380516001836020036101000a031916815260200191505b5097505050505050505060405180910390f35b348015610b5257600080fd5b50610c0c60048036036020811015610b6957600080fd5b8101908080359060200190640100000000811115610b8657600080fd5b820183602082011115610b9857600080fd5b80359060200191846001830284011164010000000083111715610bba57600080fd5b91908080601f016020809104026020016040519081016040528093929190818152602001838380828437600081840152601f19601f8201169050808301925050505050505091929192905050506137e4565b60405180848152602001838152602001828152602001935050505060405180910390f35b348015610c3c57600080fd5b50610cf660048036036020811015610c5357600080fd5b8101908080359060200190640100000000811115610c7057600080fd5b820183602082011115610c8257600080fd5b80359060200191846001830284011164010000000083111715610ca457600080fd5b91908080601f016020809104026020016040519081016040528093929190818152602001838380828437600081840152601f19601f820116905080830192505050505050509192919290505050613ae9565b6040518082815260200191505060405180910390f35b348015610d1857600080fd5b50610dd260048036036020811015610d2f57600080fd5b8101908080359060200190640100000000811115610d4c57600080fd5b820183602082011115610d5e57600080fd5b80359060200191846001830284011164010000000083111715610d8057600080fd5b91908080601f016020809104026020016040519081016040528093929190818152602001838380828437600081840152601f19601f820116905080830192505050505050509192919290505050613b5e565b6040518082815260200191505060405180910390f35b610ea160048036036020811015610dfe57600080fd5b8101908080359060200190640100000000811115610e1b57600080fd5b820183602082011115610e2d57600080fd5b80359060200191846001830284011164010000000083111715610e4f57600080fd5b91908080601f016020809104026020016040519081016040528093929190818152602001838380828437600081840152601f19601f820116905080830192505050505050509192919290505050613cc9565b005b348015610eaf57600080fd5b5061100060048036036040811015610ec657600080fd5b8101908080359060200190640100000000811115610ee357600080fd5b820183602082011115610ef557600080fd5b80359060200191846001830284011164010000000083111715610f1757600080fd5b91908080601f016020809104026020016040519081016040528093929190818152602001838380828437600081840152601f19601f82011690508083019250505050505050919291929080359060200190640100000000811115610f7a57600080fd5b820183602082011115610f8c57600080fd5b80359060200191846001830284011164010000000083111715610fae57600080fd5b91908080601f016020809104026020016040519081016040528093929190818152602001838380828437600081840152601f19601f8201169050808301925050505050505091929192905050506140a5565b005b34801561100e57600080fd5b506110c86004803603602081101561102557600080fd5b810190808035906020019064010000000081111561104257600080fd5b82018360208201111561105457600080fd5b8035906020019184600183028401116401000000008311171561107657600080fd5b91908080601f016020809104026020016040519081016040528093929190818152602001838380828437600081840152601f19601f82011690508083019250505050505050919291929050505061471f565b005b3480156110d657600080fd5b506110df614c88565b604051808273ffffffffffffffffffffffffffffffffffffffff1673ffffffffffffffffffffffffffffffffffffffff16815260200191505060405180910390f35b6111da6004803603602081101561113757600080fd5b810190808035906020019064010000000081111561115457600080fd5b82018360208201111561116657600080fd5b8035906020019184600183028401116401000000008311171561118857600080fd5b91908080601f016020809104026020016040519081016040528093929190818152602001838380828437600081840152601f19601f820116905080830192505050505050509192919290505050614cae565b005b3480156111e857600080fd5b506112ac600480360360408110156111ff57600080fd5b810190808035906020019064010000000081111561121c57600080fd5b82018360208201111561122e57600080fd5b8035906020019184600183028401116401000000008311171561125057600080fd5b91908080601f016020809104026020016040519081016040528093929190818152602001838380828437600081840152601f19601f82011690508083019250505050505050919291929080359060200190929190505050615211565b60405180806020018573ffffffffffffffffffffffffffffffffffffffff1673ffffffffffffffffffffffffffffffffffffffff16815260200184151515158152602001838152602001828103825286818151815260200191508051906020019080838360005b8381101561132e578082015181840152602081019050611313565b50505050905090810190601f16801561135b5780820380516001836020036101000a031916815260200191505b509550505050505060405180910390f35b6003602052806000526040600020600091509050806000018054600181600116156101000203166002900480601f0160208091040260200160405190810160405280929190818152602001828054600181600116156101000203166002900480156114185780601f106113ed57610100808354040283529160200191611418565b820191906000526020600020905b8154815290600101906020018083116113fb57829003601f168201915b5050505050908060010160009054906101000a900473ffffffffffffffffffffffffffffffffffffffff1690806002018054600181600116156101000203166002900480601f0160208091040260200160405190810160405280929190818152602001828054600181600116156101000203166002900480156114dc5780601f106114b1576101008083540402835291602001916114dc565b820191906000526020600020905b8154815290600101906020018083116114bf57829003601f168201915b5050505050905083565b80600115156002826040518082805190602001908083835b6020831061152157805182526020820191506020810190506020830392506114fe565b6001836020036101000a038019825116818451168082178552505050505050905001915050908152602001604051809103902060060160003373ffffffffffffffffffffffffffffffffffffffff1673ffffffffffffffffffffffffffffffffffffffff16815260200190815260200160002060009054906101000a900460ff16151514611617576040517f08c379a00000000000000000000000000000000000000000000000000000000081526004018080602001828103825260198152602001807f596f7520617265206e6f7420696e20746869732067726f75700000000000000081525060200191505060405180910390fd5b81600115156002826040518082805190602001908083835b60208310611652578051825260208201915060208101905060208303925061162f565b6001836020036101000a038019825116818451168082178552505050505050905001915050908152602001604051809103902060030160009054906101000a900460ff1615151461170b576040517f08c379a00000000000000000000000000000000000000000000000000000000081526004018080602001828103825260128152602001807f47726f7570206973206e6f74206578697374000000000000000000000000000081525060200191505060405180910390fd5b6000341015611782576040517f08c379a000000000000000000000000000000000000000000000000000000000815260040180806020018281038252601a8152602001807f506c656173652073656e6420612076616c696420616d6f756e7400000000000081525060200191505060405180910390fd5b6000606460055434028161179257fe5b049050600060646006543402816117a557fe5b049050816002866040518082805190602001908083835b602083106117df57805182526020820191506020810190506020830392506117bc565b6001836020036101000a038019825116818451168082178552505050505050905001915050908152602001604051809103902060020160008282540192505081905550816002866040518082805190602001908083835b602083106118595780518252602082019150602081019050602083039250611836565b6001836020036101000a038019825116818451168082178552505050505050905001915050908152602001604051809103902060080160003373ffffffffffffffffffffffffffffffffffffffff1673ffffffffffffffffffffffffffffffffffffffff1681526020019081526020016000206000828254019250508190555080600460003373ffffffffffffffffffffffffffffffffffffffff1673ffffffffffffffffffffffffffffffffffffffff168152602001908152602001600020600082825401925050819055507f1cc308ba0845fc9dfb2b7c59303c61b3a4c4b54f2758356f654b4962957ae90a33346002886040518082805190602001908083835b6020831061197f578051825260208201915060208101905060208303925061195c565b6001836020036101000a038019825116818451168082178552505050505050905001915050908152602001604051809103902060020154604051808473ffffffffffffffffffffffffffffffffffffffff1673ffffffffffffffffffffffffffffffffffffffff168152602001838152602001828152602001935050505060405180910390a15050505050565b6002826040518082805190602001908083835b60208310611a425780518252602082019150602081019050602083039250611a1f565b6001836020036101000a038019825116818451168082178552505050505050905001915050908152602001604051809103902060030160009054906101000a900460ff1615611af9576040517f08c379a00000000000000000000000000000000000000000000000000000000081526004018080602001828103825260188152602001807f67726f757020697320616c72656164792063726561746564000000000000000081525060200191505060405180910390fd5b611b01615ad8565b6040518060c001604052808481526020013373ffffffffffffffffffffffffffffffffffffffff168152602001600081526020016001151581526020016001815260200160008152509050806002846040518082805190602001908083835b60208310611b835780518252602082019150602081019050602083039250611b60565b6001836020036101000a03801982511681845116808217855250505050505090500191505090815260200160405180910390206000820151816000019080519060200190611bd2929190615b26565b5060208201518160010160006101000a81548173ffffffffffffffffffffffffffffffffffffffff021916908373ffffffffffffffffffffffffffffffffffffffff1602179055506040820151816002015560608201518160030160006101000a81548160ff0219169083151502179055506080820151816004015560a082015181600501559050507fe6985da533d59f3fb572c1c30f7f445bae4836c26650d232293de633632aba19836002856040518082805190602001908083835b60208310611cb35780518252602082019150602081019050602083039250611c90565b6001836020036101000a0380198251168184511680821785525050505050509050019150509081526020016040518091039020600401546002866040518082805190602001908083835b60208310611d205780518252602082019150602081019050602083039250611cfd565b6001836020036101000a038019825116818451168082178552505050505050905001915050908152602001604051809103902060010160009054906101000a900473ffffffffffffffffffffffffffffffffffffffff1660405180806020018481526020018373ffffffffffffffffffffffffffffffffffffffff1673ffffffffffffffffffffffffffffffffffffffff168152602001828103825285818151815260200191508051906020019080838360005b83811015611def578082015181840152602081019050611dd4565b50505050905090810190601f168015611e1c5780820380516001836020036101000a031916815260200191505b5094505050505060405180910390a160016002846040518082805190602001908083835b60208310611e635780518252602082019150602081019050602083039250611e40565b6001836020036101000a038019825116818451168082178552505050505050905001915050908152602001604051809103902060060160003373ffffffffffffffffffffffffffffffffffffffff1673ffffffffffffffffffffffffffffffffffffffff16815260200190815260200160002060006101000a81548160ff02191690831515021790555060405180606001604052808481526020013373ffffffffffffffffffffffffffffffffffffffff16815260200183815250600360003373ffffffffffffffffffffffffffffffffffffffff1673ffffffffffffffffffffffffffffffffffffffff1681526020019081526020016000206000820151816000019080519060200190611f79929190615b26565b5060208201518160010160006101000a81548173ffffffffffffffffffffffffffffffffffffffff021916908373ffffffffffffffffffffffffffffffffffffffff1602179055506040820151816002019080519060200190611fdd929190615b26565b50905050505050565b60001515600160008573ffffffffffffffffffffffffffffffffffffffff1673ffffffffffffffffffffffffffffffffffffffff16815260200190815260200160002060030160149054906101000a900460ff1615151461204657600080fd5b6000600160008573ffffffffffffffffffffffffffffffffffffffff1673ffffffffffffffffffffffffffffffffffffffff16815260200190815260200160002090508060050160008573ffffffffffffffffffffffffffffffffffffffff1673ffffffffffffffffffffffffffffffffffffffff16815260200190815260200160002060009054906101000a900460ff16156120e257600080fd5b600115158160050160003373ffffffffffffffffffffffffffffffffffffffff1673ffffffffffffffffffffffffffffffffffffffff16815260200190815260200160002060009054906101000a905050506001816004016000828254019250508190555060016000846040518082805190602001908083835b6020831061217f578051825260208201915060208101905060208303925061215c565b6001836020036101000a038019825116818451168082178552505050505050905001915050908152602001604051809103902083815481106121bd57fe5b9060005260206000209060060201600401600082825401925050819055508060040154606460506002866040518082805190602001908083835b6020831061221a57805182526020820191506020810190506020830392506121f7565b6001836020036101000a038019825116818451168082178552505050505050905001915050908152602001604051809103902060040154028161225957fe5b0410156123b55761226b848484615508565b6001816004016000828254019250508190555060018160030160146101000a81548160ff02191690831515021790555060016000846040518082805190602001908083835b602083106122d357805182526020820191506020810190506020830392506122b0565b6001836020036101000a0380198251168184511680821785525050505050509050019150509081526020016040518091039020838154811061231157fe5b906000526020600020906006020160030160146101000a81548160ff02191690831515021790555060016002846040518082805190602001908083835b60208310612371578051825260208201915060208101905060208303925061234e565b6001836020036101000a0380198251168184511680821785525050505050509050019150509081526020016040518091039020600501600082825403925050819055505b7f802794574f626c7f2301ce39c790ee6f6dcb9427a466c9bd3d04902f3f2cf1c6338260040154604051808373ffffffffffffffffffffffffffffffffffffffff1673ffffffffffffffffffffffffffffffffffffffff1681526020018281526020019250505060405180910390a150505050565b600081600115156002826040518082805190602001908083835b602083106124675780518252602082019150602081019050602083039250612444565b6001836020036101000a038019825116818451168082178552505050505050905001915050908152602001604051809103902060060160003373ffffffffffffffffffffffffffffffffffffffff1673ffffffffffffffffffffffffffffffffffffffff16815260200190815260200160002060009054906101000a900460ff1615151461255d576040517f08c379a00000000000000000000000000000000000000000000000000000000081526004018080602001828103825260198152602001807f596f7520617265206e6f7420696e20746869732067726f75700000000000000081525060200191505060405180910390fd5b82600115156002826040518082805190602001908083835b602083106125985780518252602082019150602081019050602083039250612575565b6001836020036101000a038019825116818451168082178552505050505050905001915050908152602001604051809103902060030160009054906101000a900460ff16151514612651576040517f08c379a00000000000000000000000000000000000000000000000000000000081526004018080602001828103825260128152602001807f47726f7570206973206e6f74206578697374000000000000000000000000000081525060200191505060405180910390fd5b60006002856040518082805190602001908083835b602083106126895780518252602082019150602081019050602083039250612666565b6001836020036101000a038019825116818451168082178552505050505050905001915050908152602001604051809103902060070160003373ffffffffffffffffffffffffffffffffffffffff1673ffffffffffffffffffffffffffffffffffffffff16815260200190815260200160002054905060008114612775576040517f08c379a000000000000000000000000000000000000000000000000000000000815260040180806020018281038252600d8152602001807f796f75206861766520646562740000000000000000000000000000000000000081525060200191505060405180910390fd5b60006002866040518082805190602001908083835b602083106127ad578051825260208201915060208101905060208303925061278a565b6001836020036101000a038019825116818451168082178552505050505050905001915050908152602001604051809103902060080160003373ffffffffffffffffffffffffffffffffffffffff1673ffffffffffffffffffffffffffffffffffffffff168152602001908152602001600020549050600081141561289a576040517f08c379a000000000000000000000000000000000000000000000000000000000815260040180806020018281038252601c8152602001807f596f7520646f206e6f742068617665206c656e646564206d6f6e65790000000081525060200191505060405180910390fd5b346002876040518082805190602001908083835b602083106128d157805182526020820191506020810190506020830392506128ae565b6001836020036101000a038019825116818451168082178552505050505050905001915050908152602001604051809103902060020154101561297c576040517f08c379a000000000000000000000000000000000000000000000000000000000815260040180806020018281038252601a8152602001807f5468657265206973206e6f20656e6f7567682062616c616e636500000000000081525060200191505060405180910390fd5b346002876040518082805190602001908083835b602083106129b35780518252602082019150602081019050602083039250612990565b6001836020036101000a038019825116818451168082178552505050505050905001915050908152602001604051809103902060080160003373ffffffffffffffffffffffffffffffffffffffff1673ffffffffffffffffffffffffffffffffffffffff16815260200190815260200160002060008282540392505081905550346002876040518082805190602001908083835b60208310612a6a5780518252602082019150602081019050602083039250612a47565b6001836020036101000a0380198251168184511680821785525050505050509050019150509081526020016040518091039020600201600082825403925050819055503373ffffffffffffffffffffffffffffffffffffffff166108fc349081150290604051600060405180830381858888f19350505050158015612af3573d6000803e3d6000fd5b507fda9a10d7b992511ddadbfc7ff712c1424ce2058bbcdac8c9876d6f8de590d43f33346002896040518082805190602001908083835b60208310612b4d5780518252602082019150602081019050602083039250612b2a565b6001836020036101000a038019825116818451168082178552505050505050905001915050908152602001604051809103902060020154604051808473ffffffffffffffffffffffffffffffffffffffff1673ffffffffffffffffffffffffffffffffffffffff168152602001838152602001828152602001935050505060405180910390a180945050505050919050565b6000600460008373ffffffffffffffffffffffffffffffffffffffff1673ffffffffffffffffffffffffffffffffffffffff168152602001908152602001600020549050919050565b60606002826040518082805190602001908083835b60208310612c605780518252602082019150602081019050602083039250612c3d565b6001836020036101000a03801982511681845116808217855250505050505090500191505090815260200160405180910390206000018054600181600116156101000203166002900480601f016020809104026020016040519081016040528092919081815260200182805460018160011615610100020316600290048015612d2a5780601f10612cff57610100808354040283529160200191612d2a565b820191906000526020600020905b815481529060010190602001808311612d0d57829003601f168201915b50505050509050919050565b600081600115156002826040518082805190602001908083835b60208310612d735780518252602082019150602081019050602083039250612d50565b6001836020036101000a038019825116818451168082178552505050505050905001915050908152602001604051809103902060060160003373ffffffffffffffffffffffffffffffffffffffff1673ffffffffffffffffffffffffffffffffffffffff16815260200190815260200160002060009054906101000a900460ff16151514612e69576040517f08c379a00000000000000000000000000000000000000000000000000000000081526004018080602001828103825260198152602001807f596f7520617265206e6f7420696e20746869732067726f75700000000000000081525060200191505060405180910390fd5b82600115156002826040518082805190602001908083835b60208310612ea45780518252602082019150602081019050602083039250612e81565b6001836020036101000a038019825116818451168082178552505050505050905001915050908152602001604051809103902060030160009054906101000a900460ff16151514612f5d576040517f08c379a00000000000000000000000000000000000000000000000000000000081526004018080602001828103825260128152602001807f47726f7570206973206e6f74206578697374000000000000000000000000000081525060200191505060405180910390fd5b60006002856040518082805190602001908083835b60208310612f955780518252602082019150602081019050602083039250612f72565b6001836020036101000a038019825116818451168082178552505050505050905001915050908152602001604051809103902060070160003373ffffffffffffffffffffffffffffffffffffffff1673ffffffffffffffffffffffffffffffffffffffff1681526020019081526020016000205490506000811415613082576040517f08c379a00000000000000000000000000000000000000000000000000000000081526004018080602001828103825260148152602001807f796f7520646f206e6f742068617665206465627400000000000000000000000081525060200191505060405180910390fd5b8034116132af57346002866040518082805190602001908083835b602083106130c0578051825260208201915060208101905060208303925061309d565b6001836020036101000a038019825116818451168082178552505050505050905001915050908152602001604051809103902060020160008282540192505081905550346002866040518082805190602001908083835b6020831061313a5780518252602082019150602081019050602083039250613117565b6001836020036101000a038019825116818451168082178552505050505050905001915050908152602001604051809103902060070160003373ffffffffffffffffffffffffffffffffffffffff1673ffffffffffffffffffffffffffffffffffffffff1681526020019081526020016000206000828254039250508190555034810390507fa03e6a8cb7de48961fb0d71ac15ee76bf8efa0f99d2b2a4843a2795022ba9ce73334836002896040518082805190602001908083835b6020831061321957805182526020820191506020810190506020830392506131f6565b6001836020036101000a038019825116818451168082178552505050505050905001915050908152602001604051809103902060020154604051808573ffffffffffffffffffffffffffffffffffffffff1673ffffffffffffffffffffffffffffffffffffffff16815260200184815260200183815260200182815260200194505050505060405180910390a180935050613511565b346002866040518082805190602001908083835b602083106132e657805182526020820191506020810190506020830392506132c3565b6001836020036101000a03801982511681845116808217855250505050505090500191505090815260200160405180910390206002016000828254019250508190555060006002866040518082805190602001908083835b60208310613361578051825260208201915060208101905060208303925061333e565b6001836020036101000a038019825116818451168082178552505050505050905001915050908152602001604051809103902060070160003373ffffffffffffffffffffffffffffffffffffffff1673ffffffffffffffffffffffffffffffffffffffff16815260200190815260200160002081905550600090503373ffffffffffffffffffffffffffffffffffffffff166108fc8234039081150290604051600060405180830381858888f19350505050158015613424573d6000803e3d6000fd5b507fa03e6a8cb7de48961fb0d71ac15ee76bf8efa0f99d2b2a4843a2795022ba9ce73334836002896040518082805190602001908083835b6020831061347f578051825260208201915060208101905060208303925061345c565b6001836020036101000a038019825116818451168082178552505050505050905001915050908152602001604051809103902060020154604051808573ffffffffffffffffffffffffffffffffffffffff1673ffffffffffffffffffffffffffffffffffffffff16815260200184815260200183815260200182815260200194505050505060405180910390a1809350505b5050919050565b600081600115156002826040518082805190602001908083835b602083106135555780518252602082019150602081019050602083039250613532565b6001836020036101000a038019825116818451168082178552505050505050905001915050908152602001604051809103902060030160009054906101000a900460ff1615151461360e576040517f08c379a00000000000000000000000000000000000000000000000000000000081526004018080602001828103825260128152602001807f47726f7570206973206e6f74206578697374000000000000000000000000000081525060200191505060405180910390fd5b6002836040518082805190602001908083835b602083106136445780518252602082019150602081019050602083039250613621565b6001836020036101000a038019825116818451168082178552505050505050905001915050908152602001604051809103902060060160003373ffffffffffffffffffffffffffffffffffffffff1673ffffffffffffffffffffffffffffffffffffffff16815260200190815260200160002060009054906101000a900460ff16915050919050565b600281805160208101820180518482526020830160208501208183528095505050505050600091509050806000018054600181600116156101000203166002900480601f01602080910402602001604051908101604052809291908181526020018280546001816001161561010002031660029004801561378f5780601f106137645761010080835404028352916020019161378f565b820191906000526020600020905b81548152906001019060200180831161377257829003601f168201915b5050505050908060010160009054906101000a900473ffffffffffffffffffffffffffffffffffffffff16908060020154908060030160009054906101000a900460ff16908060040154908060050154905086565b600080600083600115156002826040518082805190602001908083835b602083106138245780518252602082019150602081019050602083039250613801565b6001836020036101000a038019825116818451168082178552505050505050905001915050908152602001604051809103902060030160009054906101000a900460ff161515146138dd576040517f08c379a00000000000000000000000000000000000000000000000000000000081526004018080602001828103825260128152602001807f47726f7570206973206e6f74206578697374000000000000000000000000000081525060200191505060405180910390fd5b6002856040518082805190602001908083835b6020831061391357805182526020820191506020810190506020830392506138f0565b6001836020036101000a038019825116818451168082178552505050505050905001915050908152602001604051809103902060070160003373ffffffffffffffffffffffffffffffffffffffff1673ffffffffffffffffffffffffffffffffffffffff168152602001908152602001600020546002866040518082805190602001908083835b602083106139bd578051825260208201915060208101905060208303925061399a565b6001836020036101000a038019825116818451168082178552505050505050905001915050908152602001604051809103902060080160003373ffffffffffffffffffffffffffffffffffffffff1673ffffffffffffffffffffffffffffffffffffffff168152602001908152602001600020546002876040518082805190602001908083835b60208310613a675780518252602082019150602081019050602083039250613a44565b6001836020036101000a038019825116818451168082178552505050505050905001915050908152602001604051809103902060090160003373ffffffffffffffffffffffffffffffffffffffff1673ffffffffffffffffffffffffffffffffffffffff16815260200190815260200160002054935093509350509193909250565b600080826040518082805190602001908083835b60208310613b205780518252602082019150602081019050602083039250613afd565b6001836020036101000a0380198251168184511680821785525050505050509050019150509081526020016040518091039020805490509050919050565b600081600115156002826040518082805190602001908083835b60208310613b9b5780518252602082019150602081019050602083039250613b78565b6001836020036101000a038019825116818451168082178552505050505050905001915050908152602001604051809103902060030160009054906101000a900460ff16151514613c54576040517f08c379a00000000000000000000000000000000000000000000000000000000081526004018080602001828103825260128152602001807f47726f7570206973206e6f74206578697374000000000000000000000000000081525060200191505060405180910390fd5b6002836040518082805190602001908083835b60208310613c8a5780518252602082019150602081019050602083039250613c67565b6001836020036101000a038019825116818451168082178552505050505050905001915050908152602001604051809103902060020154915050919050565b80600115156002826040518082805190602001908083835b60208310613d045780518252602082019150602081019050602083039250613ce1565b6001836020036101000a038019825116818451168082178552505050505050905001915050908152602001604051809103902060060160003373ffffffffffffffffffffffffffffffffffffffff1673ffffffffffffffffffffffffffffffffffffffff16815260200190815260200160002060009054906101000a900460ff16151514613dfa576040517f08c379a00000000000000000000000000000000000000000000000000000000081526004018080602001828103825260198152602001807f596f7520617265206e6f7420696e20746869732067726f75700000000000000081525060200191505060405180910390fd5b81600115156002826040518082805190602001908083835b60208310613e355780518252602082019150602081019050602083039250613e12565b6001836020036101000a038019825116818451168082178552505050505050905001915050908152602001604051809103902060030160009054906101000a900460ff16151514613eee576040517f08c379a00000000000000000000000000000000000000000000000000000000081526004018080602001828103825260128152602001807f47726f7570206973206e6f74206578697374000000000000000000000000000081525060200191505060405180910390fd5b6000600460003373ffffffffffffffffffffffffffffffffffffffff1673ffffffffffffffffffffffffffffffffffffffff16815260200190815260200160002054905080600460003373ffffffffffffffffffffffffffffffffffffffff1673ffffffffffffffffffffffffffffffffffffffff16815260200190815260200160002060008282540392505081905550806002856040518082805190602001908083835b60208310613fb65780518252602082019150602081019050602083039250613f93565b6001836020036101000a038019825116818451168082178552505050505050905001915050908152602001604051809103902060090160003373ffffffffffffffffffffffffffffffffffffffff1673ffffffffffffffffffffffffffffffffffffffff16815260200190815260200160002060008282540192505081905550600760009054906101000a900473ffffffffffffffffffffffffffffffffffffffff1673ffffffffffffffffffffffffffffffffffffffff166108fc829081150290604051600060405180830381858888f1935050505015801561409e573d6000803e3d6000fd5b5050505050565b81600115156002826040518082805190602001908083835b602083106140e057805182526020820191506020810190506020830392506140bd565b6001836020036101000a038019825116818451168082178552505050505050905001915050908152602001604051809103902060030160009054906101000a900460ff16151514614199576040517f08c379a00000000000000000000000000000000000000000000000000000000081526004018080602001828103825260128152602001807f47726f7570206973206e6f74206578697374000000000000000000000000000081525060200191505060405180910390fd5b600115156002846040518082805190602001908083835b602083106141d357805182526020820191506020810190506020830392506141b0565b6001836020036101000a038019825116818451168082178552505050505050905001915050908152602001604051809103902060060160003373ffffffffffffffffffffffffffffffffffffffff1673ffffffffffffffffffffffffffffffffffffffff16815260200190815260200160002060009054906101000a900460ff16151514156142ca576040517f08c379a000000000000000000000000000000000000000000000000000000000815260040180806020018281038252601d8152602001807f596f752061726520616c726561647920696e20746869732067726f757000000081525060200191505060405180910390fd5b6142d2615ba6565b6040518060c00160405280858152602001848152602001600081526020013373ffffffffffffffffffffffffffffffffffffffff168152602001600015158152602001600081525090506000846040518082805190602001908083835b60208310614352578051825260208201915060208101905060208303925061432f565b6001836020036101000a0380198251168184511680821785525050505050509050019150509081526020016040518091039020819080600181540180825580915050906001820390600052602060002090600602016000909192909190915060008201518160000190805190602001906143cd929190615b26565b5060208201518160010190805190602001906143ea929190615b26565b506040820151816002015560608201518160030160006101000a81548173ffffffffffffffffffffffffffffffffffffffff021916908373ffffffffffffffffffffffffffffffffffffffff16021790555060808201518160030160146101000a81548160ff02191690831515021790555060a0820151816004015550505080600160003373ffffffffffffffffffffffffffffffffffffffff1673ffffffffffffffffffffffffffffffffffffffff16815260200190815260200160002060008201518160000190805190602001906144c5929190615b26565b5060208201518160010190805190602001906144e2929190615b26565b506040820151816002015560608201518160030160006101000a81548173ffffffffffffffffffffffffffffffffffffffff021916908373ffffffffffffffffffffffffffffffffffffffff16021790555060808201518160030160146101000a81548160ff02191690831515021790555060a0820151816004015590505060016002856040518082805190602001908083835b602083106145995780518252602082019150602081019050602083039250614576565b6001836020036101000a0380198251168184511680821785525050505050509050019150509081526020016040518091039020600501600082825401925050819055507fabb03f37ae8c7352058cab765175b6cc2718a473dbfc45776176521ca1e5949c8484336040518080602001806020018473ffffffffffffffffffffffffffffffffffffffff1673ffffffffffffffffffffffffffffffffffffffff168152602001838103835286818151815260200191508051906020019080838360005b8381101561467657808201518184015260208101905061465b565b50505050905090810190601f1680156146a35780820380516001836020036101000a031916815260200191505b50838103825285818151815260200191508051906020019080838360005b838110156146dc5780820151818401526020810190506146c1565b50505050905090810190601f1680156147095780820380516001836020036101000a031916815260200191505b509550505050505060405180910390a150505050565b80600115156002826040518082805190602001908083835b6020831061475a5780518252602082019150602081019050602083039250614737565b6001836020036101000a038019825116818451168082178552505050505050905001915050908152602001604051809103902060060160003373ffffffffffffffffffffffffffffffffffffffff1673ffffffffffffffffffffffffffffffffffffffff16815260200190815260200160002060009054906101000a900460ff16151514614850576040517f08c379a00000000000000000000000000000000000000000000000000000000081526004018080602001828103825260198152602001807f596f7520617265206e6f7420696e20746869732067726f75700000000000000081525060200191505060405180910390fd5b81600115156002826040518082805190602001908083835b6020831061488b5780518252602082019150602081019050602083039250614868565b6001836020036101000a038019825116818451168082178552505050505050905001915050908152602001604051809103902060030160009054906101000a900460ff16151514614944576040517f08c379a00000000000000000000000000000000000000000000000000000000081526004018080602001828103825260128152602001807f47726f7570206973206e6f74206578697374000000000000000000000000000081525060200191505060405180910390fd5b60006002846040518082805190602001908083835b6020831061497c5780518252602082019150602081019050602083039250614959565b6001836020036101000a038019825116818451168082178552505050505050905001915050908152602001604051809103902060070160003373ffffffffffffffffffffffffffffffffffffffff1673ffffffffffffffffffffffffffffffffffffffff1681526020019081526020016000205414614a46576040517f08c379a000000000000000000000000000000000000000000000000000000000815260040180806020018281038252602b815260200180615c1a602b913960400191505060405180910390fd5b60006002846040518082805190602001908083835b60208310614a7e5780518252602082019150602081019050602083039250614a5b565b6001836020036101000a038019825116818451168082178552505050505050905001915050908152602001604051809103902060060160003373ffffffffffffffffffffffffffffffffffffffff1673ffffffffffffffffffffffffffffffffffffffff16815260200190815260200160002060006101000a81548160ff02191690831515021790555060016002846040518082805190602001908083835b60208310614b405780518252602082019150602081019050602083039250614b1d565b6001836020036101000a03801982511681845116808217855250505050505090500191505090815260200160405180910390206004016000828254039250508190555060006002846040518082805190602001908083835b60208310614bbb5780518252602082019150602081019050602083039250614b98565b6001836020036101000a038019825116818451168082178552505050505050905001915050908152602001604051809103902060080160003373ffffffffffffffffffffffffffffffffffffffff1673ffffffffffffffffffffffffffffffffffffffff1681526020019081526020016000205490506000811115614c82573373ffffffffffffffffffffffffffffffffffffffff166108fc829081150290604051600060405180830381858888f19350505050158015614c80573d6000803e3d6000fd5b505b50505050565b600760009054906101000a900473ffffffffffffffffffffffffffffffffffffffff1681565b80600115156002826040518082805190602001908083835b60208310614ce95780518252602082019150602081019050602083039250614cc6565b6001836020036101000a038019825116818451168082178552505050505050905001915050908152602001604051809103902060060160003373ffffffffffffffffffffffffffffffffffffffff1673ffffffffffffffffffffffffffffffffffffffff16815260200190815260200160002060009054906101000a900460ff16151514614ddf576040517f08c379a00000000000000000000000000000000000000000000000000000000081526004018080602001828103825260198152602001807f596f7520617265206e6f7420696e20746869732067726f75700000000000000081525060200191505060405180910390fd5b81600115156002826040518082805190602001908083835b60208310614e1a5780518252602082019150602081019050602083039250614df7565b6001836020036101000a038019825116818451168082178552505050505050905001915050908152602001604051809103902060030160009054906101000a900460ff16151514614ed3576040517f08c379a00000000000000000000000000000000000000000000000000000000081526004018080602001828103825260128152602001807f47726f7570206973206e6f74206578697374000000000000000000000000000081525060200191505060405180910390fd5b346002846040518082805190602001908083835b60208310614f0a5780518252602082019150602081019050602083039250614ee7565b6001836020036101000a0380198251168184511680821785525050505050509050019150509081526020016040518091039020600201541015614fb5576040517f08c379a000000000000000000000000000000000000000000000000000000000815260040180806020018281038252601a8152602001807f5468657265206973206e6f20656e6f7567682062616c616e636500000000000081525060200191505060405180910390fd5b346002846040518082805190602001908083835b60208310614fec5780518252602082019150602081019050602083039250614fc9565b6001836020036101000a038019825116818451168082178552505050505050905001915050908152602001604051809103902060020160008282540392505081905550346002846040518082805190602001908083835b602083106150665780518252602082019150602081019050602083039250615043565b6001836020036101000a038019825116818451168082178552505050505050905001915050908152602001604051809103902060070160003373ffffffffffffffffffffffffffffffffffffffff1673ffffffffffffffffffffffffffffffffffffffff168152602001908152602001600020600082825401925050819055503373ffffffffffffffffffffffffffffffffffffffff166108fc349081150290604051600060405180830381858888f1935050505015801561512c573d6000803e3d6000fd5b507f2e35ef503c2df7525f8147c0e59421bce400064713f992b10d1092456f6c6d6233346002866040518082805190602001908083835b602083106151865780518252602082019150602081019050602083039250615163565b6001836020036101000a038019825116818451168082178552505050505050905001915050908152602001604051809103902060020154604051808473ffffffffffffffffffffffffffffffffffffffff1673ffffffffffffffffffffffffffffffffffffffff168152602001838152602001828152602001935050505060405180910390a1505050565b6060600080600080866040518082805190602001908083835b6020831061524d578051825260208201915060208101905060208303925061522a565b6001836020036101000a0380198251168184511680821785525050505050509050019150509081526020016040518091039020858154811061528b57fe5b90600052602060002090600602016001016000876040518082805190602001908083835b602083106152d257805182526020820191506020810190506020830392506152af565b6001836020036101000a0380198251168184511680821785525050505050509050019150509081526020016040518091039020868154811061531057fe5b906000526020600020906006020160030160009054906101000a900473ffffffffffffffffffffffffffffffffffffffff166000886040518082805190602001908083835b602083106153785780518252602082019150602081019050602083039250615355565b6001836020036101000a038019825116818451168082178552505050505050905001915050908152602001604051809103902087815481106153b657fe5b906000526020600020906006020160030160149054906101000a900460ff166000896040518082805190602001908083835b6020831061540b57805182526020820191506020810190506020830392506153e8565b6001836020036101000a0380198251168184511680821785525050505050509050019150509081526020016040518091039020888154811061544957fe5b906000526020600020906006020160040154838054600181600116156101000203166002900480601f0160208091040260200160405190810160405280929190818152602001828054600181600116156101000203166002900480156154f05780601f106154c5576101008083540402835291602001916154f0565b820191906000526020600020905b8154815290600101906020018083116154d357829003601f168201915b50505050509350935093509350935092959194509250565b615510615ba6565b6000836040518082805190602001908083835b602083106155465780518252602082019150602081019050602083039250615523565b6001836020036101000a0380198251168184511680821785525050505050509050019150509081526020016040518091039020828154811061558457fe5b90600052602060002090600602016040518060c0016040529081600082018054600181600116156101000203166002900480601f0160208091040260200160405190810160405280929190818152602001828054600181600116156101000203166002900480156156365780601f1061560b57610100808354040283529160200191615636565b820191906000526020600020905b81548152906001019060200180831161561957829003601f168201915b50505050508152602001600182018054600181600116156101000203166002900480601f0160208091040260200160405190810160405280929190818152602001828054600181600116156101000203166002900480156156d85780601f106156ad576101008083540402835291602001916156d8565b820191906000526020600020905b8154815290600101906020018083116156bb57829003601f168201915b50505050508152602001600282015481526020016003820160009054906101000a900473ffffffffffffffffffffffffffffffffffffffff1673ffffffffffffffffffffffffffffffffffffffff1673ffffffffffffffffffffffffffffffffffffffff1681526020016003820160149054906101000a900460ff1615151515815260200160048201548152505090506001600282600001516040518082805190602001908083835b602083106157a45780518252602082019150602081019050602083039250615781565b6001836020036101000a038019825116818451168082178552505050505050905001915050908152602001604051809103902060060160008673ffffffffffffffffffffffffffffffffffffffff1673ffffffffffffffffffffffffffffffffffffffff16815260200190815260200160002060006101000a81548160ff02191690831515021790555060016002846040518082805190602001908083835b602083106158665780518252602082019150602081019050602083039250615843565b6001836020036101000a038019825116818451168082178552505050505050905001915050908152602001604051809103902060040160008282540192505081905550604051806060016040528082600001518152602001826060015173ffffffffffffffffffffffffffffffffffffffff168152602001826020015181525060036000836060015173ffffffffffffffffffffffffffffffffffffffff1673ffffffffffffffffffffffffffffffffffffffff1681526020019081526020016000206000820151816000019080519060200190615945929190615b26565b5060208201518160010160006101000a81548173ffffffffffffffffffffffffffffffffffffffff021916908373ffffffffffffffffffffffffffffffffffffffff16021790555060408201518160020190805190602001906159a9929190615b26565b5090505060016002846040518082805190602001908083835b602083106159e557805182526020820191506020810190506020830392506159c2565b6001836020036101000a038019825116818451168082178552505050505050905001915050908152602001604051809103902060060160003373ffffffffffffffffffffffffffffffffffffffff1673ffffffffffffffffffffffffffffffffffffffff16815260200190815260200160002060006101000a81548160ff0219169083151502179055507f81e85c1fc03ee803c33d47b5ad61cc0f4e29de8680a46640ec63bc78b18b892684604051808273ffffffffffffffffffffffffffffffffffffffff1673ffffffffffffffffffffffffffffffffffffffff16815260200191505060405180910390a150505050565b6040518060c0016040528060608152602001600073ffffffffffffffffffffffffffffffffffffffff1681526020016000815260200160001515815260200160008152602001600081525090565b828054600181600116156101000203166002900490600052602060002090601f016020900481019282601f10615b6757805160ff1916838001178555615b95565b82800160010185558215615b95579182015b82811115615b94578251825591602001919060010190615b79565b5b509050615ba29190615bf4565b5090565b6040518060c00160405280606081526020016060815260200160008152602001600073ffffffffffffffffffffffffffffffffffffffff168152602001600015158152602001600081525090565b615c1691905b80821115615c12576000816000905550600101615bfa565b5090565b9056fe596f752063616e206e6f74206c656176652066726f6d2067726f75702e20596f7520686176652064656274a265627a7a7231582090b58db1b40eb5970a16516924ce5f116b4b213c86ffcdb81dacbd27f9c5f38b64736f6c634300050c0032",
  "source": "pragma solidity ^0.5.11;\n\n/**************************************************************\n                    MAIN CONTRACT\n***************************************************************/\n\n/// @title Lending and Borrowing Platform\n\ncontract lendingBorrowing {\n    /// @author Murat eliktepe\n    \n    struct Participant {\n        string groupNo;\n        address memberAddress;\n        string nameSurname;\n    }   \n    \n    struct Group {\n        string groupId;\n        address creator;\n        uint groupBalance;\n        bool isOpen;\n        uint numberOfMember;\n        uint requestCount;\n        \n        mapping(address => bool) members;\n        mapping(address => uint) borrowers;\n        \n        mapping(address => uint) depositGroupArray;\n        mapping(address => uint) depositCompoundArray;\n    }\n    \n    struct Request {\n        string groupId;\n        string nameSurname;\n        uint requestCount;\n        address candidate;\n        bool complete;\n        uint approvalCount;\n        mapping(address => bool) approvals;\n    }\n\n    /* @notice Two types of request array exist. Because, in front end side, we need to return all requests.\n        but in solidity, there is no simple way to return struct array, therefor RequestArray mapping is needed.\n    */\n    mapping(string => Request[]) private requestsArray;\n    mapping(address => Request) private requestsAddressArray;\n    \n    mapping(string => Group) public groups;\n    mapping(address => Participant) public participants;\n\n    mapping(address => uint) private depositCompoundPending;\n    \n    /// @notice  This split rates are hard-coded, but normally groups creator will decide to these proportions\n    uint sudoSplitRateForGroup = 40;\n    uint sudoSplitRateForCompound = 60;\n    \n    /// @notice  Let say this is compound contract address which we will deposit money\n    address payable public compoundAddress = 0x877427CCBd3061Affd5c6518bc87799B9Cf3C408;\n    \n    event LogCreatedRequest(string _groupId, string _nameSurname, address _participantAddress);\n    event LogCreatedGroup(string _groupId, uint numberOfMember, address _creator);\n    event LogApprovedRequest(address _approverAddress, uint approvalCount);\n    event LogAddedCandidateToGroup(address _memberAddress);\n    event LogLendingTransaction(address _memberAddress, uint amountLended, uint groupBalance);\n    event LogBorrowingTransaction(address _memberAddress, uint amountBorrowed, uint groupBalance);\n    event LogPayDebtedBack(address _memberAddress, uint amountPayedBack, uint remainDebt, uint groupBalance);\n    event LogWithdraw(address _memberAddress, uint withdrawedAmount, uint groupBalance);\n\n    modifier checkGroupOpen(string memory _groupId) {\n        require(groups[_groupId].isOpen == true, \"Group is not exist\");\n        _;\n    }\n    \n    modifier checkEnrolled(string memory _groupId) {\n        require(groups[_groupId].members[msg.sender] == true, \"You are not in this group\");\n        _;\n    }\n    \n    /*\n    @notice This function create a group with given parameters. First it checks that is there any group\n    created with the same name. Because group's name are unique id. \n    After group is created, it adds msg.sender to group as a group member.\n    \n    @params _groupId and nameSurname will be come from front-end\n    */\n    function createGroup(string memory _groupId, string memory nameSurname)\n    public\n    {\n        // check that is there any group with same name\n        require(!groups[_groupId].isOpen,\"group is already created\");\n        \n        // Create a new group\n        Group memory newGroup = Group({groupId: _groupId, creator: msg.sender, groupBalance: 0, isOpen: true, numberOfMember: 1, requestCount: 0});\n        groups[_groupId] = newGroup;\n        emit LogCreatedGroup(_groupId, groups[_groupId].numberOfMember, groups[_groupId].creator);\n\n        // add msg.sender to group as a member\n        groups[_groupId].members[msg.sender] = true;\n        participants[msg.sender] = Participant(_groupId, msg.sender, nameSurname);\n    }\n    \n    /*\n    @notice This function allow members to leave from group. But it makes some controlls. \n    If a member has debt, this member cannot leave from group.\n    If member has not debt, function check that whether member has lendedAmount or not in group. Then if there is, send it to member's address\n    */\n    function leaveGroup(string memory _groupId)\n    public \n    checkEnrolled(_groupId)\n    checkGroupOpen(_groupId)\n    {\n        // check that member has no debt\n        require(groups[_groupId].borrowers[msg.sender] == 0, \"You can not leave from group. You have debt\");\n        \n        groups[_groupId].members[msg.sender] = false;\n        groups[_groupId].numberOfMember -= 1;\n        \n        // get the amount member lended\n        uint amountLended = groups[_groupId].depositGroupArray[msg.sender];\n        \n        // if lended amount is exist, send back to msg.sender\n        if (amountLended > 0) {\n            msg.sender.transfer(amountLended);\n        }\n    }\n    \n    /*\n    @notice This function create a request to enrolling group. This request is created with given parameters.\n    @params _groupId and _nameSurname is required parameters for enrolling\n    @notice after request is created, voting process is begin.\n    */\n    function enroll(string memory _groupId, string memory _nameSurname) \n    public \n    checkGroupOpen(_groupId)\n    {\n        // check is already enrolled to group\n        require(groups[_groupId].members[msg.sender] != true, \"You are already in this group\");\n        \n        // Create Request to enroll\n        Request memory newRequest = Request({\n            groupId: _groupId,\n            nameSurname: _nameSurname,\n            candidate: msg.sender,\n            complete: false,\n            approvalCount: 0,\n            requestCount: 0\n        });\n        requestsArray[_groupId].push(newRequest);\n        requestsAddressArray[msg.sender] = newRequest;\n        groups[_groupId].requestCount += 1;\n        \n        emit LogCreatedRequest(_groupId, _nameSurname, msg.sender);\n        \n    }\n    \n    /*\n    @notice Group's members can approve a request via this function. If 80% of group members voted as yes,\n    then this member is added to group via calling and external function\n    */\n    function approveRequest(address _candidateAddress, string memory _groupId, uint _id) \n    public \n    {\n        require(requestsAddressArray[_candidateAddress].complete == false);\n        Request storage request = requestsAddressArray[_candidateAddress];\n        \n        \n        // check that this member did not approve \n        require(!request.approvals[_candidateAddress]);\n        \n        request.approvals[msg.sender] == true;\n        request.approvalCount += 1;\n        requestsArray[_groupId][_id].approvalCount += 1;\n        \n        // if 80% of members approve that candidate can enroll, then add candidate to group\n        if  ((groups[_groupId].numberOfMember * 80) / 100 < request.approvalCount) {\n            addCandidateToGroup(_candidateAddress, _groupId, _id);\n            request.approvalCount += 1;\n            request.complete = true;\n            requestsArray[_groupId][_id].complete = true;\n            groups[_groupId].requestCount -= 1;\n        }\n        \n        emit LogApprovedRequest(msg.sender, request.approvalCount);\n        \n    }\n    \n    /*\n    @notice This function is a private function and it just can call from inside approveRequest function.\n    */\n    function addCandidateToGroup(address _memberAddress, string memory _groupId, uint _id) \n    private \n    {\n        // adding the participant to group\n        Request memory request = requestsArray[_groupId][_id];\n        groups[request.groupId].members[_memberAddress] = true;\n        groups[_groupId].numberOfMember += 1;\n        \n        participants[request.candidate] = Participant(request.groupId, request.candidate, request.nameSurname);\n        groups[_groupId].members[msg.sender] = true;\n        \n        emit LogAddedCandidateToGroup(_memberAddress);\n        \n    }\n    \n    /*\n    @notice This function allow members to lend their money according to lend and deposit rate identified from begin.\n    it splits sent money two seperate value. \n    For group, it directly write it to group's balance and member lended amount array\n    For compound, it write amount to pending array, after that user needs to call depositToCompound function to send money to compound\n    */\n    function lending(string memory _groupId) \n    public \n    payable\n    checkEnrolled(_groupId) \n    checkGroupOpen(_groupId)\n    {\n        require(msg.value >= 0, \"Please send a valid amount\");\n        \n        uint amountForGroup = (msg.value * sudoSplitRateForGroup) / 100;\n        uint amountForCompound = (msg.value * sudoSplitRateForCompound) / 100;\n        \n        groups[_groupId].groupBalance += amountForGroup;\n        groups[_groupId].depositGroupArray[msg.sender] += amountForGroup;\n        depositCompoundPending[msg.sender] += amountForCompound;\n        \n        emit LogLendingTransaction(msg.sender, msg.value, groups[_groupId].groupBalance);\n        \n    }\n    \n    /*\n    @notice This function deposit money from pending array to compound. Before doing this,\n    it check whether member has money in array or not\n    */\n    function depositToCompound(string memory _groupId) \n    public \n    payable\n    checkEnrolled(_groupId) \n    checkGroupOpen(_groupId)\n    {\n        uint amountForCompound = depositCompoundPending[msg.sender];\n        depositCompoundPending[msg.sender] -= amountForCompound;\n        groups[_groupId].depositCompoundArray[msg.sender] += amountForCompound;\n        \n        address(compoundAddress).transfer(amountForCompound);\n        \n    }\n    \n    /*\n    @notice This function allow members to borrow moeny from group. \n    First it checks that group has enough balance, then it sends money to member\n    */\n    function borrowing(string memory _groupId) \n    public \n    payable\n    checkEnrolled(_groupId)\n    checkGroupOpen(_groupId)\n    {\n        // check is there enough amount\n        require(groups[_groupId].groupBalance >= msg.value, \"There is no enough balance\");\n\n        // firstly, substrack group balance  \n        groups[_groupId].groupBalance -= msg.value;\n        \n        // add the member to borrowers\n        groups[_groupId].borrowers[msg.sender] += msg.value;\n        \n        // Transfer the value to msg.sender\n        address(msg.sender).transfer(msg.value);\n        \n        emit LogBorrowingTransaction(msg.sender, msg.value, groups[_groupId].groupBalance);\n        \n    }\n    \n    /*\n    @notice This function allow members to pey their debt back. It behave according to sent value\n    If value is lower than debt, it substrack the value from borrower array for msg.sender and add this value to group balance.\n    If value is higher than debt, it substrack the value from borrowers array for msg.sender and write the exceeds amount to lenders array for msg.sender\n    */\n    function payDebtBack(string memory _groupId)\n    public\n    payable\n    checkEnrolled(_groupId)\n    checkGroupOpen(_groupId)\n    returns(uint)\n    {\n        uint debt = groups[_groupId].borrowers[msg.sender];\n        \n        // check member has debt\n        require(debt != 0, \"you do not have debt\");\n        \n        if (msg.value <= debt) {\n            // for example:  debt = 100,  amount = 50\n            groups[_groupId].groupBalance += msg.value;\n            groups[_groupId].borrowers[msg.sender] -= msg.value;\n\n            debt -= msg.value;\n            \n            emit LogPayDebtedBack(msg.sender, msg.value, debt, groups[_groupId].groupBalance);\n\n            return debt;\n            \n        }else {\n            // for example:  debt = 100,  amount = 150\n        \n            groups[_groupId].groupBalance += msg.value;\n            groups[_groupId].borrowers[msg.sender] = 0;\n            \n            // make debt of this member 0        \n            debt = 0;\n            \n            // lend amount exceed the debt to group\n            msg.sender.transfer(msg.value - debt);\n            \n            emit LogPayDebtedBack(msg.sender, msg.value, debt, groups[_groupId].groupBalance);\n            \n            return debt;\n        }\n        \n    }\n    \n    /*\n    @notice This function allow members to withdraw all amount lended. \n    */\n    function withdraw(string memory _groupId)\n    public\n    payable\n    checkEnrolled(_groupId)\n    checkGroupOpen(_groupId)\n    returns(uint)\n    {\n        uint debt = groups[_groupId].borrowers[msg.sender];\n        // check member has debt\n        require(debt == 0, \"you have debt\");\n\n        uint lendedAmount = groups[_groupId].depositGroupArray[msg.sender];\n        require(lendedAmount != 0, \"You do not have lended money\");\n        require(groups[_groupId].groupBalance >= msg.value, \"There is no enough balance\");\n        \n        groups[_groupId].depositGroupArray[msg.sender] -= msg.value;\n        groups[_groupId].groupBalance -= msg.value;\n        \n        msg.sender.transfer(msg.value);\n        \n        emit LogWithdraw(msg.sender, msg.value, groups[_groupId].groupBalance);\n        \n        return lendedAmount;\n    }\n    \n    \n    function checkParticipant(string memory _groupId)\n    public \n    view \n    checkGroupOpen(_groupId)\n    returns(bool) \n    {\n        return groups[_groupId].members[msg.sender];\n    }\n    \n    function checkGroupBalance(string memory _groupId)\n    public \n    view \n    checkGroupOpen(_groupId)\n    returns(uint) \n    {\n        return groups[_groupId].groupBalance;\n    }\n\n    function checkGroup(string memory _groupId)\n    public \n    view\n    returns(string memory) \n    {\n        return groups[_groupId].groupId;\n    }\n    \n    function checkMemberDebtStatus(string memory _groupId)\n    public \n    view \n    checkGroupOpen(_groupId)\n    returns(uint, uint, uint) \n    {\n        return (uint(groups[_groupId].borrowers[msg.sender]), uint(groups[_groupId].depositGroupArray[msg.sender]), uint(groups[_groupId].depositCompoundArray[msg.sender]));\n    }\n\n    function getRequest(string memory _groupId, uint _id) \n    public \n    view \n    returns(string memory, address, bool, uint) {\n        return (requestsArray[_groupId][_id].nameSurname, requestsArray[_groupId][_id].candidate, requestsArray[_groupId][_id].complete, requestsArray[_groupId][_id].approvalCount);\n    }\n    \n    function getRequestArrayLength(string memory _groupId) \n    public \n    view \n    returns(uint) {\n        return (requestsArray[_groupId].length);\n    }\n    \n    function getDepositPending(address _memberAddress) \n    public \n    view \n    returns(uint) {\n        return (depositCompoundPending[_memberAddress]);\n    }\n    \n}\n",
  "sourcePath": "/Users/murat.celiktepe/Documents/GitHub/ConsensysFinalProject/lendingBorrowing/contracts/lendingBorrowing.sol",
  "compiler": {
    "name": "solc",
    "version": "0.5.12+commit.7709ece9.Emscripten.clang"
  },
  "schemaVersion": "3.0.20",
  "updatedAt": "2020-02-01T12:03:21.847Z",
  "devdoc": {
    "methods": {},
    "title": "Lending and Borrowing Platform"
  },
  "userdoc": {
    "methods": {}
  }
}