{
  "contractName": "lendingBorrowing",
  "abi": [
    {
      "anonymous": false,
      "inputs": [
        {
          "indexed": false,
          "internalType": "address",
          "name": "_memberAddress",
          "type": "address"
        }
      ],
      "name": "LogAddedCandidateToGroup",
      "type": "event"
    },
    {
      "anonymous": false,
      "inputs": [
        {
          "indexed": false,
          "internalType": "address",
          "name": "_approverAddress",
          "type": "address"
        },
        {
          "indexed": false,
          "internalType": "uint256",
          "name": "approvalCount",
          "type": "uint256"
        }
      ],
      "name": "LogApprovedRequest",
      "type": "event"
    },
    {
      "anonymous": false,
      "inputs": [
        {
          "indexed": false,
          "internalType": "address",
          "name": "_memberAddress",
          "type": "address"
        },
        {
          "indexed": false,
          "internalType": "uint256",
          "name": "amountBorrowed",
          "type": "uint256"
        },
        {
          "indexed": false,
          "internalType": "uint256",
          "name": "groupBalance",
          "type": "uint256"
        }
      ],
      "name": "LogBorrowingTransaction",
      "type": "event"
    },
    {
      "anonymous": false,
      "inputs": [
        {
          "indexed": false,
          "internalType": "string",
          "name": "_groupId",
          "type": "string"
        },
        {
          "indexed": false,
          "internalType": "uint256",
          "name": "numberOfMember",
          "type": "uint256"
        },
        {
          "indexed": false,
          "internalType": "address",
          "name": "_creator",
          "type": "address"
        }
      ],
      "name": "LogCreatedGroup",
      "type": "event"
    },
    {
      "anonymous": false,
      "inputs": [
        {
          "indexed": false,
          "internalType": "string",
          "name": "_groupId",
          "type": "string"
        },
        {
          "indexed": false,
          "internalType": "string",
          "name": "_nameSurname",
          "type": "string"
        },
        {
          "indexed": false,
          "internalType": "address",
          "name": "_participantAddress",
          "type": "address"
        }
      ],
      "name": "LogCreatedRequest",
      "type": "event"
    },
    {
      "anonymous": false,
      "inputs": [
        {
          "indexed": false,
          "internalType": "address",
          "name": "_memberAddress",
          "type": "address"
        },
        {
          "indexed": false,
          "internalType": "uint256",
          "name": "amountLended",
          "type": "uint256"
        },
        {
          "indexed": false,
          "internalType": "uint256",
          "name": "groupBalance",
          "type": "uint256"
        }
      ],
      "name": "LogLendingTransaction",
      "type": "event"
    },
    {
      "anonymous": false,
      "inputs": [
        {
          "indexed": false,
          "internalType": "address",
          "name": "_memberAddress",
          "type": "address"
        },
        {
          "indexed": false,
          "internalType": "uint256",
          "name": "amountPayedBack",
          "type": "uint256"
        },
        {
          "indexed": false,
          "internalType": "uint256",
          "name": "remainDebt",
          "type": "uint256"
        },
        {
          "indexed": false,
          "internalType": "uint256",
          "name": "groupBalance",
          "type": "uint256"
        }
      ],
      "name": "LogPayDebtedBack",
      "type": "event"
    },
    {
      "anonymous": false,
      "inputs": [
        {
          "indexed": false,
          "internalType": "address",
          "name": "_memberAddress",
          "type": "address"
        },
        {
          "indexed": false,
          "internalType": "uint256",
          "name": "withdrawedAmount",
          "type": "uint256"
        },
        {
          "indexed": false,
          "internalType": "uint256",
          "name": "groupBalance",
          "type": "uint256"
        }
      ],
      "name": "LogWithdraw",
      "type": "event"
    },
    {
      "constant": true,
      "inputs": [
        {
          "internalType": "string",
          "name": "",
          "type": "string"
        }
      ],
      "name": "groups",
      "outputs": [
        {
          "internalType": "string",
          "name": "groupId",
          "type": "string"
        },
        {
          "internalType": "address",
          "name": "creator",
          "type": "address"
        },
        {
          "internalType": "uint256",
          "name": "groupBalance",
          "type": "uint256"
        },
        {
          "internalType": "bool",
          "name": "isOpen",
          "type": "bool"
        },
        {
          "internalType": "uint256",
          "name": "numberOfMember",
          "type": "uint256"
        },
        {
          "internalType": "uint256",
          "name": "requestCount",
          "type": "uint256"
        }
      ],
      "payable": false,
      "stateMutability": "view",
      "type": "function"
    },
    {
      "constant": false,
      "inputs": [
        {
          "internalType": "string",
          "name": "_groupId",
          "type": "string"
        },
        {
          "internalType": "string",
          "name": "nameSurname",
          "type": "string"
        }
      ],
      "name": "createGroup",
      "outputs": [],
      "payable": false,
      "stateMutability": "nonpayable",
      "type": "function"
    },
    {
      "constant": false,
      "inputs": [
        {
          "internalType": "string",
          "name": "_groupId",
          "type": "string"
        }
      ],
      "name": "leaveGroup",
      "outputs": [],
      "payable": false,
      "stateMutability": "nonpayable",
      "type": "function"
    },
    {
      "constant": false,
      "inputs": [
        {
          "internalType": "string",
          "name": "_groupId",
          "type": "string"
        },
        {
          "internalType": "string",
          "name": "_nameSurname",
          "type": "string"
        }
      ],
      "name": "enroll",
      "outputs": [],
      "payable": false,
      "stateMutability": "nonpayable",
      "type": "function"
    },
    {
      "constant": false,
      "inputs": [
        {
          "internalType": "address",
          "name": "_candidateAddress",
          "type": "address"
        },
        {
          "internalType": "string",
          "name": "_groupId",
          "type": "string"
        },
        {
          "internalType": "uint256",
          "name": "_id",
          "type": "uint256"
        }
      ],
      "name": "approveRequest",
      "outputs": [],
      "payable": false,
      "stateMutability": "nonpayable",
      "type": "function"
    },
    {
      "constant": false,
      "inputs": [
        {
          "internalType": "string",
          "name": "_groupId",
          "type": "string"
        }
      ],
      "name": "lending",
      "outputs": [],
      "payable": true,
      "stateMutability": "payable",
      "type": "function"
    },
    {
      "constant": false,
      "inputs": [
        {
          "internalType": "string",
          "name": "_groupId",
          "type": "string"
        }
      ],
      "name": "borrowing",
      "outputs": [],
      "payable": true,
      "stateMutability": "payable",
      "type": "function"
    },
    {
      "constant": false,
      "inputs": [
        {
          "internalType": "string",
          "name": "_groupId",
          "type": "string"
        }
      ],
      "name": "payDebtBack",
      "outputs": [
        {
          "internalType": "uint256",
          "name": "",
          "type": "uint256"
        }
      ],
      "payable": true,
      "stateMutability": "payable",
      "type": "function"
    },
    {
      "constant": false,
      "inputs": [
        {
          "internalType": "string",
          "name": "_groupId",
          "type": "string"
        }
      ],
      "name": "withdraw",
      "outputs": [
        {
          "internalType": "uint256",
          "name": "",
          "type": "uint256"
        }
      ],
      "payable": true,
      "stateMutability": "payable",
      "type": "function"
    },
    {
      "constant": true,
      "inputs": [
        {
          "internalType": "string",
          "name": "_groupId",
          "type": "string"
        }
      ],
      "name": "checkParticipant",
      "outputs": [
        {
          "internalType": "bool",
          "name": "",
          "type": "bool"
        }
      ],
      "payable": false,
      "stateMutability": "view",
      "type": "function"
    },
    {
      "constant": true,
      "inputs": [
        {
          "internalType": "string",
          "name": "_groupId",
          "type": "string"
        }
      ],
      "name": "checkGroupBalance",
      "outputs": [
        {
          "internalType": "uint256",
          "name": "",
          "type": "uint256"
        }
      ],
      "payable": false,
      "stateMutability": "view",
      "type": "function"
    },
    {
      "constant": true,
      "inputs": [
        {
          "internalType": "string",
          "name": "_groupId",
          "type": "string"
        }
      ],
      "name": "checkGroup",
      "outputs": [
        {
          "internalType": "string",
          "name": "",
          "type": "string"
        }
      ],
      "payable": false,
      "stateMutability": "view",
      "type": "function"
    },
    {
      "constant": true,
      "inputs": [
        {
          "internalType": "string",
          "name": "_groupId",
          "type": "string"
        }
      ],
      "name": "getGroup",
      "outputs": [
        {
          "internalType": "string",
          "name": "",
          "type": "string"
        },
        {
          "internalType": "address",
          "name": "",
          "type": "address"
        },
        {
          "internalType": "bool",
          "name": "",
          "type": "bool"
        },
        {
          "internalType": "uint256",
          "name": "",
          "type": "uint256"
        },
        {
          "internalType": "uint256",
          "name": "",
          "type": "uint256"
        }
      ],
      "payable": false,
      "stateMutability": "view",
      "type": "function"
    },
    {
      "constant": true,
      "inputs": [
        {
          "internalType": "string",
          "name": "_groupId",
          "type": "string"
        }
      ],
      "name": "checkMemberDebtStatus",
      "outputs": [
        {
          "internalType": "uint256",
          "name": "",
          "type": "uint256"
        },
        {
          "internalType": "uint256",
          "name": "",
          "type": "uint256"
        }
      ],
      "payable": false,
      "stateMutability": "view",
      "type": "function"
    },
    {
      "constant": true,
      "inputs": [
        {
          "internalType": "string",
          "name": "_groupId",
          "type": "string"
        },
        {
          "internalType": "uint256",
          "name": "_id",
          "type": "uint256"
        }
      ],
      "name": "getRequest",
      "outputs": [
        {
          "internalType": "string",
          "name": "",
          "type": "string"
        },
        {
          "internalType": "address",
          "name": "",
          "type": "address"
        },
        {
          "internalType": "bool",
          "name": "",
          "type": "bool"
        },
        {
          "internalType": "uint256",
          "name": "",
          "type": "uint256"
        }
      ],
      "payable": false,
      "stateMutability": "view",
      "type": "function"
    }
  ],
  "bytecode": "0x608060405234801561001057600080fd5b506154bc806100206000396000f3fe6080604052600436106100e85760003560e01c80636b52230b1161008a578063abef281e11610059578063abef281e14610c6a578063b25ed5a314610df7578063c7cd80e714610ebf578063cf05ed4214610f7a576100e8565b80636b52230b146107b85780636d2224a21461094c57806375d7571214610a2f57806395bec39514610b0b576100e8565b806331fb67c2116100c657806331fb67c2146103f95780633db7484b146104c8578063400b6fdb1461060957806350f67e7f146106d8576100e8565b806319153dd9146100ed5780631e4a97dd146101a85780632ff72fa014610307575b600080fd5b6101a66004803603602081101561010357600080fd5b810190808035906020019064010000000081111561012057600080fd5b82018360208201111561013257600080fd5b8035906020019184600183028401116401000000008311171561015457600080fd5b91908080601f016020809104026020016040519081016040528093929190818152602001838380828437600081840152601f19601f82011690508083019250505050505050919291929050505061110a565b005b3480156101b457600080fd5b50610305600480360360408110156101cb57600080fd5b81019080803590602001906401000000008111156101e857600080fd5b8201836020820111156101fa57600080fd5b8035906020019184600183028401116401000000008311171561021c57600080fd5b91908080601f016020809104026020016040519081016040528093929190818152602001838380828437600081840152601f19601f8201169050808301925050505050505091929192908035906020019064010000000081111561027f57600080fd5b82018360208201111561029157600080fd5b803590602001918460018302840111640100000000831117156102b357600080fd5b91908080601f016020809104026020016040519081016040528093929190818152602001838380828437600081840152601f19601f8201169050808301925050505050505091929192905050506115b2565b005b34801561031357600080fd5b506103f76004803603606081101561032a57600080fd5b81019080803573ffffffffffffffffffffffffffffffffffffffff1690602001909291908035906020019064010000000081111561036757600080fd5b82018360208201111561037957600080fd5b8035906020019184600183028401116401000000008311171561039b57600080fd5b91908080601f016020809104026020016040519081016040528093929190818152602001838380828437600081840152601f19601f82011690508083019250505050505050919291929080359060200190929190505050611c4e565b005b6104b26004803603602081101561040f57600080fd5b810190808035906020019064010000000081111561042c57600080fd5b82018360208201111561043e57600080fd5b8035906020019184600183028401116401000000008311171561046057600080fd5b91908080601f016020809104026020016040519081016040528093929190818152602001838380828437600081840152601f19601f8201169050808301925050505050505091929192905050506120db565b6040518082815260200191505060405180910390f35b3480156104d457600080fd5b5061058e600480360360208110156104eb57600080fd5b810190808035906020019064010000000081111561050857600080fd5b82018360208201111561051a57600080fd5b8035906020019184600183028401116401000000008311171561053c57600080fd5b91908080601f016020809104026020016040519081016040528093929190818152602001838380828437600081840152601f19601f82011690508083019250505050505050919291929050505061263f565b6040518080602001828103825283818151815260200191508051906020019080838360005b838110156105ce5780820151818401526020810190506105b3565b50505050905090810190601f1680156105fb5780820380516001836020036101000a031916815260200191505b509250505060405180910390f35b6106c26004803603602081101561061f57600080fd5b810190808035906020019064010000000081111561063c57600080fd5b82018360208201111561064e57600080fd5b8035906020019184600183028401116401000000008311171561067057600080fd5b91908080601f016020809104026020016040519081016040528093929190818152602001838380828437600081840152601f19601f82011690508083019250505050505050919291929050505061274d565b6040518082815260200191505060405180910390f35b3480156106e457600080fd5b5061079e600480360360208110156106fb57600080fd5b810190808035906020019064010000000081111561071857600080fd5b82018360208201111561072a57600080fd5b8035906020019184600183028401116401000000008311171561074c57600080fd5b91908080601f016020809104026020016040519081016040528093929190818152602001838380828437600081840152601f19601f820116905080830192505050505050509192919290505050612dd6565b604051808215151515815260200191505060405180910390f35b3480156107c457600080fd5b5061087e600480360360208110156107db57600080fd5b81019080803590602001906401000000008111156107f857600080fd5b82018360208201111561080a57600080fd5b8035906020019184600183028401116401000000008311171561082c57600080fd5b91908080601f016020809104026020016040519081016040528093929190818152602001838380828437600081840152601f19601f820116905080830192505050505050509192919290505050612f19565b60405180806020018773ffffffffffffffffffffffffffffffffffffffff1673ffffffffffffffffffffffffffffffffffffffff16815260200186815260200185151515158152602001848152602001838152602001828103825288818151815260200191508051906020019080838360005b8381101561090c5780820151818401526020810190506108f1565b50505050905090810190601f1680156109395780820380516001836020036101000a031916815260200191505b5097505050505050505060405180910390f35b34801561095857600080fd5b50610a126004803603602081101561096f57600080fd5b810190808035906020019064010000000081111561098c57600080fd5b82018360208201111561099e57600080fd5b803590602001918460018302840111640100000000831117156109c057600080fd5b91908080601f016020809104026020016040519081016040528093929190818152602001838380828437600081840152601f19601f820116905080830192505050505050509192919290505050613030565b604051808381526020018281526020019250505060405180910390f35b348015610a3b57600080fd5b50610af560048036036020811015610a5257600080fd5b8101908080359060200190640100000000811115610a6f57600080fd5b820183602082011115610a8157600080fd5b80359060200191846001830284011164010000000083111715610aa357600080fd5b91908080601f016020809104026020016040519081016040528093929190818152602001838380828437600081840152601f19601f820116905080830192505050505050509192919290505050613285565b6040518082815260200191505060405180910390f35b348015610b1757600080fd5b50610c6860048036036040811015610b2e57600080fd5b8101908080359060200190640100000000811115610b4b57600080fd5b820183602082011115610b5d57600080fd5b80359060200191846001830284011164010000000083111715610b7f57600080fd5b91908080601f016020809104026020016040519081016040528093929190818152602001838380828437600081840152601f19601f82011690508083019250505050505050919291929080359060200190640100000000811115610be257600080fd5b820183602082011115610bf457600080fd5b80359060200191846001830284011164010000000083111715610c1657600080fd5b91908080601f016020809104026020016040519081016040528093929190818152602001838380828437600081840152601f19601f8201169050808301925050505050505091929192905050506133f0565b005b348015610c7657600080fd5b50610d3060048036036020811015610c8d57600080fd5b8101908080359060200190640100000000811115610caa57600080fd5b820183602082011115610cbc57600080fd5b80359060200191846001830284011164010000000083111715610cde57600080fd5b91908080601f016020809104026020016040519081016040528093929190818152602001838380828437600081840152601f19601f820116905080830192505050505050509192919290505050613b8c565b60405180806020018673ffffffffffffffffffffffffffffffffffffffff1673ffffffffffffffffffffffffffffffffffffffff16815260200185151515158152602001848152602001838152602001828103825287818151815260200191508051906020019080838360005b83811015610db8578082015181840152602081019050610d9d565b50505050905090810190601f168015610de55780820380516001836020036101000a031916815260200191505b50965050505050505060405180910390f35b348015610e0357600080fd5b50610ebd60048036036020811015610e1a57600080fd5b8101908080359060200190640100000000811115610e3757600080fd5b820183602082011115610e4957600080fd5b80359060200191846001830284011164010000000083111715610e6b57600080fd5b91908080601f016020809104026020016040519081016040528093929190818152602001838380828437600081840152601f19601f820116905080830192505050505050509192919290505050613e90565b005b610f7860048036036020811015610ed557600080fd5b8101908080359060200190640100000000811115610ef257600080fd5b820183602082011115610f0457600080fd5b80359060200191846001830284011164010000000083111715610f2657600080fd5b91908080601f016020809104026020016040519081016040528093929190818152602001838380828437600081840152601f19601f8201169050808301925050505050505091929192905050506144bb565b005b348015610f8657600080fd5b5061104a60048036036040811015610f9d57600080fd5b8101908080359060200190640100000000811115610fba57600080fd5b820183602082011115610fcc57600080fd5b80359060200191846001830284011164010000000083111715610fee57600080fd5b91908080601f016020809104026020016040519081016040528093929190818152602001838380828437600081840152601f19601f82011690508083019250505050505050919291929080359060200190929190505050614a1e565b60405180806020018573ffffffffffffffffffffffffffffffffffffffff1673ffffffffffffffffffffffffffffffffffffffff16815260200184151515158152602001838152602001828103825286818151815260200191508051906020019080838360005b838110156110cc5780820151818401526020810190506110b1565b50505050905090810190601f1680156110f95780820380516001836020036101000a031916815260200191505b509550505050505060405180910390f35b8060011515600460003373ffffffffffffffffffffffffffffffffffffffff1673ffffffffffffffffffffffffffffffffffffffff168152602001908152602001600020600301826040518082805190602001908083835b602083106111855780518252602082019150602081019050602083039250611162565b6001836020036101000a038019825116818451168082178552505050505050905001915050908152602001604051809103902060009054906101000a900460ff1615151461123b576040517f08c379a00000000000000000000000000000000000000000000000000000000081526004018080602001828103825260198152602001807f596f7520617265206e6f7420696e20746869732067726f75700000000000000081525060200191505060405180910390fd5b81600115156003826040518082805190602001908083835b602083106112765780518252602082019150602081019050602083039250611253565b6001836020036101000a038019825116818451168082178552505050505050905001915050908152602001604051809103902060030160009054906101000a900460ff1615151461132f576040517f08c379a00000000000000000000000000000000000000000000000000000000081526004018080602001828103825260128152602001807f47726f7570206973206e6f74206578697374000000000000000000000000000081525060200191505060405180910390fd5b60003410156113a6576040517f08c379a000000000000000000000000000000000000000000000000000000000815260040180806020018281038252601a8152602001807f506c656173652073656e6420612076616c696420616d6f756e7400000000000081525060200191505060405180910390fd5b346003846040518082805190602001908083835b602083106113dd57805182526020820191506020810190506020830392506113ba565b6001836020036101000a038019825116818451168082178552505050505050905001915050908152602001604051809103902060070160003373ffffffffffffffffffffffffffffffffffffffff1673ffffffffffffffffffffffffffffffffffffffff16815260200190815260200160002081905550346003846040518082805190602001908083835b6020831061148b5780518252602082019150602081019050602083039250611468565b6001836020036101000a0380198251168184511680821785525050505050509050019150509081526020016040518091039020600201600082825401925050819055507f1cc308ba0845fc9dfb2b7c59303c61b3a4c4b54f2758356f654b4962957ae90a33346003866040518082805190602001908083835b602083106115275780518252602082019150602081019050602083039250611504565b6001836020036101000a038019825116818451168082178552505050505050905001915050908152602001604051809103902060020154604051808473ffffffffffffffffffffffffffffffffffffffff1673ffffffffffffffffffffffffffffffffffffffff168152602001838152602001828152602001935050505060405180910390a1505050565b6003826040518082805190602001908083835b602083106115e857805182526020820191506020810190506020830392506115c5565b6001836020036101000a038019825116818451168082178552505050505050905001915050908152602001604051809103902060030160009054906101000a900460ff161561169f576040517f08c379a00000000000000000000000000000000000000000000000000000000081526004018080602001828103825260188152602001807f67726f757020697320616c72656164792063726561746564000000000000000081525060200191505060405180910390fd5b6116a76152d3565b6040518060c001604052808481526020013373ffffffffffffffffffffffffffffffffffffffff168152602001600081526020016001151581526020016001815260200160008152509050806003846040518082805190602001908083835b602083106117295780518252602082019150602081019050602083039250611706565b6001836020036101000a03801982511681845116808217855250505050505090500191505090815260200160405180910390206000820151816000019080519060200190611778929190615321565b5060208201518160010160006101000a81548173ffffffffffffffffffffffffffffffffffffffff021916908373ffffffffffffffffffffffffffffffffffffffff1602179055506040820151816002015560608201518160030160006101000a81548160ff0219169083151502179055506080820151816004015560a082015181600501559050507fe6985da533d59f3fb572c1c30f7f445bae4836c26650d232293de633632aba19836003856040518082805190602001908083835b602083106118595780518252602082019150602081019050602083039250611836565b6001836020036101000a0380198251168184511680821785525050505050509050019150509081526020016040518091039020600401546003866040518082805190602001908083835b602083106118c657805182526020820191506020810190506020830392506118a3565b6001836020036101000a038019825116818451168082178552505050505050905001915050908152602001604051809103902060010160009054906101000a900473ffffffffffffffffffffffffffffffffffffffff1660405180806020018481526020018373ffffffffffffffffffffffffffffffffffffffff1673ffffffffffffffffffffffffffffffffffffffff168152602001828103825285818151815260200191508051906020019080838360005b8381101561199557808201518184015260208101905061197a565b50505050905090810190601f1680156119c25780820380516001836020036101000a031916815260200191505b5094505050505060405180910390a160016003846040518082805190602001908083835b60208310611a0957805182526020820191506020810190506020830392506119e6565b6001836020036101000a038019825116818451168082178552505050505050905001915050908152602001604051809103902060060160003373ffffffffffffffffffffffffffffffffffffffff1673ffffffffffffffffffffffffffffffffffffffff16815260200190815260200160002060006101000a81548160ff02191690831515021790555060405180606001604052808481526020013373ffffffffffffffffffffffffffffffffffffffff16815260200183815250600460003373ffffffffffffffffffffffffffffffffffffffff1673ffffffffffffffffffffffffffffffffffffffff1681526020019081526020016000206000820151816000019080519060200190611b1f929190615321565b5060208201518160010160006101000a81548173ffffffffffffffffffffffffffffffffffffffff021916908373ffffffffffffffffffffffffffffffffffffffff1602179055506040820151816002019080519060200190611b83929190615321565b509050506001600460003373ffffffffffffffffffffffffffffffffffffffff1673ffffffffffffffffffffffffffffffffffffffff168152602001908152602001600020600301846040518082805190602001908083835b60208310611bff5780518252602082019150602081019050602083039250611bdc565b6001836020036101000a038019825116818451168082178552505050505050905001915050908152602001604051809103902060006101000a81548160ff021916908315150217905550505050565b60001515600260008573ffffffffffffffffffffffffffffffffffffffff1673ffffffffffffffffffffffffffffffffffffffff16815260200190815260200160002060030160149054906101000a900460ff16151514611cae57600080fd5b6000600260008573ffffffffffffffffffffffffffffffffffffffff1673ffffffffffffffffffffffffffffffffffffffff16815260200190815260200160002090508060050160008573ffffffffffffffffffffffffffffffffffffffff1673ffffffffffffffffffffffffffffffffffffffff16815260200190815260200160002060009054906101000a900460ff1615611d4a57600080fd5b600115158160050160003373ffffffffffffffffffffffffffffffffffffffff1673ffffffffffffffffffffffffffffffffffffffff16815260200190815260200160002060009054906101000a9050505080600401600081548092919060010191905055508060040154606460506003866040518082805190602001908083835b60208310611def5780518252602082019150602081019050602083039250611dcc565b6001836020036101000a0380198251168184511680821785525050505050509050019150509081526020016040518091039020600401540281611e2e57fe5b04101561206657611e3f8484614d15565b60018160030160146101000a81548160ff02191690831515021790555060016000846040518082805190602001908083835b60208310611e945780518252602082019150602081019050602083039250611e71565b6001836020036101000a03801982511681845116808217855250505050505090500191505090815260200160405180910390208381548110611ed257fe5b906000526020600020906006020160030160146101000a81548160ff02191690831515021790555060016003846040518082805190602001908083835b60208310611f325780518252602082019150602081019050602083039250611f0f565b6001836020036101000a0380198251168184511680821785525050505050509050019150509081526020016040518091039020600501600082825403925050819055506000836040518082805190602001908083835b60208310611fab5780518252602082019150602081019050602083039250611f88565b6001836020036101000a03801982511681845116808217855250505050505090500191505090815260200160405180910390208281548110611fe957fe5b90600052602060002090600602016000808201600061200891906153a1565b60018201600061201891906153a1565b60028201600090556003820160006101000a81549073ffffffffffffffffffffffffffffffffffffffff02191690556003820160146101000a81549060ff0219169055600482016000905550505b7f802794574f626c7f2301ce39c790ee6f6dcb9427a466c9bd3d04902f3f2cf1c6338260040154604051808373ffffffffffffffffffffffffffffffffffffffff1673ffffffffffffffffffffffffffffffffffffffff1681526020018281526020019250505060405180910390a150505050565b60008160011515600460003373ffffffffffffffffffffffffffffffffffffffff1673ffffffffffffffffffffffffffffffffffffffff168152602001908152602001600020600301826040518082805190602001908083835b602083106121585780518252602082019150602081019050602083039250612135565b6001836020036101000a038019825116818451168082178552505050505050905001915050908152602001604051809103902060009054906101000a900460ff1615151461220e576040517f08c379a00000000000000000000000000000000000000000000000000000000081526004018080602001828103825260198152602001807f596f7520617265206e6f7420696e20746869732067726f75700000000000000081525060200191505060405180910390fd5b82600115156003826040518082805190602001908083835b602083106122495780518252602082019150602081019050602083039250612226565b6001836020036101000a038019825116818451168082178552505050505050905001915050908152602001604051809103902060030160009054906101000a900460ff16151514612302576040517f08c379a00000000000000000000000000000000000000000000000000000000081526004018080602001828103825260128152602001807f47726f7570206973206e6f74206578697374000000000000000000000000000081525060200191505060405180910390fd5b60006003856040518082805190602001908083835b6020831061233a5780518252602082019150602081019050602083039250612317565b6001836020036101000a038019825116818451168082178552505050505050905001915050908152602001604051809103902060070160003373ffffffffffffffffffffffffffffffffffffffff1673ffffffffffffffffffffffffffffffffffffffff1681526020019081526020016000205490506000811415612427576040517f08c379a000000000000000000000000000000000000000000000000000000000815260040180806020018281038252601c8152602001807f596f7520646f206e6f742068617665206c656e646564206d6f6e65790000000081525060200191505060405180910390fd5b346003866040518082805190602001908083835b6020831061245e578051825260208201915060208101905060208303925061243b565b6001836020036101000a0380198251168184511680821785525050505050509050019150509081526020016040518091039020600201541015612509576040517f08c379a000000000000000000000000000000000000000000000000000000000815260040180806020018281038252601a8152602001807f5468657265206973206e6f20656e6f7567682062616c616e636500000000000081525060200191505060405180910390fd5b34810390503373ffffffffffffffffffffffffffffffffffffffff166108fc349081150290604051600060405180830381858888f19350505050158015612554573d6000803e3d6000fd5b507fda9a10d7b992511ddadbfc7ff712c1424ce2058bbcdac8c9876d6f8de590d43f33346003886040518082805190602001908083835b602083106125ae578051825260208201915060208101905060208303925061258b565b6001836020036101000a038019825116818451168082178552505050505050905001915050908152602001604051809103902060020154604051808473ffffffffffffffffffffffffffffffffffffffff1673ffffffffffffffffffffffffffffffffffffffff168152602001838152602001828152602001935050505060405180910390a1809350505050919050565b60606003826040518082805190602001908083835b602083106126775780518252602082019150602081019050602083039250612654565b6001836020036101000a03801982511681845116808217855250505050505090500191505090815260200160405180910390206000018054600181600116156101000203166002900480601f0160208091040260200160405190810160405280929190818152602001828054600181600116156101000203166002900480156127415780601f1061271657610100808354040283529160200191612741565b820191906000526020600020905b81548152906001019060200180831161272457829003601f168201915b50505050509050919050565b60008160011515600460003373ffffffffffffffffffffffffffffffffffffffff1673ffffffffffffffffffffffffffffffffffffffff168152602001908152602001600020600301826040518082805190602001908083835b602083106127ca57805182526020820191506020810190506020830392506127a7565b6001836020036101000a038019825116818451168082178552505050505050905001915050908152602001604051809103902060009054906101000a900460ff16151514612880576040517f08c379a00000000000000000000000000000000000000000000000000000000081526004018080602001828103825260198152602001807f596f7520617265206e6f7420696e20746869732067726f75700000000000000081525060200191505060405180910390fd5b82600115156003826040518082805190602001908083835b602083106128bb5780518252602082019150602081019050602083039250612898565b6001836020036101000a038019825116818451168082178552505050505050905001915050908152602001604051809103902060030160009054906101000a900460ff16151514612974576040517f08c379a00000000000000000000000000000000000000000000000000000000081526004018080602001828103825260128152602001807f47726f7570206973206e6f74206578697374000000000000000000000000000081525060200191505060405180910390fd5b60006003856040518082805190602001908083835b602083106129ac5780518252602082019150602081019050602083039250612989565b6001836020036101000a038019825116818451168082178552505050505050905001915050908152602001604051809103902060080160003373ffffffffffffffffffffffffffffffffffffffff1673ffffffffffffffffffffffffffffffffffffffff1681526020019081526020016000205490506000811415612a99576040517f08c379a00000000000000000000000000000000000000000000000000000000081526004018080602001828103825260148152602001807f796f7520646f206e6f742068617665206465627400000000000000000000000081525060200191505060405180910390fd5b34811115612aa657600080fd5b803411612c1c57346003866040518082805190602001908083835b60208310612ae45780518252602082019150602081019050602083039250612ac1565b6001836020036101000a03801982511681845116808217855250505050505090500191505090815260200160405180910390206002016000828254019250508190555034810390507fa03e6a8cb7de48961fb0d71ac15ee76bf8efa0f99d2b2a4843a2795022ba9ce73334836003896040518082805190602001908083835b60208310612b865780518252602082019150602081019050602083039250612b63565b6001836020036101000a038019825116818451168082178552505050505050905001915050908152602001604051809103902060020154604051808573ffffffffffffffffffffffffffffffffffffffff1673ffffffffffffffffffffffffffffffffffffffff16815260200184815260200183815260200182815260200194505050505060405180910390a180935050612dcf565b346003866040518082805190602001908083835b60208310612c535780518252602082019150602081019050602083039250612c30565b6001836020036101000a038019825116818451168082178552505050505050905001915050908152602001604051809103902060020160008282540192505081905550600090503373ffffffffffffffffffffffffffffffffffffffff166108fc8234039081150290604051600060405180830381858888f19350505050158015612ce2573d6000803e3d6000fd5b507fa03e6a8cb7de48961fb0d71ac15ee76bf8efa0f99d2b2a4843a2795022ba9ce73334836003896040518082805190602001908083835b60208310612d3d5780518252602082019150602081019050602083039250612d1a565b6001836020036101000a038019825116818451168082178552505050505050905001915050908152602001604051809103902060020154604051808573ffffffffffffffffffffffffffffffffffffffff1673ffffffffffffffffffffffffffffffffffffffff16815260200184815260200183815260200182815260200194505050505060405180910390a1809350505b5050919050565b60006003826040518082805190602001908083835b60208310612e0e5780518252602082019150602081019050602083039250612deb565b6001836020036101000a038019825116818451168082178552505050505050905001915050908152602001604051809103902060030160009054906101000a900460ff16612e5b57600080fd5b600460003373ffffffffffffffffffffffffffffffffffffffff1673ffffffffffffffffffffffffffffffffffffffff168152602001908152602001600020600301826040518082805190602001908083835b60208310612ed15780518252602082019150602081019050602083039250612eae565b6001836020036101000a038019825116818451168082178552505050505050905001915050908152602001604051809103902060009054906101000a900460ff169050919050565b600381805160208101820180518482526020830160208501208183528095505050505050600091509050806000018054600181600116156101000203166002900480601f016020809104026020016040519081016040528092919081815260200182805460018160011615610100020316600290048015612fdb5780601f10612fb057610100808354040283529160200191612fdb565b820191906000526020600020905b815481529060010190602001808311612fbe57829003601f168201915b5050505050908060010160009054906101000a900473ffffffffffffffffffffffffffffffffffffffff16908060020154908060030160009054906101000a900460ff16908060040154908060050154905086565b60008082600115156003826040518082805190602001908083835b6020831061306e578051825260208201915060208101905060208303925061304b565b6001836020036101000a038019825116818451168082178552505050505050905001915050908152602001604051809103902060030160009054906101000a900460ff16151514613127576040517f08c379a00000000000000000000000000000000000000000000000000000000081526004018080602001828103825260128152602001807f47726f7570206973206e6f74206578697374000000000000000000000000000081525060200191505060405180910390fd5b6003846040518082805190602001908083835b6020831061315d578051825260208201915060208101905060208303925061313a565b6001836020036101000a038019825116818451168082178552505050505050905001915050908152602001604051809103902060080160003373ffffffffffffffffffffffffffffffffffffffff1673ffffffffffffffffffffffffffffffffffffffff168152602001908152602001600020546003856040518082805190602001908083835b6020831061320757805182526020820191506020810190506020830392506131e4565b6001836020036101000a038019825116818451168082178552505050505050905001915050908152602001604051809103902060070160003373ffffffffffffffffffffffffffffffffffffffff1673ffffffffffffffffffffffffffffffffffffffff168152602001908152602001600020549250925050915091565b600081600115156003826040518082805190602001908083835b602083106132c2578051825260208201915060208101905060208303925061329f565b6001836020036101000a038019825116818451168082178552505050505050905001915050908152602001604051809103902060030160009054906101000a900460ff1615151461337b576040517f08c379a00000000000000000000000000000000000000000000000000000000081526004018080602001828103825260128152602001807f47726f7570206973206e6f74206578697374000000000000000000000000000081525060200191505060405180910390fd5b6003836040518082805190602001908083835b602083106133b1578051825260208201915060208101905060208303925061338e565b6001836020036101000a038019825116818451168082178552505050505050905001915050908152602001604051809103902060020154915050919050565b81600115156003826040518082805190602001908083835b6020831061342b5780518252602082019150602081019050602083039250613408565b6001836020036101000a038019825116818451168082178552505050505050905001915050908152602001604051809103902060030160009054906101000a900460ff161515146134e4576040517f08c379a00000000000000000000000000000000000000000000000000000000081526004018080602001828103825260128152602001807f47726f7570206973206e6f74206578697374000000000000000000000000000081525060200191505060405180910390fd5b60011515600460003373ffffffffffffffffffffffffffffffffffffffff1673ffffffffffffffffffffffffffffffffffffffff168152602001908152602001600020600301846040518082805190602001908083835b6020831061355e578051825260208201915060208101905060208303925061353b565b6001836020036101000a038019825116818451168082178552505050505050905001915050908152602001604051809103902060009054906101000a900460ff1615151415613615576040517f08c379a000000000000000000000000000000000000000000000000000000000815260040180806020018281038252601d8152602001807f596f752061726520616c726561647920696e20746869732067726f757000000081525060200191505060405180910390fd5b61361d6153e9565b6040518060c00160405280858152602001848152602001600081526020013373ffffffffffffffffffffffffffffffffffffffff168152602001600015158152602001600081525090506000846040518082805190602001908083835b6020831061369d578051825260208201915060208101905060208303925061367a565b6001836020036101000a038019825116818451168082178552505050505050905001915050908152602001604051809103902081908060018154018082558091505090600182039060005260206000209060060201600090919290919091506000820151816000019080519060200190613718929190615321565b506020820151816001019080519060200190613735929190615321565b506040820151816002015560608201518160030160006101000a81548173ffffffffffffffffffffffffffffffffffffffff021916908373ffffffffffffffffffffffffffffffffffffffff16021790555060808201518160030160146101000a81548160ff02191690831515021790555060a08201518160040155505050806001856040518082805190602001908083835b602083106137eb57805182526020820191506020810190506020830392506137c8565b6001836020036101000a0380198251168184511680821785525050505050509050019150509081526020016040518091039020600082015181600001908051906020019061383a929190615321565b506020820151816001019080519060200190613857929190615321565b506040820151816002015560608201518160030160006101000a81548173ffffffffffffffffffffffffffffffffffffffff021916908373ffffffffffffffffffffffffffffffffffffffff16021790555060808201518160030160146101000a81548160ff02191690831515021790555060a0820151816004015590505080600260003373ffffffffffffffffffffffffffffffffffffffff1673ffffffffffffffffffffffffffffffffffffffff1681526020019081526020016000206000820151816000019080519060200190613932929190615321565b50602082015181600101908051906020019061394f929190615321565b506040820151816002015560608201518160030160006101000a81548173ffffffffffffffffffffffffffffffffffffffff021916908373ffffffffffffffffffffffffffffffffffffffff16021790555060808201518160030160146101000a81548160ff02191690831515021790555060a0820151816004015590505060016003856040518082805190602001908083835b60208310613a0657805182526020820191506020810190506020830392506139e3565b6001836020036101000a0380198251168184511680821785525050505050509050019150509081526020016040518091039020600501600082825401925050819055507fabb03f37ae8c7352058cab765175b6cc2718a473dbfc45776176521ca1e5949c8484336040518080602001806020018473ffffffffffffffffffffffffffffffffffffffff1673ffffffffffffffffffffffffffffffffffffffff168152602001838103835286818151815260200191508051906020019080838360005b83811015613ae3578082015181840152602081019050613ac8565b50505050905090810190601f168015613b105780820380516001836020036101000a031916815260200191505b50838103825285818151815260200191508051906020019080838360005b83811015613b49578082015181840152602081019050613b2e565b50505050905090810190601f168015613b765780820380516001836020036101000a031916815260200191505b509550505050505060405180910390a150505050565b60606000806000806003866040518082805190602001908083835b60208310613bca5780518252602082019150602081019050602083039250613ba7565b6001836020036101000a03801982511681845116808217855250505050505090500191505090815260200160405180910390206000016003876040518082805190602001908083835b60208310613c365780518252602082019150602081019050602083039250613c13565b6001836020036101000a038019825116818451168082178552505050505050905001915050908152602001604051809103902060010160009054906101000a900473ffffffffffffffffffffffffffffffffffffffff166003886040518082805190602001908083835b60208310613cc35780518252602082019150602081019050602083039250613ca0565b6001836020036101000a038019825116818451168082178552505050505050905001915050908152602001604051809103902060030160009054906101000a900460ff166003896040518082805190602001908083835b60208310613d3d5780518252602082019150602081019050602083039250613d1a565b6001836020036101000a03801982511681845116808217855250505050505090500191505090815260200160405180910390206004015460038a6040518082805190602001908083835b60208310613daa5780518252602082019150602081019050602083039250613d87565b6001836020036101000a038019825116818451168082178552505050505050905001915050908152602001604051809103902060050154848054600181600116156101000203166002900480601f016020809104026020016040519081016040528092919081815260200182805460018160011615610100020316600290048015613e765780601f10613e4b57610100808354040283529160200191613e76565b820191906000526020600020905b815481529060010190602001808311613e5957829003601f168201915b505050505094509450945094509450945091939590929450565b8060011515600460003373ffffffffffffffffffffffffffffffffffffffff1673ffffffffffffffffffffffffffffffffffffffff168152602001908152602001600020600301826040518082805190602001908083835b60208310613f0b5780518252602082019150602081019050602083039250613ee8565b6001836020036101000a038019825116818451168082178552505050505050905001915050908152602001604051809103902060009054906101000a900460ff16151514613fc1576040517f08c379a00000000000000000000000000000000000000000000000000000000081526004018080602001828103825260198152602001807f596f7520617265206e6f7420696e20746869732067726f75700000000000000081525060200191505060405180910390fd5b81600115156003826040518082805190602001908083835b60208310613ffc5780518252602082019150602081019050602083039250613fd9565b6001836020036101000a038019825116818451168082178552505050505050905001915050908152602001604051809103902060030160009054906101000a900460ff161515146140b5576040517f08c379a00000000000000000000000000000000000000000000000000000000081526004018080602001828103825260128152602001807f47726f7570206973206e6f74206578697374000000000000000000000000000081525060200191505060405180910390fd5b60006003846040518082805190602001908083835b602083106140ed57805182526020820191506020810190506020830392506140ca565b6001836020036101000a038019825116818451168082178552505050505050905001915050908152602001604051809103902060080160003373ffffffffffffffffffffffffffffffffffffffff1673ffffffffffffffffffffffffffffffffffffffff16815260200190815260200160002054146141b7576040517f08c379a000000000000000000000000000000000000000000000000000000000815260040180806020018281038252602b81526020018061545d602b913960400191505060405180910390fd5b6000600460003373ffffffffffffffffffffffffffffffffffffffff1673ffffffffffffffffffffffffffffffffffffffff168152602001908152602001600020600301846040518082805190602001908083835b6020831061422f578051825260208201915060208101905060208303925061420c565b6001836020036101000a038019825116818451168082178552505050505050905001915050908152602001604051809103902060006101000a81548160ff02191690831515021790555060006003846040518082805190602001908083835b602083106142b1578051825260208201915060208101905060208303925061428e565b6001836020036101000a038019825116818451168082178552505050505050905001915050908152602001604051809103902060060160003373ffffffffffffffffffffffffffffffffffffffff1673ffffffffffffffffffffffffffffffffffffffff16815260200190815260200160002060006101000a81548160ff02191690831515021790555060016003846040518082805190602001908083835b602083106143735780518252602082019150602081019050602083039250614350565b6001836020036101000a03801982511681845116808217855250505050505090500191505090815260200160405180910390206004016000828254039250508190555060006003846040518082805190602001908083835b602083106143ee57805182526020820191506020810190506020830392506143cb565b6001836020036101000a038019825116818451168082178552505050505050905001915050908152602001604051809103902060070160003373ffffffffffffffffffffffffffffffffffffffff1673ffffffffffffffffffffffffffffffffffffffff16815260200190815260200160002054905060008111156144b5573373ffffffffffffffffffffffffffffffffffffffff166108fc829081150290604051600060405180830381858888f193505050501580156144b3573d6000803e3d6000fd5b505b50505050565b8060011515600460003373ffffffffffffffffffffffffffffffffffffffff1673ffffffffffffffffffffffffffffffffffffffff168152602001908152602001600020600301826040518082805190602001908083835b602083106145365780518252602082019150602081019050602083039250614513565b6001836020036101000a038019825116818451168082178552505050505050905001915050908152602001604051809103902060009054906101000a900460ff161515146145ec576040517f08c379a00000000000000000000000000000000000000000000000000000000081526004018080602001828103825260198152602001807f596f7520617265206e6f7420696e20746869732067726f75700000000000000081525060200191505060405180910390fd5b81600115156003826040518082805190602001908083835b602083106146275780518252602082019150602081019050602083039250614604565b6001836020036101000a038019825116818451168082178552505050505050905001915050908152602001604051809103902060030160009054906101000a900460ff161515146146e0576040517f08c379a00000000000000000000000000000000000000000000000000000000081526004018080602001828103825260128152602001807f47726f7570206973206e6f74206578697374000000000000000000000000000081525060200191505060405180910390fd5b346003846040518082805190602001908083835b6020831061471757805182526020820191506020810190506020830392506146f4565b6001836020036101000a03801982511681845116808217855250505050505090500191505090815260200160405180910390206002015410156147c2576040517f08c379a000000000000000000000000000000000000000000000000000000000815260040180806020018281038252601a8152602001807f5468657265206973206e6f20656e6f7567682062616c616e636500000000000081525060200191505060405180910390fd5b346003846040518082805190602001908083835b602083106147f957805182526020820191506020810190506020830392506147d6565b6001836020036101000a0380198251168184511680821785525050505050509050019150509081526020016040518091039020600201600082825403925050819055503373ffffffffffffffffffffffffffffffffffffffff166108fc349081150290604051600060405180830381858888f19350505050158015614882573d6000803e3d6000fd5b50346003846040518082805190602001908083835b602083106148ba5780518252602082019150602081019050602083039250614897565b6001836020036101000a038019825116818451168082178552505050505050905001915050908152602001604051809103902060080160003373ffffffffffffffffffffffffffffffffffffffff1673ffffffffffffffffffffffffffffffffffffffff168152602001908152602001600020600082825401925050819055507f2e35ef503c2df7525f8147c0e59421bce400064713f992b10d1092456f6c6d6233346003866040518082805190602001908083835b602083106149935780518252602082019150602081019050602083039250614970565b6001836020036101000a038019825116818451168082178552505050505050905001915050908152602001604051809103902060020154604051808473ffffffffffffffffffffffffffffffffffffffff1673ffffffffffffffffffffffffffffffffffffffff168152602001838152602001828152602001935050505060405180910390a1505050565b6060600080600080866040518082805190602001908083835b60208310614a5a5780518252602082019150602081019050602083039250614a37565b6001836020036101000a03801982511681845116808217855250505050505090500191505090815260200160405180910390208581548110614a9857fe5b90600052602060002090600602016001016000876040518082805190602001908083835b60208310614adf5780518252602082019150602081019050602083039250614abc565b6001836020036101000a03801982511681845116808217855250505050505090500191505090815260200160405180910390208681548110614b1d57fe5b906000526020600020906006020160030160009054906101000a900473ffffffffffffffffffffffffffffffffffffffff166000886040518082805190602001908083835b60208310614b855780518252602082019150602081019050602083039250614b62565b6001836020036101000a03801982511681845116808217855250505050505090500191505090815260200160405180910390208781548110614bc357fe5b906000526020600020906006020160030160149054906101000a900460ff166000896040518082805190602001908083835b60208310614c185780518252602082019150602081019050602083039250614bf5565b6001836020036101000a03801982511681845116808217855250505050505090500191505090815260200160405180910390208881548110614c5657fe5b906000526020600020906006020160040154838054600181600116156101000203166002900480601f016020809104026020016040519081016040528092919081815260200182805460018160011615610100020316600290048015614cfd5780601f10614cd257610100808354040283529160200191614cfd565b820191906000526020600020905b815481529060010190602001808311614ce057829003601f168201915b50505050509350935093509350935092959194509250565b614d1d6153e9565b6001826040518082805190602001908083835b60208310614d535780518252602082019150602081019050602083039250614d30565b6001836020036101000a03801982511681845116808217855250505050505090500191505090815260200160405180910390206040518060c0016040529081600082018054600181600116156101000203166002900480601f016020809104026020016040519081016040528092919081815260200182805460018160011615610100020316600290048015614e2a5780601f10614dff57610100808354040283529160200191614e2a565b820191906000526020600020905b815481529060010190602001808311614e0d57829003601f168201915b50505050508152602001600182018054600181600116156101000203166002900480601f016020809104026020016040519081016040528092919081815260200182805460018160011615610100020316600290048015614ecc5780601f10614ea157610100808354040283529160200191614ecc565b820191906000526020600020905b815481529060010190602001808311614eaf57829003601f168201915b50505050508152602001600282015481526020016003820160009054906101000a900473ffffffffffffffffffffffffffffffffffffffff1673ffffffffffffffffffffffffffffffffffffffff1673ffffffffffffffffffffffffffffffffffffffff1681526020016003820160149054906101000a900460ff1615151515815260200160048201548152505090506001600382600001516040518082805190602001908083835b60208310614f985780518252602082019150602081019050602083039250614f75565b6001836020036101000a038019825116818451168082178552505050505050905001915050908152602001604051809103902060060160008573ffffffffffffffffffffffffffffffffffffffff1673ffffffffffffffffffffffffffffffffffffffff16815260200190815260200160002060006101000a81548160ff02191690831515021790555060016003836040518082805190602001908083835b6020831061505a5780518252602082019150602081019050602083039250615037565b6001836020036101000a038019825116818451168082178552505050505050905001915050908152602001604051809103902060040160008282540192505081905550604051806060016040528082600001518152602001826060015173ffffffffffffffffffffffffffffffffffffffff168152602001826020015181525060046000836060015173ffffffffffffffffffffffffffffffffffffffff1673ffffffffffffffffffffffffffffffffffffffff1681526020019081526020016000206000820151816000019080519060200190615139929190615321565b5060208201518160010160006101000a81548173ffffffffffffffffffffffffffffffffffffffff021916908373ffffffffffffffffffffffffffffffffffffffff160217905550604082015181600201908051906020019061519d929190615321565b50905050600160046000836060015173ffffffffffffffffffffffffffffffffffffffff1673ffffffffffffffffffffffffffffffffffffffff16815260200190815260200160002060030182600001516040518082805190602001908083835b6020831061522157805182526020820191506020810190506020830392506151fe565b6001836020036101000a038019825116818451168082178552505050505050905001915050908152602001604051809103902060006101000a81548160ff0219169083151502179055507f81e85c1fc03ee803c33d47b5ad61cc0f4e29de8680a46640ec63bc78b18b892683604051808273ffffffffffffffffffffffffffffffffffffffff1673ffffffffffffffffffffffffffffffffffffffff16815260200191505060405180910390a1505050565b6040518060c0016040528060608152602001600073ffffffffffffffffffffffffffffffffffffffff1681526020016000815260200160001515815260200160008152602001600081525090565b828054600181600116156101000203166002900490600052602060002090601f016020900481019282601f1061536257805160ff1916838001178555615390565b82800160010185558215615390579182015b8281111561538f578251825591602001919060010190615374565b5b50905061539d9190615437565b5090565b50805460018160011615610100020316600290046000825580601f106153c757506153e6565b601f0160209004906000526020600020908101906153e59190615437565b5b50565b6040518060c00160405280606081526020016060815260200160008152602001600073ffffffffffffffffffffffffffffffffffffffff168152602001600015158152602001600081525090565b61545991905b8082111561545557600081600090555060010161543d565b5090565b9056fe596f752063616e206e6f74206c656176652066726f6d2067726f75702e20596f7520686176652064656274a265627a7a7231582018c74c02ab160a797d6a628d14b545a63b8b449720b11adfc7dbb0267cb90c7364736f6c634300050c0032",
  "source": "pragma solidity ^0.5.11;\n\n/**************************************************************\n                    MAIN CONTRACT\n***************************************************************/\n\ncontract lendingBorrowing {\n    \n    struct Participant {\n        string groupNo;\n        address memberAddress;\n        string nameSurname;\n        mapping(string => bool) enrolledGroup;\n    }   \n    \n    struct Group {\n        string groupId;\n        address creator;\n        uint groupBalance;\n        bool isOpen;\n        uint numberOfMember;\n        uint requestCount;\n        \n        mapping(address => bool) members;\n        mapping(address => uint) lenders;\n        mapping(address => uint) borrowers;\n    }\n    \n    struct Request {\n        string groupId;\n        string nameSurname;\n        uint requestCount;\n        address candidate;\n        bool complete;\n        uint approvalCount;\n        mapping(address => bool) approvals;\n    }\n\n    mapping(string => Request[]) requestsArray;\n    mapping(string => Request) requests;\n    mapping(address => Request) requestsAddressArray;\n    \n    mapping(string => Group) public groups;\n    mapping(address => Participant) participants;\n    \n    \n    event LogCreatedRequest(string _groupId, string _nameSurname, address _participantAddress);\n    event LogCreatedGroup(string _groupId, uint numberOfMember, address _creator);\n    event LogApprovedRequest(address _approverAddress, uint approvalCount);\n    event LogAddedCandidateToGroup(address _memberAddress);\n    event LogLendingTransaction(address _memberAddress, uint amountLended, uint groupBalance);\n    event LogBorrowingTransaction(address _memberAddress, uint amountBorrowed, uint groupBalance);\n    event LogPayDebtedBack(address _memberAddress, uint amountPayedBack, uint remainDebt, uint groupBalance);\n    event LogWithdraw(address _memberAddress, uint withdrawedAmount, uint groupBalance);\n\n    modifier checkGroupOpen(string memory _groupId) {\n        require(groups[_groupId].isOpen == true, \"Group is not exist\");\n        _;\n    }\n    \n    modifier checkEnrolled(string memory _groupId) {\n        require(participants[msg.sender].enrolledGroup[_groupId] == true, \"You are not in this group\");\n        _;\n    }\n    \n    function createGroup(string memory _groupId, string memory nameSurname)\n    public\n    {\n        // check that is there any group with same name\n        require(!groups[_groupId].isOpen,\"group is already created\");\n        \n        // Create a new group\n        Group memory newGroup = Group({groupId: _groupId, creator: msg.sender, groupBalance: 0, isOpen: true, numberOfMember: 1, requestCount: 0});\n        groups[_groupId] = newGroup;\n        emit LogCreatedGroup(_groupId, groups[_groupId].numberOfMember, groups[_groupId].creator);\n\n        // add msg.sender to group as a member\n        groups[_groupId].members[msg.sender] = true;\n        participants[msg.sender] = Participant(_groupId, msg.sender, nameSurname);\n        participants[msg.sender].enrolledGroup[_groupId] = true;\n    }\n    \n    function leaveGroup(string memory _groupId)\n    public \n    checkEnrolled(_groupId)\n    checkGroupOpen(_groupId)\n    {\n        // check that member has no debt\n        require(groups[_groupId].borrowers[msg.sender] == 0, \"You can not leave from group. You have debt\");\n        \n        participants[msg.sender].enrolledGroup[_groupId] = false;\n        groups[_groupId].members[msg.sender] = false;\n        groups[_groupId].numberOfMember -= 1;\n        \n        // get the amount member lended\n        uint amountLended = groups[_groupId].lenders[msg.sender];\n        \n        // if lended amount is exist, send back to msg.sender\n        if (amountLended > 0) {\n            msg.sender.transfer(amountLended);\n        }\n    }\n    \n    \n    function enroll(string memory _groupId, string memory _nameSurname) \n    public \n    checkGroupOpen(_groupId)\n    {\n        // check is already enrolled to group\n        require(participants[msg.sender].enrolledGroup[_groupId] != true, \"You are already in this group\");\n        \n        // Create Request to enroll\n        Request memory newRequest = Request({\n            groupId: _groupId,\n            nameSurname: _nameSurname,\n            candidate: msg.sender,\n            complete: false,\n            approvalCount: 0,\n            requestCount: 0\n        });\n        requestsArray[_groupId].push(newRequest);\n        requests[_groupId] = newRequest;\n        requestsAddressArray[msg.sender] = newRequest;\n        groups[_groupId].requestCount += 1;\n        \n        emit LogCreatedRequest(_groupId, _nameSurname, msg.sender);\n        \n    }\n    \n    function approveRequest(address _candidateAddress, string memory _groupId, uint _id) \n    public \n    {\n        require(requestsAddressArray[_candidateAddress].complete == false);\n        Request storage request = requestsAddressArray[_candidateAddress];\n        \n        \n        // check that this member did not approve \n        require(!request.approvals[_candidateAddress]);\n        \n        request.approvals[msg.sender] == true;\n        request.approvalCount++;\n        \n        // if 80% of members approve that candidate can enroll, then add candidate to group\n        if  ((groups[_groupId].numberOfMember * 80) / 100 < request.approvalCount) {\n            addCandidateToGroup(_candidateAddress, _groupId);\n            request.complete = true;\n            requestsArray[_groupId][_id].complete = true;\n            groups[_groupId].requestCount -= 1;\n            delete requestsArray[_groupId][_id];\n        }\n        \n        emit LogApprovedRequest(msg.sender, request.approvalCount);\n        \n    }\n    \n    function addCandidateToGroup(address _memberAddress, string memory _groupId) \n    private \n    {\n        // adding the participant to group\n        Request memory request = requests[_groupId];\n        groups[request.groupId].members[_memberAddress] = true;\n        groups[_groupId].numberOfMember += 1;\n        \n        participants[request.candidate] = Participant(request.groupId, request.candidate, request.nameSurname);\n        participants[request.candidate].enrolledGroup[request.groupId] = true;\n        \n        emit LogAddedCandidateToGroup(_memberAddress);\n        \n    }\n    \n    function lending(string memory _groupId) \n    public \n    payable\n    checkEnrolled(_groupId) \n    checkGroupOpen(_groupId)\n    {\n        require(msg.value >= 0, \"Please send a valid amount\");\n        \n        groups[_groupId].lenders[msg.sender] = msg.value;\n        groups[_groupId].groupBalance += msg.value;\n        \n        emit LogLendingTransaction(msg.sender, msg.value, groups[_groupId].groupBalance);\n        \n    }\n    \n    \n    function borrowing(string memory _groupId) \n    public \n    payable\n    checkEnrolled(_groupId)\n    checkGroupOpen(_groupId)\n    {\n        // check is there enough amount\n        require(groups[_groupId].groupBalance >= msg.value, \"There is no enough balance\");\n        \n        // firstly, substrack group balance  \n        groups[_groupId].groupBalance -= msg.value;\n        \n        // Transfer the value to msg.sender\n        address(msg.sender).transfer(msg.value);\n        \n        // add the member to borrowers\n        groups[_groupId].borrowers[msg.sender] += msg.value;\n        \n        emit LogBorrowingTransaction(msg.sender, msg.value, groups[_groupId].groupBalance);\n        \n    }\n    \n    function payDebtBack(string memory _groupId)\n    public\n    payable\n    checkEnrolled(_groupId)\n    checkGroupOpen(_groupId)\n    returns(uint)\n    {\n        uint debt = groups[_groupId].borrowers[msg.sender];\n        \n        // check member has debt\n        require(debt != 0, \"you do not have debt\");\n        require(debt <= msg.value);\n        \n        if (msg.value <= debt) {\n            // for example:  debt = 100,  amount = 50\n            groups[_groupId].groupBalance += msg.value;\n            debt -= msg.value;\n            \n            emit LogPayDebtedBack(msg.sender, msg.value, debt, groups[_groupId].groupBalance);\n\n            return debt;\n            \n        }else {\n            // for example:  debt = 100,  amount = 150\n        \n            groups[_groupId].groupBalance += msg.value;\n            \n            // make debt of this member 0        \n            debt = 0;\n            \n            // lend amount exceed the debt to group\n            msg.sender.transfer(msg.value - debt);\n            \n            emit LogPayDebtedBack(msg.sender, msg.value, debt, groups[_groupId].groupBalance);\n            \n            return debt;\n        }\n        \n    }\n    \n    function withdraw(string memory _groupId)\n    public\n    payable\n    checkEnrolled(_groupId)\n    checkGroupOpen(_groupId)\n    returns(uint)\n    {\n        uint lendedAmount = groups[_groupId].lenders[msg.sender];\n        require(lendedAmount != 0, \"You do not have lended money\");\n        require(groups[_groupId].groupBalance >= msg.value, \"There is no enough balance\");\n        \n        lendedAmount -= msg.value;\n        msg.sender.transfer(msg.value);\n        \n        emit LogWithdraw(msg.sender, msg.value, groups[_groupId].groupBalance);\n        \n        return lendedAmount;\n    }\n    \n    \n    function checkParticipant(string memory _groupId)\n    public \n    view \n    returns(bool) \n    {\n        require(groups[_groupId].isOpen);\n        return participants[msg.sender].enrolledGroup[_groupId];\n    }\n    \n    function checkGroupBalance(string memory _groupId)\n    public \n    view \n    checkGroupOpen(_groupId)\n    returns(uint) \n    {\n        return groups[_groupId].groupBalance;\n    }\n\n    function checkGroup(string memory _groupId)\n    public \n    view\n    returns(string memory) \n    {\n        return groups[_groupId].groupId;\n    }\n\n    function getGroup(string memory _groupId) \n    public \n    view \n    returns(string memory, address, bool, uint, uint) {\n        return (groups[_groupId].groupId, groups[_groupId].creator, groups[_groupId].isOpen, groups[_groupId].numberOfMember, groups[_groupId].requestCount);\n    }\n\n    function checkMemberDebtStatus(string memory _groupId)\n    public \n    view \n    checkGroupOpen(_groupId)\n    returns(uint, uint) \n    {\n        return (groups[_groupId].borrowers[msg.sender], groups[_groupId].lenders[msg.sender]);\n    }\n\n    function getRequest(string memory _groupId, uint _id) \n    public \n    view \n    returns(string memory, address, bool, uint) {\n        return (requestsArray[_groupId][_id].nameSurname, requestsArray[_groupId][_id].candidate, requestsArray[_groupId][_id].complete, requestsArray[_groupId][_id].approvalCount);\n    }\n    \n}\n",
  "sourcePath": "/Users/murat.celiktepe/Documents/GitHub/ConsensysFinalProject/lendingBorrowing/contracts/lendingBorrowing.sol",
  "compiler": {
    "name": "solc",
    "version": "0.5.12+commit.7709ece9.Emscripten.clang"
  },
  "schemaVersion": "3.0.20",
  "updatedAt": "2020-01-23T12:58:33.045Z",
  "devdoc": {
    "methods": {}
  },
  "userdoc": {
    "methods": {},
    "notice": "************************************************************ MAIN CONTRACT**************************************************************"
  }
}